:100000000C9498220C94CAF80C949FF80C9474F8F1
:100010000C9449F80C941EF80C94F3F70C94C8F760
:100020000C949DF70C945EB50C945EB50C945EB583
:100030000C94C9220C94C9220C94C9220C94C92294
:100040000C94C9220D94BA220C94C9220C94C92292
:100050000C94C9220C94C9220D947F0D0C9453F773
:100060000C94C9220C94ED9B0C94E39B0C94C92234
:100070000C94C9220C94C9220C94C9220C94C92254
:100080000C94085D0C94C9220C94C9220C94C922CA
:100090000C94C9220C94C9220C94C9220C94C92234
:1000A0000C94C9220C94C9220C94DA5C0C94C922D9
:1000B0000C94C9220C94C9220C94C9220C94AC5CF7
:1000C0000C94C9220C94C9220C94C9220C94C92204
:1000D0000C94C9220C94C9220C94C9220C94C922F4
:1000E0000C94C922084AD73B3BCE016E84BCBFFDAD
:1000F000C12F3D6C74319ABD56833DDA3D00C77FF8
:1001000011BED9E4BB4C3E916BAAAABE0000008090
:100110003F05A84CCDB2D44EB93836A9020C50B91F
:10012000918688083CA6AAAA2ABE000000803F004B
:100130000D9407110D9410650D940C110D94EF1092
:100140000D94D0100D94710F0D94DC100D94F410DB
:100150000D941C6C0D94810F4E414E494E495459DB
:10016000494E46CDCCCC3D0AD7233C17B7D1387782
:10017000CC2B329595E6241FB14F0A000020410098
:1001800000C84200401C4620BCBE4CCA1B0E5AAEE2
:10019000C59D7400407A10F35A00A0724E180900F1
:1001A00010A5D4E80000E87648170000E40B5402DC
:1001B0000000CA9A3B000000E1F505000080969817
:1001C00000000040420F000000A086010000001067
:1001D0002700000000E803000000006400000000A9
:1001E000000A00000000000100000000002C76D88A
:1001F00088DC674F0823DFC1DFAE59E1B1B796E570
:10020000E3E453C63AE651997696E8E6C28426EBD3
:10021000898C9B62ED407C6FFCEFBC9C9F40F2BAE6
:10022000A56FA5F490055A2AF75C936B6CF9676D7E
:10023000C11BFCE0E40D47FEF520E6B500D0ED90D3
:100240002E0300943577050080841E080000204EA0
:100250000A000000C80C333333330F986E12831139
:1002600041EF8D2114893BE65516CFFEE6DB18D110
:10027000844B381BF77C1D901DA4BBE424203284E2
:10028000725E228100C9F124ECA1E53D275A524952
:10029000425F5632305F44395F50494E005A5249EE
:1002A000425F5632305F44365F50494E005A5F4DD0
:1002B000494E5F50524F42455F50494E005A5F537E
:1002C000544F505F50494E005A5F535445505F5051
:1002D000494E005A5F4D494E5F50494E005A5F4D9E
:1002E00041585F50494E005A5F454E41424C455F70
:1002F00050494E005A5F4449525F50494E005A5F80
:1003000043535F50494E00595F53544F505F50491B
:100310004E00595F535445505F50494E00595F4D50
:10032000494E5F50494E00595F454E41424C455F32
:1003300050494E00595F4449525F50494E00595F41
:1003400043535F50494E00585F53544F505F5049DC
:100350004E00585F535445505F50494E00585F4D12
:10036000494E5F50494E00585F454E41424C455FF3
:1003700050494E00585F4449525F50494E00585F03
:1003800043535F50494E0053535F50494E0053450D
:1003900052564F335F50494E00534552564F325FCD
:1003A00050494E00534552564F315F50494E00530D
:1003B0004552564F305F50494E00534453530053FB
:1003C000445F4445544543545F50494E0053434BAA
:1003D0005F50494E0052414D50535F44395F504980
:1003E0004E0052414D50535F44385F50494E0052C9
:1003F000414D50535F4431305F50494E004F524998
:10040000475F45335F4155544F5F46414E5F50490A
:100410004E004F5249475F45325F4155544F5F464A
:10042000414E5F50494E004F5249475F45315F4151
:1004300055544F5F46414E5F50494E004F52494719
:100440005F45305F4155544F5F46414E5F50494EC6
:10045000004D4F53495F50494E004D4F5346455450
:100460005F445F50494E004D49534F5F50494E0025
:100470004D4158363637355F53535F50494E004C27
:1004800045445F50494E004C43445F50494E535FD2
:100490005253004C43445F50494E535F454E4142D6
:1004A0004C45004C43445F50494E535F4437004C29
:1004B00043445F50494E535F4436004C43445F50C1
:1004C000494E535F4435004C43445F50494E535F9F
:1004D0004434004B494C4C5F50494E004845415410
:1004E00045525F4245445F50494E0048454154459E
:1004F000525F315F50494E004845415445525F308C
:100500005F50494E0046494C5F52554E4F55545F1F
:1005100050494E0046414E5F50494E0045315F53B1
:100520005445505F50494E0045315F454E41424C65
:10053000455F50494E0045315F4449525F50494E36
:100540000045315F43535F50494E0045315F41558F
:10055000544F5F46414E5F50494E0045305F535403
:1005600045505F50494E0045305F454E41424C4535
:100570005F50494E0045305F4449525F50494E003C
:1005800045305F43535F50494E0045305F415554FD
:100590004F5F46414E5F50494E00455F4D555832C2
:1005A0005F50494E00455F4D5558315F50494E00F0
:1005B000455F4D5558305F50494E00444F474C43BE
:1005C000445F53434B00444F474C43445F4D4F53AC
:1005D000490042544E5F454E430042544E5F454EE3
:1005E000320042544E5F454E31004245455045521F
:1005F0005F50494E004156525F53535F50494E0081
:100600004156525F53434B5F50494E004156525F33
:100610004D4F53495F50494E004156525F4D49532B
:100620004F5F50494E0054584430005258443000F7
:100630004572726F722077726974696E6720746F89
:1006400020454550524F4D210A00363726033C3D88
:10065000380E2E303E1213131A1C1824221E084482
:100660000A06430706450809000153544F505045F8
:10067000442E20005072696E7465722073746F701E
:100680007065642064756520746F206572726F7286
:10069000732E2046697820746865206572726F72C7
:1006A00020616E6420757365204D39393920746F6F
:1006B00020726573746172742E202854656D7065A4
:1006C0007261747572652069732072657365742E2A
:1006D00020536574206974206166746572207265A8
:1006E0007374617274696E67290A004E6F204368E3
:1006F00065636B73756D2077697468206C696E65CE
:10070000206E756D6265722C204C617374204C698B
:100710006E653A20004E6F20436865636B73756D9C
:100720002077697468206C696E65206E756D6265EE
:10073000722C204C617374204C696E653A20006302
:100740006865636B73756D206D69736D6174636843
:100750002C204C617374204C696E653A20004C6902
:100760006E65204E756D626572206973206E6F74C0
:10077000204C617374204C696E65204E756D626506
:10078000722B312C204C617374204C696E653A20B9
:10079000004D313130005344207265616420657230
:1007A000726F720A002121204B494C4C2063617505
:1007B000736564206279204B494C4C2062757474D7
:1007C0006F6E2F70696E0A002121204B494C4C201E
:1007D00063617573656420627920746F6F206D7535
:1007E000636820696E6163746976652074696D65FC
:1007F000202D2063757272656E7420636F6D6D615C
:100800006E643A2000506C656173652052657365B3
:1008100074005052494E5445522048414C5445446E
:100820000025533A202553004B494C4C45442E207B
:10083000005072696E7465722068616C7465642E14
:10084000206B696C6C28292063616C6C6564210ADB
:10085000006563686F3A004572726F723A004269D0
:100860006C696E656172204C6576656C696E672097
:10087000477269643A0A00486F74656E6420746F49
:100880006F20636F6C640A004732362043616E63E9
:10089000656C6564004732362048656174696E672F
:1008A000204E6F7A7A6C6500473236204865617455
:1008B000696E67204265640057616974696E6720DC
:1008C000666F72206865617475702E0A00466978DB
:1008D0006564204C656E677468205072696D6500B0
:1008E000446F6E65205072696D696E67004D616E70
:1008F00075616C207072696D696E672E2E2E004CCA
:10090000656176696E6720473236003F53706563D4
:10091000696669656420582C5920636F6F72646939
:100920006E617465206F7574206F6620626F756EDE
:1009300064732E0A003F2852296570656174207621
:10094000616C7565206E6F7420706C61757369627F
:100950006C653B206D757374206265206174206C3A
:100960006561737420312E0A003F537065636966B8
:10097000696564206E6F7A7A6C652074656D706548
:10098000726174757265206E6F7420706C6175731E
:1009900069626C652E0A003F53706563696669651C
:1009A000642066696C616D656E742073697A652078
:1009B0006E6F7420706C61757369626C652E0A00CD
:1009C0003F537065636966696564207072696D651F
:1009D000206C656E677468206E6F7420706C617532
:1009E0007369626C652E0A003F53706563696669BE
:1009F0006564206E6F7A7A6C652073697A65206E03
:100A00006F7420706C61757369626C652E0A003FAB
:100A100052657472616374696F6E204D756C746990
:100A2000706C696572206D757374206265207370D7
:100A3000656369666965642E0A003F537065636982
:100A4000666965642052657472616374696F6E20B3
:100A50004D756C7469706C696572206E6F7420706E
:100A60006C61757369626C652E0A003F5370656333
:100A70006966696564206C6179657220686569677B
:100A80006874206E6F7420706C61757369626C6538
:100A90002E0A0043292E0A003F5370656369666978
:100AA0006564206265642074656D7065726174753B
:100AB0007265206E6F7420706C61757369626C650D
:100AC000202834302D0047323620737461727469E7
:100AD0006E672E2E2E0A004F46460A004661646558
:100AE000204865696768742000426564204C65761B
:100AF000656C696E6720004661696C656420746F7F
:100B000020656E61626C6520426564204C65766587
:100B10006C696E670A00496E76616C6964206D6568
:100B200073682E0A0050726F62696E6720506F6999
:100B30006E740025532025692F2569002E0A002F89
:100B40000050726F62696E67206D65736820706F08
:100B5000696E742000202844525952554E2900478E
:100B60003239204175746F20426564204C6576658A
:100B70006C696E67003F20284C2C522C462C422971
:100B8000206F7574206F6620626F756E64732E0A15
:100B9000003F2856296572626F7365206C65766523
:100BA0006C20696D706C61757369626C65202830AA
:100BB0002D34292E0A00426164205A2076616C751A
:100BC000650A004E6F2062696C696E65617220670C
:100BD0007269640A0020284E6F7420796574206D54
:100BE00065617375726564290020204176657261C4
:100BF0006765206D65617375726564206261636B02
:100C00006C61736820286D6D293A00202042616371
:100C10006B6C6173682044697374616E636520282E
:100C20006D6D293A202020202020202000202846F9
:100C3000312E30203D2066756C6C2C2046302E30D5
:100C4000203D206E6F6E65290A002020436F72726E
:100C5000656374696F6E20416D6F756E742F4661A8
:100C600064652D6F75743A20202020204600616352
:100C7000746976653A0A00696E004261636B6C6163
:100C8000736820436F7272656374696F6E200044ED
:100C90006576696174696F6E0025533A202573008B
:100CA0005374616E6461726420446576696174692D
:100CB0006F6E3A20002052616E67653A2000204D29
:100CC00061783A2000204D696E3A20004D65616ED2
:100CD0003A200046696E6973686564210A002072D3
:100CE000616E67653A2000206D61783A2000206DC2
:100CF000696E3A2000207369676D613A2000206DAB
:100D000065616E3A20003A207A3A2000206F662012
:100D100000476F696E6720746F3A20580043570A86
:100D200000206469723A0020616E676C653A005376
:100D300074617274207261646975733A004D34385D
:100D400020506F696E740025533A2025642F256466
:100D500000506F736974696F6E696E67207468659F
:100D60002070726F62652E2E2E0A003F4E756D62E6
:100D70006572206F66206C65677320696E206D6FE9
:100D800076656D656E74206E6F7420706C6175731E
:100D900069626C652028302D3135292E0A003F20EC
:100DA00028582C5929206F7574206F6620626F7542
:100DB0006E64732E0A003F53616D706C6520736919
:100DC0007A65206E6F7420706C61757369626C65F2
:100DD0002028342D3530292E0A004D3438205A2D44
:100DE00050726F6265205265706561746162696CF2
:100DF00069747920546573740A003F285629657216
:100E0000626F7365206C6576656C20696D706C61CE
:100E1000757369626C652028302D34292E0A0050C4
:100E2000574D3A20202534640050574D3A20202554
:100E300034640050574D3A20202534640050574DFB
:100E40003A20202534640050574D3A202025346440
:100E50000050574D3A20202534640050574D3A2019
:100E6000202534640050574D3A202025346400502A
:100E7000574D3A20202534640050574D3A20202504
:100E800034640050574D3A20202534640050574DAB
:100E90003A20202534640050574D3A2020253464F0
:100EA0000050574D3A20202534640050574D3A20C9
:100EB000202534640050574D3A2020253464003AF0
:100EC000200020202020434F4D002020206E6F6EF8
:100ED0002D7374616E646172642050574D206D6F84
:100EE000646500202020636F6D7061726520696EFB
:100EF0007465727275707420656E61626C656400F1
:100F00002020206F766572666C6F7720696E74653D
:100F1000727275707420656E61626C6564003A204F
:100F2000002020202054494D534B00423A200020FD
:100F30002020205443435200413A2000202020200A
:100F400054434352002020202043533A20002020C5
:100F5000202057474D3A200050574D3A2020253445
:100F6000640050574D3A2020253464004700480063
:100F7000000088008A008C00B300B40000009800D4
:100F80009A009C00A800AA00AC0028012A012C01AC
:100F90002020202054494D455200440045006E0059
:100FA000800081006F00B000B100700090009100DF
:100FB0007100A000A10072002001210173002069CE
:100FC0007320616C736F207469656420746F207482
:100FD0006869732070696E0054494D455231430071
:100FE0000A202E002020002020506F72743A20002A
:100FF00020202000202020416E616C6F6720696EE8
:10100000203D2025356C64003C756E757365642F3A
:10101000756E6B6E6F776E3E002028412532642915
:101020002020002533642000257350494E3A2000CB
:101030004F7574707574203D2000496E7075742072
:10104000203D2000416E616C6F6720696E203D205D
:1010500025356C640070726F74656374656420007C
:1010600020284125326429202000253364200025D2
:101070007350494E3A20002B060001260601011943
:101080000632010C06330100063401F5053501EA8C
:10109000052501E2051F01DA052101D2052301C65C
:1010A000053301BB053401B0052801A5052A019AC5
:1010B000052C018A05060180052A0175051C0167BA
:1010C0000518015B051A014B05060141052C013687
:1010D00005220128051E011C05240114050901052E
:1010E000050401F8040A01EB040701DC040801D33C
:1010F000042901C7041701BB041901AF041B01A394
:10110000041D0193041101870410017F040D017077
:10111000044201670432015A040701510433013CBF
:101120000406012704060112040601FD030601EF6F
:10113000030A01E2030801D5030901CD033401BF0D
:10114000033101BA033501AF030F01A4030601996E
:101150000305018E030401870335017E0335017405
:10116000033701670326015D03030152033601477C
:101170000303013E03310134033D01270338011D00
:10118000030E0112033C0107030E01FE022801F4C5
:10119000023001E7023E01DD021301D3021201C851
:1011A000022E01BD021201AD0213019D0206018D46
:1011B000020901446F6E652E0A005A5F50524F4279
:1011C000455F534552564F5F4E52206E6F742073E9
:1011D00065742075702E0A005761746368696E67C4
:1011E0002070696E730A0064697300656E00616245
:1011F0006C65640A00656E6473746F70206D6F6E49
:1012000069746F7220003A200020536572766F2057
:1012100000206F7574206F662072616E67650A002A
:10122000536572766F2000290A00204B0028536C0A
:101230006F742000204B00205300416476616E6380
:10124000652054003F4C2076616C7565206F757485
:10125000206F662072616E67652028302D3130293D
:101260002E0A003F4B2076616C7565206F757420E7
:101270006F662072616E67652028302D3130292E0F
:101280000A003F542076616C7565206F7574206F7D
:10129000662072616E67652E0A005761726E696E14
:1012A00067203A20436C65616E20436972636C6508
:1012B0002072657175697265732058590A004D3640
:1012C00030303A20546F6F20436F6C6400486F7465
:1012D000656E6420746F6F20636F6C640A005072D7
:1012E00065737320627574746F6E20746F20686507
:1012F0006174206E6F7A7A6C650A0020496E76619F
:101300006C69642065787472756465722000446944
:1013100066663A200046726F6D5374703A005374DB
:1013200065707065723A00556E4C6576656C3A0072
:101330004C6576656C65643A005261773A202020EE
:1013400020000A4C6F676963616C3A00436F756EE9
:101350007420453A004361703A00290A0020746FF6
:1013600020003F5A206F7574206F662072616E678F
:1013700065202800290A0020746F20003F59206F43
:101380007574206F662072616E676520282D0029B4
:101390000A0020746F20003F58206F7574206F661C
:1013A0002072616E676520282D0050726F62652083
:1013B0004F6666736574205800220A00656E717569
:1013C000657565696E672022006F6B0052657365F5
:1013D0006E643A200023646566696E652044454664
:1013E00041554C545F004B6420004B6920004B700A
:1013F0002000504944204175746F74756E652066F5
:10140000696E69736865642120507574207468651D
:10141000206C617374204B702C204B6920616E64CA
:10142000204B6420636F6E7374616E7473206672F8
:101430006F6D2062656C6F7720696E746F20436FEB
:101440006E66696775726174696F6E2E680A005006
:101450004944204175746F74756E65206661696CCE
:101460006564212074696D656F75740A0050494484
:10147000204175746F74756E65206661696C656472
:10148000212054656D706572617475726520746F8A
:101490006F20686967680A00204B643A2000204B7F
:1014A000693A2000204B703A20000A20436C617397
:1014B00073696320504944200A00204B643A20009D
:1014C000204B693A2000204B703A20000A204E6FD2
:1014D000206F76657273686F6F740A002054753AD6
:1014E0002000204B753A2000206D61783A200020C2
:1014F0006D696E3A200020643A20002062696173B1
:101500003A2000504944204175746F74756E65200F
:1015100073746172740A00504944204175746F7489
:10152000756E65206661696C6564212054656D7017
:101530006572617475726520746F6F206869676881
:101540000A00504944204175746F74756E652066B9
:1015500061696C65642120426164206578747275EC
:10156000646572206E756D6265720A004572723A2A
:10157000207574663820666F6E74206E6F742069F3
:101580006E697469616C697A65642E004572723A9D
:10159000207574663820666F6E74206E6F742069D3
:1015A0006E697469616C697A65642E004572723A7D
:1015B000207574663820666F6E74206E6F742069B3
:1015C0006E697469616C697A65642E004C6F616440
:1015D0002046696C616D656E74202A004C6F6164F1
:1015E000206D6D00556E6C6F61642046696C616D95
:1015F000656E74202A00556E6C6F6164206D6D00FD
:1016000046696C2E204469612E202A0046696C2EA2
:10161000204469612E004520696E206D6DC2B300C3
:10162000416476616E6365204B202A004D33303370
:101630002055312045256920532569005049442013
:101640004175746F74756E65202A005049442D44AD
:10165000202A005049442D49202A005049442D5049
:10166000202A0020082046616374002008204D6174
:1016700078002008204D696E004F6666004F6E00AE
:101680004175746F74656D70005654726176204DAB
:10169000696E00566D696E00566D61782045005682
:1016A0006D6178205A00566D6178205900566D6141
:1016B00078205800416D6178204500416D617820A7
:1016C0005A00416D6178205900416D6178205800C1
:1016D000412D54726176656C00412D5265747261C2
:1016E000637400416363656C004A756E6374696F6F
:1016F0006E204465760050726F6265205A204F66F6
:10170000667365740050726F62652059204F66667B
:101710007365740050726F62652058204F6666735F
:101720006574004573746570732F6D6D005A737422
:101730006570732F6D6D005973746570732F6D6DC7
:10174000005873746570732F6D6D00416476616E1F
:101750006365642053657474696E6773003F00436A
:10176000616E63656C00496E697400496E697469E5
:10177000616C697A6520454550524F4D0046696C51
:10178000616D656E740054656D706572617475721B
:1017900065004261636B6C617368005374657073BC
:1017A0002F6D6D0050726F6265204F6666736574B1
:1017B00073004A65726B00416363656C65726174A6
:1017C000696F6E0056656C6F6369747900436F6E64
:1017D00066696775726174696F6E005A00590058C6
:1017E00000436F7272656374696F6E004D61696E5C
:1017F000003F004E65787420436F726E657200443E
:101800006F6E65004E65787400486F6D696E672075
:1018100058595A00000C0D00FE07022603BC017F38
:10182000FE08FE08FE05080806000040F0C888888B
:10183000987810050808060000C0F888888888880D
:10184000F80505050600012030F8302005080806D7
:1018500000002070F820202020E00509090600FF84
:101860002070A8A8B888887020050606060001E048
:101870008CEA8C8A0A0509090600FFF8A88888887E
:101880008888A8F8050A0A0600FE205050505088A3
:10189000A8A8887003030306000340A040FFFFFFD1
:1018A000FFFFFFFFFFFFFFFFFFFFFFFFFFFFFFFF48
:1018B000FFFFFF0000000605FF010707060200808A
:1018C000808080800080030303060105A0A0A0059E
:1018D000060606000050F85050F8500509090600A9
:1018E000FF2070A8A07028A8702005070706000038
:1018F000C8C8102040989805070706000040A0A01F
:1019000040A890680103030602058080800309094E
:101910000601FF20404080808040402003090906E6
:1019200001FF80404020202040408005070706003E
:101930000020A8702070A8200505050600012020C1
:10194000F820200203030601FFC0408005010106C4
:101950000003F8020202060100C0C00507070600E6
:10196000000810102040408005070706000070881E
:1019700098A8C8887003070706010040C04040408F
:1019800040E0050707060000708808102040F805B1
:101990000707060000F808103008887005070706DA
:1019A000000010305090F81010050707060000F8EE
:1019B00080F008088870050707060000304080F0B6
:1019C000888870050707060000F8081010202020FE
:1019D000050707060000708888708888700507076B
:1019E000060000708888780810600205050601006E
:1019F000C0C000C0C00206060601FFC0C000C04053
:101A000080030505060101204080402005030306F0
:101A10000002F800F803050506010180402040801F
:101A20000507070600007088102020002005070722
:101A30000600007088B8A8B8807005070706000087
:101A4000708888F8888888050707060000F04848ED
:101A5000704848F00507070600007088808080887D
:101A600070050707060000F04848484848F0050799
:101A700007060000F88080F08080F8050707060060
:101A800000F88080F08080800507070600007088DD
:101A90008080988870050707060000888888F88885
:101AA0008888030707060100E04040404040E00509
:101AB0000707060000381010101090600507070691
:101AC00000008890A0C0A09088050707060000804D
:101AD0008080808080F805070706000088D8A888E5
:101AE0008888880507070600008888C8A89888881D
:101AF0000507070600007088888888887005070732
:101B0000060000F08888F080808005070706000046
:101B100070888888A89068050707060000F0888804
:101B2000F0A090880507070600007088807008887C
:101B300070050707060000F8202020202020050758
:101B400007060000888888888888700507070600CF
:101B5000008888888850502005070706000088887C
:101B60008888A8A8500507070600008888502050DC
:101B70008888050707060000888850202020200557
:101B80000707060000F80810204080F8030909063E
:101B900001FFE080808080808080E00507070600EC
:101BA00000804040201010080309090601FFE020D2
:101BB000202020202020E005030306000520508877
:101BC0000501010600FEF80303030601058040201D
:101BD00005050506000070087888780507070600E7
:101BE000008080F0888888F0050505060000708078
:101BF00080887005070706000008087888888878BC
:101C00000505050600007088F080700507070600CE
:101C100000304840E04040400507070600FE70885D
:101C200088887808700507070600008080F088889B
:101C300088880307070601004000C0404040E004D8
:101C400009090601FE100030101010109060050701
:101C50000706000080808890E0908803070706014F
:101C600000C04040404040E0050505060000D0A807
:101C7000A8A8A8050505060000B0C888888805053D
:101C80000506000070888888700507070600FEF0CA
:101C9000888888F080800507070600FE7888888895
:101CA000780808050505060000B0C8808080050595
:101CB0000506000078807008F00507070600002080
:101CC00020F820202018050505060000888888983F
:101CD000680505050600008888885020050505066A
:101CE00000008888A8A85005050506000088502037
:101CF00050880507070600FE888888502040800528
:101D00000505060000F8102040F80309090601FF48
:101D10002040404080404040200109090602FF80E9
:101D200080808080808080800309090601FF8040D8
:101D30004040204040408005030306000248A89030
:101D4000FF554E4C4F41442046494C414D454E5461
:101D5000004C4F41442046494C414D454E540046AD
:101D6000494C414D454E54204348414E4745001F84
:101D7000E020102310249010A011202210241037EE
:101D8000B00840048003001FE0201021102310152C
:101D90002011202110211031300840048003001F41
:101DA000E03FF03CF03B701F601EE03DF03BF03840
:101DB000700FC0078003001FE03FF03EF03CF01AB8
:101DC000E01EE03EF03EF03EF00FC0078003005AF8
:101DD0002056616C756500496E646578205900492C
:101DE0006E64657820580053746F72652053657473
:101DF00074696E6773004C6F616420536574746915
:101E00006E6773004C6576656C20436F726E657209
:101E1000730050726F6265205A204F666673657456
:101E2000004661646520486569676874004F6666AE
:101E3000004F6E00426564204C6576656C696E6784
:101E40000045646974204D657368004732380A475D
:101E5000323900473239004C6576656C2042656442
:101E6000004175746F20486F6D65004D6F74696F28
:101E70006E005A20526169736500326E64204E6FA5
:101E80007A7A6C65205A00326E64204E6F7A7A6CD2
:101E900065205900326E64204E6F7A7A6C65205846
:101EA00000426564004E6F7A7A6C650046616E2070
:101EB000537065656400436F6E666967757261741F
:101EC000696F6E004C6F61642053657474696E674E
:101ED0007300526573746F72652044656661756C3A
:101EE00074730053746F72652053657474696E6700
:101EF0007300507265686561742041425320436FDE
:101F00006E66005072656865617420504C412043D4
:101F10006F6E6600546F6F6C204368616E6765007A
:101F2000546F6F6C204F6666736574730050726FE8
:101F30006265205A204F666673657400416476615D
:101F40006E6365642053657474696E6773004D61D8
:101F5000696E004D37303220542564004D363030E4
:101F600020423020542564004D373032203B256418
:101F7000004D37303120542564004368616E676539
:101F80002046696C616D656E7400556E6C6F61649E
:101F90002046696C616D656E74004C6F616420460B
:101FA000696C616D656E740050726568656174205E
:101FB00041425300507265686561742043757374C3
:101FC0006F6D005072656865617420504C4100422D
:101FD00061636B004D36303020423020542569005B
:101FE0004D37303120542569004D3730322054258B
:101FF00069004C6F61642046696C616D656E742088
:102000002A00556E6C6F61642046696C616D656E67
:1020100074202A004368616E67652046696C616DB3
:10202000656E74202A004D61696E00436F6E74699D
:102030006E7565005075726765206D6F7265005230
:102040004553554D45204F5054494F4E533A00503B
:1020500052494E54205041555345440020204E6F64
:102060007A7A6C653A20005061726B696E672E2E29
:102070002E0000005761697420666F720066696CFB
:10208000616D656E74206368616E676500746F20B2
:102090007374617274005761697420666F720066B0
:1020A000696C616D656E7420756E6C6F61640000A3
:1020B0004E6F7A7A6C652068656174696E6700504E
:1020C0006C6561736520776169742E2E2E00005057
:1020D0007265737320627574746F6E00746F20681C
:1020E000656174206E6F7A7A6C650000496E736565
:1020F00072742066696C616D656E7400616E642037
:10210000707265737320627574746F6E00746F20E3
:10211000636F6E74696E7565005761697420666FD0
:10212000720066696C616D656E74206C6F6164002D
:1021300000507265737320427574746F6E00746F13
:1021400020726573756D65207072696E740000573A
:1021500061697420666F72207072696E7400746FAA
:1021600020726573756D652E2E2E0000576169749F
:1021700020666F720066696C616D656E74207075A3
:102180007267650000313530003A200035003A2092
:10219000004245443A5A6F6E657374617220285448
:1021A000726F6E787920583341290052756E6177CD
:1021B00061792057617463683A204F4E00333030A4
:1021C000003A200035003A200045323A204154437D
:1021D0002031303447542D32004D61782054656DE4
:1021E0007000323735003A20004D696E2054656D1D
:1021F000700035003A200045313A204154432031E7
:10220000303447542D32005053550047656E657287
:102210006963003A200050726F746F636F6C003115
:102220002E30003A20004261756400313135323081
:1022300030003A20004D4B532047454E203E3D2074
:1022400076312E330042696C696E656172204C658F
:1022500076656C696E670045787472756465727333
:102260000032003A2000687474703A2F2F6D61724A
:102270006C696E66772E6F7267005A385232003280
:102280003032302D30322D323700322E302E342E77
:1022900034004D61726C696E00546865726D6973CB
:1022A000746F727300426F61726420496E666F00D2
:1022B0005072696E74657220496E666F004D616977
:1022C0006E003F004261636B0053746F7000507288
:1022D000696E742066726F6D204D65646961004D92
:1022E0003231004368616E6765204D656469610045
:1022F00041626F7574205072696E74657200436834
:10230000616E67652046696C616D656E7400436F30
:102310006E66696775726174696F6E0054656D7081
:1023200065726174757265004D6F74696F6E0052ED
:102330006573756D65205072696E740054756E65B5
:102340000053746F70205072696E74005061757321
:1023500065205072696E74004E6F204D656469612E
:1023600000496E666F2053637265656E003F0053CF
:1023700074617274205072696E740043616E63659B
:102380006C005072696E740043616E6E6F742065EC
:102390006E746572207375626469723A2000022E51
:1023A0002E004D61696E004D6F76652025736D6D51
:1023B00000004D6F766520302E316D6D004D6F76CB
:1023C0006520316D6D004D6F76652031306D6D008B
:1023D000486F74656E6420746F6F20636F6C640067
:1023E0004578747275646572202A00457874727538
:1023F000646572004D6F7665205A004D6F766520DA
:1024000059004D6F76652058004F6666004F6E008C
:10241000536F667420456E6473746F7073004D6FF4
:1024200074696F6E004D38340044697361626C6585
:10243000205374657070657273004732380A4D34EA
:102440003820503130004D34382050726F62652092
:102450005465737400426564204C6576656C696EE2
:102460006700473238205A00486F6D65205A004790
:102470003238205900486F6D6520590047323820A6
:102480005800486F6D652058004732380041757418
:102490006F20486F6D65004D6F76652041786973D8
:1024A000004D61696E005072656865617420504C22
:1024B0004120416C6C005072656865617420504C1D
:1024C0004120426564005072656865617420504C1B
:1024D0004120456E64207E005072656865617420FD
:1024E000504C41207E005072656865617420414205
:1024F0005320416C6C0050726568656174204142E4
:102500005320456E64207E005072656865617420BA
:10251000414253207E0050726568656174204142DB
:1025200053204265640054656D7065726174757204
:102530006500436F6F6C646F776E005072656865FD
:102540006174204142530050726568656174205087
:102550004C410046616E20537065656400426564BD
:10256000004E6F7A7A6C65207E004D61696E004185
:102570006476616E6365204B202A00466C6F77207D
:102580007E00466C6F770046616E2053706565640F
:1025900000426564004E6F7A7A6C65207E0053704D
:1025A000656564004D61696E002568753A253032B5
:1025B00068750025303268753A2530326875002517
:1025C0006875642025303268753A253032687500A8
:1025D000871D6F1DB71D9F1D3FFFF038007030FC39
:1025E0003020FC102078102030102C00D02E31D05C
:1025F0002F7BD02F7BD02E31D02C00D0203010203C
:10260000781020FC1030FC303800703FFFF03FFFA6
:10261000F03800703186302387102787902F87D0BD
:102620002F03D02030102078102078102030102F69
:1026300003D02F87D027879023871031863038002A
:10264000703FFFF01FFFF81FFFF804104002082042
:1026500002082004104008208010410010410008AA
:1026600020800410400000001FFFF81FFFF84D6598
:102670006469612052656D6F766564004D656469BB
:102680006120496E736572746564005072696E747E
:102690002041626F72746564004D3235005061757F
:1026A0007365205072696E7400290A002062797483
:1026B00065733B20637263200053657474696E67B1
:1026C000732053746F726564202800454550524F43
:1026D0004D206461746173697A65206572726F72EE
:1026E0002E0A00290A002062797465733B20637208
:1026F0006320002073746F7265642073657474695D
:102700006E6773207265747269657665642028004F
:10271000202863616C63756C6174656429210A000B
:1027200020213D2000454550524F4D20435243202B
:102730006D69736D61746368202D202873746F72E6
:1027400065642920002053697A653A2000496E6447
:1027500065783A2000204D61726C696E3D563736BF
:10276000290A00454550524F4D2076657273696FB6
:102770006E206D69736D6174636820284545505201
:102780004F4D3D00454550524F4D20496E6974698B
:10279000616C697A65640A0048617264636F64659C
:1027A000642044656661756C742053657474696E49
:1027B0006773204C6F616465640A00000048430041
:1027C00000484300002042000048420000A04200B0
:1027D00000A0420000C8430000C842E2040000E23A
:1027E000040000E2040000881300003B20003A0AC5
:1027F0000020204D363033200020204D343235204B
:1028000046004261636B6C61736820636F6D706535
:102810006E736174696F6E3A00546F6F6C2D6368EC
:10282000616E67696E673A002055005431204C0094
:102830002055005430204C0046696C616D656E7403
:10284000206C6F61642F756E6C6F6164206C656EB7
:10285000677468733A00204B0020204D39303020D7
:1028600054004C696E65617220416476616E6365E7
:102870003A0020204D3835312058005A2D50726FC3
:102880006265204F6666736574002044002049002D
:1028900020500020204D3330312045005049442045
:1028A00073657474696E67733A00204600204200B5
:1028B00020480020204D3134352053004D6174658F
:1028C0007269616C206865617475702070617261F5
:1028D0006D65746572733A00204A002020473239D2
:1028E000205720490020204D3432302053004175BC
:1028F000746F20426564204C6576656C696E673A3A
:102900000020204D323138205400486F74656E64C9
:10291000206F6666736574733A00204A0020530086
:1029200020204D323035204200416476616E63656F
:10293000643A20423C6D696E5F7365676D656E74C5
:102940005F74696D655F75733E20533C6D696E5FA2
:1029500066656564726174653E20543C6D696E5FA6
:1029600074726176656C5F66656564726174653EFC
:10297000204A3C6A756E635F6465763E00205200B3
:1029800020204D323034205000416363656C657205
:102990006174696F6E2028756E6974732F733229A4
:1029A0003A20503C7072696E745F616363656C3E7F
:1029B00020523C726574726163745F616363656C1D
:1029C0003E20543C74726176656C5F616363656C34
:1029D0003E0020204D3230312058004D6178696D25
:1029E000756D20416363656C65726174696F6E20FB
:1029F00028756E6974732F7332293A0020204D3286
:102A000030332058004D6178696D756D20666565BD
:102A10006472617465732028756E6974732F7329ED
:102A20003A0053746570732070657220756E697416
:102A30003A0020204D3230302044300A002044003B
:102A400020204D323030002044697361626C65642F
:102A50000A0046696C616D656E74207365747469F3
:102A60006E67733A0020204D3134392043203B20DB
:102A7000556E69747320696E2043656C7369757354
:102A80000A0020286D6D29002020473231202020A7
:102A9000203B20556E69747320696E206D6D006F48
:102AA00070656E00545249474745524544003A20EC
:102AB000007A5F70726F6265007A5F6D6178007A8C
:102AC0005F6D696E00795F6D696E00785F6D696E2C
:102AD000005265706F7274696E6720656E647374FE
:102AE0006F70207374617475730A00205A3A002065
:102AF000593A0020436F756E7420583A0020453AC9
:102B000000205A3A0020593A00583A0000009643F3
:102B1000000096430000C84300000CC20000A0C0A3
:102B20000000000020746F6F206C6F6E6720657866
:102B300074727573696F6E2070726576656E7465F8
:102B4000640A0020636F6C64206578747275736921
:102B50006F6E2070726576656E7465640A00486FEA
:102B60006D696E67204661696C65640000000CC287
:102B70000000A0C0000000000000484200004842E1
:102B8000000020415761726E696E673A20486F6D90
:102B9000696E672042756D702044697669736F7243
:102BA000203C20310A000202040000A0400000A0E6
:102BB00040000000400080A743008098430000C808
:102BC00043FFFFFF00000001000000010000800043
:102BD000555555000000400033333300AAAA2A009F
:102BE0004992240000002000C7711C009999190027
:102BF000D1451700555515003BB11300244912006B
:102C000011111100000010000F0F0F00E3380E002B
:102C100043790D00CCCC0C00C3300C00E8A20B00B3
:102C200064210B00AAAA0A00703D0A009DD8090081
:102C3000427B090092240900DCD308008888080040
:102C40001042080000000800F0C107008787070055
:102C500075500700711C07003EEB0600A1BC060082
:102C60006990060066660600703E06006118060060
:102C700017F4050074D105005BB00500B2900500A3
:102C8000627205005555050078390500B81E05002B
:102C9000050505004EEC040087D40400A1BD040026
:102CA00090A7040049920400C17D0400EE6904006D
:102CB000C7560400444404005C32040008210400A8
:102CC00041100400000004003FF00300F8E003009E
:102CD00026D20300C3C30300CCB503003AA8030007
:102CE0000A9B0300388E0300C08103009F75030018
:102CF000D0690300505E03001D53030034480300F5
:102D0000913D03003333030016290300381F0300ED
:102D100097150300300C0300030303000BFA0200B5
:102D200049F10200BAE802005CE002002DD802007E
:102D30002DD0020059C80200B0C0020031B9020013
:102D4000DAB10200AAAA0200A0A30200BC9C020001
:102D5000FA9502005C8F0200DF8802008282020086
:102D6000457C02002776020027700200436A0200B9
:102D70007C640200D05E02003F590200C85302008A
:102D80001000C90210012C0140012201700118013C
:102D9000B0010E01F00104015002FA00B002F0008F
:102DA0003003E600D003DC009004D2007005C800B8
:102DB000A006BE000008B400B009AA00D00BA00015
:102DC000600E960060118C000015820020197800BA
:102DD000C01D6E00A0226400B0275A00902C500045
:102DE00000314600E0343C0010383200903A2800B0
:102DF000603C1E00A03D1400803E0A00203F000001
:102E0000206C696D6974656420746F2000204D61C9
:102E1000782000FFFDFCFAF8F6F4F2F0EEECEAE9B7
:102E2000E7E5E3E1E0DEDCDAD9D7D5D4D2D0CFCD07
:102E3000CBCAC8C7C5C3C2C0BFBDBCBAB9B7B6B498
:102E4000B3B2B0AFADACAAA9A8A6A5A4A2A1A09EFA
:102E50009D9C9A99989795949392908F8E8D8B8A3A
:102E60008988878684838281807F7E7D7B7A79785A
:102E700077767574737271706F6E6D6C6B6A69685A
:102E800067666564636261605F5E5D5C5B5A59584A
:102E9000585756555453525150504F4E4D4C4B4A23
:102EA0004A4948474646454443424241403F3E3EE8
:102EB0003D3C3B3B3A39383837363535343332329E
:102EC0003130302F2E2E2D2C2B2B2A292928272745
:102ED00026252524232322212120201F1E1E1D1CE0
:102EE0001C1B1B1A1919181817161615151413136D
:102EF00012121111100F0F0E0E0D0D0C0C0B0A0AF1
:102F00000909080807070606050504040303020269
:102F100001000020746F6F206C6F6E6720657874FD
:102F2000727573696F6E2070726576656E74656414
:102F30000A0020636F6C6420657874727573696F22
:102F40006E2070726576656E7465640A0024F4D430
:102F50003050C38E20C2A24017828B7011127A911A
:102F60000D816CD90AA861E108C758660761514311
:102F7000061E4B5D05C145A7041A411104093D9881
:102F800003713931034036DB0265339102D430548A
:102F900002802E1D02632CEE01752AC501B028A007
:102FA00001102781018F2564012B244B01E022347D
:102FB00001AC211F018D200D01801FFC00841EED3E
:102FC00000971DDF00B81CD200E61BC600201BBC0A
:102FD00000641AB200B219A8000A19A0006A189970
:102FE00000D117910040178B00B516840031167E72
:102FF00000B31579003A157300C7146F0058146AAE
:1030000000EE1366008813630025135E00C7125B91
:10301000006C12570015125400C111510070114F6D
:103020000021114B00D61049008D10470046104476
:103030000002104200C00F4000800F3E00420F3CD3
:1030400000060F3B00CB0E3800930E37005C0E35A8
:1030500000270E3400F30D3200C10D3100900D3009
:1030600000600D2E00320D2D00050D2C00D90C2B0B
:1030700000AE0C2900850C29005C0C2700350C27BC
:10308000000E0C2600E80B2400C40B2400A00B2328
:10309000007D0B23005A0B2100390B2100180B2057
:1030A00000F80A1F00D90A1E00BB0A1E009D0A1D57
:1030B00000800A1D00630A1C00470A1B002C0A1B23
:1030C00000110A1A00F7091A00DD091900C40919CC
:1030D00000AB091900920917007B09180063091752
:1030E000004C09160036091600200916000A0915B9
:1030F00000F5081500E0081400CC081400B8081406
:1031000000A4081400900813007D0812006B081337
:103110000058081200460812003408110023081154
:10312000001208110001081100F0071000E007105C
:1031300000D0071000C0071000B0070F00A1071053
:103140000091070E0083070F0074070F0065070E3C
:103150000057070E0049070E003B070D002E070E13
:103160000020070D0013070D0006070D00F9060CDF
:1031700000ED060D00E0060C00D4060C00C8060C9D
:1031800000BC060C00B0060C00A4060B0099060C4F
:10319000008D060B0082060B0077060B006C060BF9
:1031A0000061060A0057060B004C060A0042060A98
:1031B0000038060A002E060A0024060A001A060A2B
:1031C000001006090007060A00FD050900F40509BC
:1031D00000EB050900E2050900D9050900D0050941
:1031E00000C7050900BE050900B5050800AD0508C2
:1031F00000A50509009C050800940508008C050839
:1032000000840508007C050800740508006C0507AB
:1032100000650508005D050700560508004E050716
:10322000004705070040050800380507003105077D
:10323000002A050700230507001C050600160507E0
:10324000000F0507000805060002050700FB04063D
:1032500000F5040700EE040600E8040600E2040797
:1032600000DB040600D5040600CF040600C90406EE
:1032700000C3040600BD040600B7040600B104053F
:1032800000AC040600A6040600A00405009B04068A
:103290000095040500900406008A040500850405D5
:1032A00000800406007A040500750405007004051A
:1032B000006B04050066040500610405005C04055C
:1032C0000057040500520405004D0405004804059C
:1032D00000430405003E0404003A040500350405DB
:1032E00000300404002C0405002704040023040516
:1032F000001E0404001A040400160405001104044E
:10330000000D040400090405000404040000040482
:1033100000FC030400F8030400F4030400F00304B9
:1033200000EC030400E8030400E4030400E00304E9
:1033300000DC030400D8030400D4030400D0030419
:1033400000CC030400C8030300C503030024F404F5
:10335000D9201BC40C5C0E9804C4095F0265077178
:1033600001F405F900FB04B30048048700C10369B8
:10337000005803550003034500BE023A00840231A1
:103380000053022A002902250004022000E4011C47
:1033900000C8011900AF011700980114008401133F
:1033A00000710110006101100051010E0043010D78
:1033B0000036010B002B010B0020010B0015010949
:1033C000000C01090003010800FB000800F30008DD
:1033D00000EB000700E4000600DE000600D800064F
:1033E00000D2000600CC000500C7000500C20005A1
:1033F00000BD000400B9000400B5000400B10004E1
:1034000000AD000400A9000400A5000300A2000311
:10341000009F0004009B0003009800030095000239
:103420000093000300900003008D0002008B000356
:103430000088000200860002008400030081000270
:10344000007F0002007D0002007B00020079000284
:103450000077000100760002007400020072000193
:1034600000710002006F0002006D0001006C00029C
:10347000006A0001006900020067000100660001A7
:1034800000650001006400020062000100610001AB
:1034900000600001005F0002005D0001005C0001AF
:1034A000005B0001005A00010059000100580001B2
:1034B00000570001005600010055000100540001B2
:1034C00000530000005300010052000100510001B0
:1034D00000500001004F0001004E0000004E0001AE
:1034E000004D0001004C0001004B0000004B0001AA
:1034F000004A0001004900010048000000480001A6
:1035000000470001004600000046000100450000A1
:103510000045000100440001004300000043000199
:103520000042000000420001004100000041000193
:1035300000400001003F0000003F0001003E00008D
:10354000003E0001003D0000003D0001003C000085
:10355000003C0000003C0001003B0000003B00017B
:10356000003A0000003A0001003900000039000173
:10357000003800000038000000380001003700006B
:103580000037000100360000003600000036000160
:103590000035000000350000003500010034000057
:1035A000003400000034000100330000003300004C
:1035B0000033000100320000003200000032000140
:1035C0000031000000310000003100010030000037
:1035D0000030000000300001002F0000002F00002C
:1035E000002F0000002F0001002E0000002E000020
:1035F000002E0001002D0000002D0000002D000015
:10360000002D0001002C0000002C0000002C000008
:10361000002C0001002B0000002B0000002B0000FC
:10362000002B0001002A0000002A0000002A0000F0
:10363000002A0001002900000029000000290000E4
:1036400000290000002900010028000000280000D7
:1036500000280000002800000028000100270000CA
:1036600000270000002700000027000000270001BD
:1036700000260000002600000026000000260000B2
:1036800000260001002500000025000000250000A4
:103690000025000000250000002500010024000096
:1036A0000024000000240000002400000024000189
:1036B000002300000023000000230000002300007E
:1036C000002300000023000000230001002200006E
:1036D0000022000000220000002200000022000062
:1036E0000022000100210000002100000021000054
:1036F0000021000000210000002100000021000145
:103700000020000000200000002000000020000039
:103710000020000000200000002000000020000128
:10372000001F0000001F0000001F0000001F00001D
:10373000001F0000001F0000001F0001001E00000D
:10374000001E0000001E0000001E000000232C00D0
:1037500000B8220000561800003A0F0000B8080018
:1037600000B1040000710200003E010000000045AD
:10377000320042656400453100626564002C2073AC
:10378000797374656D2073746F707065642120485F
:1037900065617465725F49443A20004865617469E7
:1037A0006E67204661696C65640048656174696E86
:1037B00067206661696C6564001000C902E0002C36
:1037C00001000122013001180170010E01B0010455
:1037D00001F001FA005002F000F002E6009003DC74
:1037E000004004D2004005C8004006BE000008B4F6
:1037F00000B009AA00D00BA000600E960060118CEA
:10380000000015820020197800C01D6E00A02264FF
:1038100000B0275A00902C500000314600E0343CA4
:103820000010383200903A2800603C1E00A03D1481
:1038300000803E0A00203F0000544845524D414C54
:103840002052554E4157415900546865726D616C64
:103850002052756E61776179004572723A204D4150
:103860005854454D50004D415854454D50207472A8
:1038700069676765726564004572723A204D494E0A
:1038800054454D50004D494E54454D502074726979
:10389000676765726564000A0A0020205A5F4D4917
:1038A0004E5F50524F42453A0020205A5F4D4158DA
:1038B0003A0020205A5F4D494E3A002020595F4D72
:1038C000494E3A002020585F4D494E3A004D383459
:1038D00020582059205A204500202F002040002049
:1038E00042403A0020403A0020573A0020573A0020
:1038F000496E76616C69642065787472756465726E
:103900000A00416374697665204578747275646550
:10391000723A20007C3C3E5E2B3D3F2F5B5D3B2C92
:103920002A225C0043616E6E6F74206F70656E209A
:10393000737562646972200053442063617264206D
:103940006F6B0A006F70656E526F6F7420666169ED
:103950006C65640A00766F6C756D652E696E6974AE
:10396000206661696C65640A00534420696E69745D
:10397000206661696C0A004D3234004D32332025D7
:10398000730046696C652073656C65637465640AD1
:10399000002053697A653A200046696C65206F7093
:1039A000656E65643A2000454E4420535542524F9F
:1039B0005554494E450A002220706F730022207032
:1039C0006172656E743A2200535542524F55544904
:1039D0004E452043414C4C207461726765743A2215
:1039E00000747279696E6720746F2063616C6C205B
:1039F0007375622D67636F64652066696C657320FB
:103A00007769746820746F6F206D616E79206C65C2
:103A100076656C732E204D4158206C6576656C2060
:103A200069733A310A0057726974696E6720746F5E
:103A30002066696C653A20002E0A006F70656E2062
:103A40006661696C65642C2046696C653A20006685
:103A50007265736800646F696E67002066696C65E3
:103A60003A20004E6F77200000002100240027003C
:103A70002A002D003000330001010000040107017D
:103A80000A0100002200250028002B002E00310032
:103A9000340002010000050108010B0100002000B4
:103AA0002300260029002C002F0032000001000016
:103AB00003010601090105050505070508080808B1
:103AC000020202020A0A08080404040401010101B6
:103AD00001010101030303030303030304070707B1
:103AE0000C0C0C0C0C0C0C0C020202020606060656
:103AF000060606060B0B0B0B0B0B0B0B0102102023
:103B00002008081020401020408002010201080413
:103B100002010102040810204080804020100804A7
:103B20000201800402018040201008040201080400
:103B30000201010204081020408001020408102044
:103B4000408000000A0B02090C0D0E080703040157
:103B50000000000000000000000000000000000065
:103B60000000000000000000000000000000121132
:103B70001000000000000000000000000000000035
:103B80000000000000000000687474703A2F2F6D70
:103B900061726C696E66772E6F726700322E302EFE
:103BA000342E340001FFFFFFFFFFFFFFFFFFFFFF89
:103BB000FFFF0FFFFFFFFFFFFFFFFFFFFFFFFFFF05
:103BC0001E0000000000000000000007FFFF38009A
:103BD00000000000000000000003FFFF7000000074
:103BE0000000000000000001FFFF60000000000076
:103BF000000000000000FFFF600000000000000067
:103C0000000000007FFFC0000000000000000078FE
:103C100000003FFFC00FC0FC00000000007818004B
:103C20001FFFC03FE1FF0000000000783C000FFFD5
:103C3000C07FF3FF8000000000783C0007FFC0FF5A
:103C4000FFFFC000000000783C0003FFC1F87F8741
:103C5000E00000000078000001FFC1F03F03E00039
:103C600000000078000000FFC1E01E01E01F00031B
:103C7000E0783C03F07FC1E01E01E07FC00FF878E0
:103C80003C07FC3FC1E01E01E1FFE01FFC783C0F58
:103C9000FE1FC1E01E01E3FFF03FFE783C1FFE0F58
:103CA000C1E01E01E3F3F83F3E783C3F3F07C1E02F
:103CB0001E01E7E0FC7C1F783C3E1F07C1E01E01AF
:103CC000E7C07C7C0F783C3C0F03C1E01E01E7801D
:103CD0007C780F783C3C0F03C1E01E01E7803C7804
:103CE00000783C3C0F03C1E01E01E7803C7800787F
:103CF0003C3C0F03C1E01E01E7803C7800783C3C6F
:103D00000F03C1E01E01E7C03C7800783C3C0F0384
:103D1000C1E01E01E3E03C78007C3C3C0F03C1E0C5
:103D20001E01E3FF3FF8007FBC3C0F03C1E01E0112
:103D3000E1FF3FF8003FBFFC0F03C1E01E01E0FFC1
:103D40003FF8001FBFFC0F03C1E01E01E07F3FF8FA
:103D5000000FBFFC0F036000000000000000000027
:103D600000000007600000000000000000000000EC
:103D70000006700000000000000000000000000EBF
:103D8000380000000000000000000000001C1E00C1
:103D90000000000000000000000000780FFFFFFF9F
:103DA000FFFFFFFFFFFFFFFFFFF001FFFFFFFFFF30
:103DB000FFFFFFFFFFFFFF802020506C616E6E65EC
:103DC0007242756666657242797465733A200020A6
:103DD00046726565204D656D6F72793A2000436FBC
:103DE0006D70696C65643A204D6172202037203215
:103DF0003032300A00204C61737420557064617455
:103E000065643A20323032302D30322D3237207C0A
:103E100020417574686F723A2053696C76657243FD
:103E2000797265780A00322E302E342E340A004D15
:103E300061726C696E0020536F66747761726520E1
:103E400052657365740A00205761746368646F6714
:103E50002052657365740A002042726F776E206F7E
:103E600075742052657365740A0020457874657214
:103E70006E616C2052657365740A00506F776572CD
:103E800055700A0073746172740A006175746F254D
:103E9000632E6700473238585900446F6E652070B2
:103EA00072696E74696E672066696C650A004D33CD
:103EB00031004D3051315331383030006572726FFE
:103EC000722077726974696E6720746F2066696CFE
:103ED000650A00446F6E6520736176696E672066BF
:103EE000696C652E0A004D323900456E6473746F3B
:103EF000707300255320256320256320256320252A
:103F0000630020503A00205A3A0020593A002058C5
:103F10003A00656E6473746F7073206869743A2038
:103F200000434F4D4D554E49434154494F4E004477
:103F3000525952554E004552524F525300494E4627
:103F40004F004543484F005072696E7420506175B0
:103F5000736564005072696E742066726F6D204DD7
:103F60006564696100454550524F4D204F4B0A0032
:103F70004D65736820706F696E742063616E6E6F3B
:103F800074206265207265736F6C7665640A004DFB
:103F900034323120696E636F7272656374207061B0
:103FA00072616D657465722075736167650A00647E
:103FB000697300656E0043290A0061626C656420C4
:103FC000286D696E2074656D702000436F6C6420ED
:103FD0006578747275646573206172652000496E3E
:103FE00076616C69642065787472756465720A0024
:103FF00020643A0020693A0020703A0020653A00B7
:1040000020466C6F773A2000486F74656E64206FAD
:104010006666736574733A004F4646004F4E002043
:10402000580020204D61783A2000200020204D6962
:104030006E3A2000536F667420656E6473746F70FF
:10404000733A20003F4A206F7574206F66207261BA
:104050006E67652028302E303120746F20302E336B
:10406000290A00205400205200416363656C657288
:104070006174696F6E3A20500046656564726174C0
:104080006500416363656C65726174696F6E004DB4
:1040900031343520533C696E6465783E206F757409
:1040A000206F662072616E67652028302D31290AE5
:1040B000002F2F20004348414D4245525F54454D4B
:1040C0005045524154555245004D4F54494F4E5F53
:1040D0004D4F44455300544845524D414C5F50525A
:1040E0004F54454354494F4E004155544F5245504B
:1040F0004F52545F53445F535441545553005052F0
:104100004F4D50545F535550504F525400454D45FC
:104110005247454E43595F50415253455200434127
:1041200053455F4C494748545F4252494748544EB3
:1041300045535300544F47474C455F4C49474854FB
:104140005300534F4654574152455F504F574552C5
:10415000004255494C445F50455243454E54004C33
:104160004556454C494E475F44415441005A5F50C3
:10417000524F4245004155544F4C4556454C005016
:1041800052494E545F4A4F420050524F4752455396
:1041900053004155544F5245504F52545F54454D72
:1041A0005000564F4C554D455452494300454550DB
:1041B000524F4D0042494E4152595F46494C455F6E
:1041C0005452414E534645520053455249414C5F6B
:1041D000584F4E5F584F4646004649524D57415240
:1041E000455F4E414D453A4D61726C696E20322EED
:1041F000302E342E342028476974487562292053A4
:104200004F555243455F434F44455F55524C3A68C2
:10421000747470733A2F2F6769746875622E636FB8
:104220006D2F4D61726C696E4669726D7761726552
:104230002F4D61726C696E2050524F544F434F4C5A
:104240005F56455253494F4E3A312E30204D41432F
:1042500048494E455F545950453A5A3852322045E4
:10426000585452554445525F434F554E543A3220AC
:10427000555549443A63656465326132662D34317F
:1042800061322D343734382D396231322D63353572
:104290006336326633363766660A005A3852322041
:1042A0004F46462E0042656420436F6F6C696E670F
:1042B0002E2E2E004265642048656174696E672E5B
:1042C0002E2E004D3131322053687574646F776E35
:1042D000006F666600423F3D3F363F2F3F213F441F
:1042E000454255473A006F6B00436F6F6C696E67CC
:1042F0002E2E2E0048656174696E672E2E2E0045A5
:1043000025632025530050726F74656374656420C3
:1043100050696E0A002569730025696D202569734F
:10432000002569682025696D202569730025696469
:10433000202569682025696D202569730025697924
:1043400020256964202569682025696D2025697309
:10435000005072696E742074696D653A20002E0AEF
:104360000044656C6574696F6E206661696C656494
:104370002C2046696C653A200046696C65206465AE
:104380006C657465643A00286E6F2066696C6529F7
:104390000043757272656E742066696C653A200020
:1043A0005344207072696E74696E67206279746517
:1043B00020004E6F74205344207072696E74696ED1
:1043C000670A00456E642066696C65206C697374C9
:1043D0000A00426567696E2066696C65206C6973C6
:1043E000740A004E6F204D6F76652E00436C696332
:1043F0006B20746F20526573756D652E2E2E004DE7
:1044000065736820706F696E742063616E6E6F747F
:10441000206265207265736F6C7665640A00205AAD
:104420003A200020593A200042656420583A200082
:10443000536C6565702E2E2E0047322F4733206255
:10444000616420706172616D65746572730A004801
:104450006F6D65202573257325732046697273740B
:104460000050726F62696E67204661696C65640A0C
:104470000050726F62696E67204661696C65640006
:10448000205A3A200020593A200042656420583AC8
:104490002000496E736572742066696C616D656E8B
:1044A0007420616E64207072657373206275747419
:1044B0006F6E0A00496E736572742066696C616D77
:1044C000656E7420616E642070726573732062750E
:1044D00074746F6E0A00220A00556E6B6E6F776EF1
:1044E00020636F6D6D616E643A2022005A3852323B
:1044F0002052656164792E005072696E74696E672E
:104500002E2E2E00204500205900204D39322058F3
:1045100000205A002E0A006F70656E206661696C7B
:1045200065642C2046696C653A200000A8009A005A
:1045300011241FBECFEFD1E2DEBFCDBF00E00CBF24
:1045400014E0A0E0B2E0ECE0F9EF02E00BBF02C043
:1045500007900D92AE31B107D9F728E1AEE1B4E092
:1045600001C01D92A732B207E1F712E2C7E9D2E219
:1045700000E006C021970109802FFE010F94E77B20
:10458000C639D10780E00807A9F70F9474650D9428
:10459000757C0C9400000C945E30CF92DF92EF9209
:1045A000FF9223EF34E045E35FE36091BF10709129
:1045B000C0108091C1109091C2100F94C4726B0111
:1045C0007C016091BC117091BD118091BE119091E0
:1045D000BF110F9463729B01AC01C701B6010F9428
:1045E000C47229E732E84AE550E40F94C4720F948C
:1045F000537B6093BB107093BC108093BD1090935D
:10460000BE10FF90EF90DF90CF9008952CEA35EC2C
:1046100047E25EE36091D9057091DA058091DB0590
:104620009091DC050F94C379609324117093251148
:10463000809326119093271108952CEA35EC47E2D8
:104640005EE36091DD057091DE058091DF0590915C
:10465000E0050F94C4726093201170932111809330
:1046600022119093231108952CEA35EC47E25EE382
:104670006091D9057091DA058091DB059091DC0598
:104680000F94C37960930D1170930E1180930F11E5
:104690009093101108952CEA35EC47E25EE36091A7
:1046A000DD057091DE058091DF059091E0050F94A6
:1046B000C4726093091170930A1180930B11909347
:1046C0000C110895FC0184910895FC0180810895E6
:1046D000CF93DF93EC01CB01BA010F9465722AE00E
:1046E00037ED43E25DE30F94C37920E030E0A901A8
:1046F0000F94E7780F94307A688379838A839B8359
:10470000DF91CF910895CF93DF93EC01CB01BA01F4
:104710000F94657220E030E048EC52E40F94C379C6
:1047200020E030E0A9010F94E778688379838A83D9
:104730009B83DF91CF910895CF93DF93EC01CB0161
:10474000BA010F94657220E030E048EC52E40F9417
:10475000C37920E030E0A9010F94E778688379837A
:104760008A839B83DF91CF910895CF93DF93EC01F0
:10477000CB01BA010F94657220E030E040E251E4D1
:104780000F94C37920E030E0A9010F94E7786883A3
:1047900079838A839B83DF91CF910895CF93DF93B1
:1047A000EC01CB01BA010F94657220E030E040E2E9
:1047B00051E40F94C37920E030E0A9010F94E77829
:1047C000688379838A839B83DF91CF910895CF9308
:1047D000DF93EC01CB01BA010F94657220E030E069
:1047E00040E251E40F94C37920E030E0A9010F9436
:1047F000E778688379838A839B83DF91CF910895DB
:10480000CF93DF93EC01CB01BA010F9465722AE0DC
:1048100037ED43E25DE30F94C37920E030E0A90176
:104820000F94E778688379838A839B83DF91CF91A4
:104830000895CF93DF93EC01CB01BA010F94657219
:1048400020E030E0A9010F94E778688379838A83B8
:104850009B83DF91CF910895CF93DF93EC01CB0140
:10486000BA010F94657220E030E0A9010F94E77857
:10487000688379838A839B83DF91CF910895CF9357
:10488000DF93EC01CB01BA010F94657220E030E0B8
:104890004AE754E40F94C37920E030E0A9010F9473
:1048A000E778688379838A839B83DF91CF9108952A
:1048B000CF93DF93EC01CB01BA010F94657220E036
:1048C00030E0A9010F94E7780F94307A6883DF9184
:1048D000CF910895CF93DF93EC01CB01BA010F94F0
:1048E000657220E030E0A9010F94E7780F942B7AED
:1048F00079836883DF91CF910895CF93DF93EC01A3
:10490000CB01BA010F94657229EC38EC48EC5EE3F8
:104910000F94C37920E030E040E05FE30F94E77844
:104920000F94307A6883DF91CF9108958F929F9290
:10493000AF92BF92CF92DF92EF92FF92CF936B0133
:104940007C0120E030E0A9010F945F7287FD99C0DF
:1049500067E177EB81E598E3A70196010F94E7788B
:104960006B017C0120E030E04AE754E40F94C4720C
:104970004B015C0120E030E0A901C701B6010F94B2
:104980005F7220E030E040EA50E487FF04C020E09E
:1049900030E040EA50ECC501B4010F94E77820E024
:1049A00030E040E251E40F94C3790F942B7A6B010D
:1049B0007C018BE2F7FE09C0F094E094D094C0949F
:1049C000C11CD11CE11CF11C8DE280935B10C7015E
:1049D000B60120E137E240E050E00F94AB788AE086
:1049E000882E912CA12CB12CCA01B901A5019401EA
:1049F0000F94AB78605D60935C10C701B60128EE40
:104A000033E040E050E00F94AB78CA01B901A50152
:104A100094010F94AB78605D60935D10C701B6019F
:104A200024E630E040E050E00F94AB78CA01B901D1
:104A3000A50194010F94AB78605D60935E108EE2E7
:104A400080935F10C701B601A50194010F94AB7864
:104A5000C62FCA01B901A50194010F94AB78605D1E
:104A600060936010C05DC09361108BE590E1CF91C1
:104A7000FF90EF90DF90CF90BF90AF909F908F907E
:104A8000089567E177EB81E598EB66CF0F94657247
:104A900020E030E048EC52E40F94C37920E030E0AD
:104AA000A9010F94E77842CF8F929F92AF92BF9265
:104AB000CF92DF92EF92FF92CF936B017C0120E0C7
:104AC00030E0A9010F945F7287FD99C067E177EB31
:104AD00081E598E3A70196010F94E7786B017C01CB
:104AE00020E030E048EC52E40F94C4724B015C01CA
:104AF00020E030E0A901C701B6010F945F7220E009
:104B000030E040EA50E487FF04C020E030E040EAB3
:104B100050ECC501B4010F94E77820E030E040E2AA
:104B200051E40F94C3790F942B7A6B017C018BE2D3
:104B3000F7FE09C0F094E094D094C094C11CD11C3D
:104B4000E11CF11C8DE280935B10C701B60120E1EE
:104B500037E240E050E00F94AB788AE0882E912C49
:104B6000A12CB12CCA01B901A50194010F94AB7815
:104B7000605D60935C10C701B60128EE33E040E051
:104B800050E00F94AB78CA01B901A50194010F94CC
:104B9000AB78605D60935D10C701B60124E630E03C
:104BA00040E050E00F94AB78CA01B901A50194012F
:104BB0000F94AB78605D60935E10C701B601A501EC
:104BC00094010F94AB78C62FCA01B901A5019401D5
:104BD0000F94AB78605D60935F108EE280936010FD
:104BE000C05DC09361108BE590E1CF91FF90EF9095
:104BF000DF90CF90BF90AF909F908F90089567E126
:104C000077EB81E598EB66CF0F94657220E030E09A
:104C100040E251E40F94C37920E030E0A9010F9401
:104C2000E77842CF8F929F92AF92BF92CF92DF925E
:104C3000EF92FF92CF936B017C0120E030E0A9015D
:104C40000F945F7287FDA4C067E177EB81E598E37D
:104C5000A70196010F94E7786B017C0120E030E01A
:104C6000A9010F945F7287FF98C0C701B6019058E1
:104C700020E030E048EC52E40F94C47220E030E0D1
:104C800040EA50E40F94E77820E030E040E251E45D
:104C90000F94C3790F942B7A6B017C0180E280938F
:104CA0005B1060E280E1C81687E2D806E104F104F7
:104CB0008CF0C701B60120E137E240E050E00F94EC
:104CC000AB78CA01B9012AE030E040E050E00F942F
:104CD000AB78605D60935C1060E288EEC81683E09C
:104CE000D806E104F1048CF0C701B60128EE33E0E8
:104CF00040E050E00F94AB78CA01B9012AE030E0FF
:104D000040E050E00F94AB78605D60935D1060E22E
:104D100084E6C816D104E104F1048CF0C701B601A1
:104D200024E630E040E050E00F94AB78CA01B901CE
:104D30002AE030E040E050E00F94AB78605D609393
:104D40005E108AE0882E912CA12CB12CC701B601EF
:104D5000A50194010F94AB78C62FCA01B901A50132
:104D600094010F94AB78605D60935F108EE2809346
:104D70006010C05DC09361108BE590E1CF91FF9012
:104D8000EF90DF90CF90BF90AF909F908F9008955D
:104D900067E177EB81E598EB5BCF20E030E048EC12
:104DA00052E4C701B60168CF0F94657220E030E08D
:104DB00040E251E40F94C37920E030E0A9010F9460
:104DC000E77830CF11989091020187FD909591700E
:104DD00090930001119A000011989091020186FDB4
:104DE0009095917090930001119A00001198909104
:104DF000020185FD9095917090930001119A000039
:104E000011989091020184FD90959170909300010A
:104E1000119A000011989091020183FD9095917074
:104E200090930001119A000011989091020182FD67
:104E30009095917090930001119A000011989091B3
:104E4000020181FD9095917090930001119A0000EC
:104E5000119880910201817080930001119A0000E5
:104E60000895089590E080E00895CF93DF93FB01CB
:104E7000D90190819130E9F09430A8F0945090835A
:104E80002D913C911197B9016F5F7F4F11967C93E3
:104E90006E93420F531FEA0188838D919C918F3549
:104EA000910564F406C08C3539F49C5F908394308E
:104EB00039F7DF91CF9108958B3311F781E080832B
:104EC000F8CF9091E40DE92FF0E0E554FA4E80839D
:104ED0009F5F943040F49093E40D8091680F8F5F52
:104EE0008093680F08951092E40DF7CF282F9091CA
:104EF0004A11833021F495FD0FC094FD0FC0892F16
:104F000090E0B0E0A0E004C0B695A795979587958E
:104F10002A95D2F78170089581E0089580E0089580
:104F2000082E000C990BFC01EA54F54CE491EE2399
:104F300091F0F0E0EE0FFF1FE456F54CA591B4910F
:104F40002C918450954CFC018491282381E090E0C1
:104F500021F480E0089580E090E00895082E000C90
:104F6000990BFC01EA54F54CE491F0E0EE0FFF1FC1
:104F7000E859F54CA591B4912C918450954CFC01C5
:104F80008491822391E009F490E0892F0895EF92B3
:104F9000FF920F931F93CF93DF9324E0629FE00172
:104FA00011248C010C0F1D1FCE0186569D4F7C01D4
:104FB000F80124A935A946A957A9FC01608171818E
:104FC000828193810F94E778F701608371838283F4
:104FD0009383CB52DD4F88819981AA81BB81F801EF
:104FE00080839183A283B38314AA15AA16AA17AA51
:104FF000DF91CF911F910F91FF90EF900895CF9384
:10500000DF93C3EAD0E1288139814A815B816C85D5
:105010007D858E859F850F94E6786C877D878E874A
:105020009F872C813D814E815F81688979898A893A
:105030009B890F94E678688B798B8A8B9B8B28856C
:1050400039854A855B856C897D898E899F890F9416
:10505000E6786C8B7D8B8E8B9F8B188619861A86D3
:105060001B861C821D821E821F82188219821A8250
:105070001B82DF91CF910895CF92DF92EF92FF9242
:10508000CF93DF93EC016A017B0122ED30E040EA2F
:1050900050ECCB01B6010F940D7B87FD23C023E0BC
:1050A00030E046E953E4C701B6010F945F72181669
:1050B000CCF0C880D980EA80FB802AE130E04CE067
:1050C00052ECC701B6010F940D7B87FD0BC0C1E008
:1050D00023E030E046E953E4C701B6010F945F7264
:1050E00018160CF4C0E08C2FDF91CF91FF90EF9059
:1050F000DF90CF9008952F923F924F925F926F92E0
:105100007F928F929F92AF92BF92CF92DF92EF9257
:10511000FF920F931F93CF93DF93CDB7DEB72E97F8
:105120000FB6F894DEBF0FBECDBFF82EE62E042FCB
:10513000122F282F30E03A872987862F90E09C870E
:105140008B87220F331FA985BA852A0F3B1F3E8705
:105150002D87FC01E20FF31FEE0FFF1FEE0FFF1F65
:10516000EA58FF4E60817181828193819B01AC017D
:105170000F94957B882309F440C1802F8F0D612FF8
:105180006E0D282F30E0F901EE0FFF1FE20FF31F25
:10519000AB85BC85AE0FBF1FAA0FBB1FAA0FBB1FDD
:1051A000AA58BF4EAC901196BC9011971296CC9015
:1051B00012971396DC90080F802F90E0AC01440FFB
:1051C000551F480F591FAB85BC85A40FB51FAA0FEB
:1051D000BB1FAA0FBB1FAA58BF4EEC901196FC90A4
:1051E000119712960C91129713969C90862F90E02F
:1051F000AD85BE85A80FB91FAA0FBB1FAA0FBB1F85
:10520000AA58BF4E8C9011967C90119712966C9074
:10521000129713965C90610F70E02D853E85260FE6
:10522000371F220F331F220F331F2A583F4E3E874E
:105230002D87D9014C9011963C90119712961C9194
:10524000129713962C90E80FF91FEE0FFF1FEE0F29
:10525000FF1FEA58FF4EB081B98321812A83328132
:105260003B8383818C83FA01E60FF71FEE0FFF1F4C
:10527000EE0FFF1FEA58FF4E90819D83A181AE8300
:10528000B281BF83238128879701402F592DB70111
:10529000802F992D0F94957B882321F0E12CF12C00
:1052A00000E0912C9501A601B501C6010F94957BF4
:1052B000882319F05701C02ED92C242D332D412FCE
:1052C000522D642D732D812F922D0F94957B882361
:1052D00021F0412C312C10E0212C282D372D462D8A
:1052E000552D682D772D862D952D0F94957B882330
:1052F00021F0842C732C612E522C2D813E814F8104
:1053000058856D817E818F8198850F94957B882348
:1053100021F01D821E821F82188629813A814B81CD
:105320005C8169817A818B819C810F94957B882334
:1053300041F03D8139838E818A839F819B83A8853B
:10534000AC83E985FA85EE0FFF1F29853A85E20FC8
:10535000F31F8B859C85E80FF91FEE0FFF1FEE0FE3
:10536000FF1FEA58FF4EFA87E9879501A601B501AC
:10537000C6010F94E7789701402F592D0F94E678D6
:105380006B017C01282D372D462D552D682D772D4D
:10539000862D952D0F94E778242D332D412F522DF6
:1053A0000F94E6789B01AC01C701B6010F94E77832
:1053B0006B017C0129813A814B815C8169817A8111
:1053C0008B819C810F94E7782D813E814F81588598
:1053D0000F94E6789B01AC01C701B6010F94E77802
:1053E00020E030E040E450E40F94C379A985BA8509
:1053F0006D937D938D939C9313972E960FB6F8948F
:10540000DEBF0FBECDBFDF91CF911F910F91FF90F7
:10541000EF90DF90CF90BF90AF909F908F907F9054
:105420006F905F904F903F902F9008958EEF0E9465
:1054300047B30C94B4B380E090E0A0E8B0E480936C
:10544000A2029093A302A093A402B093A50281E8C4
:1054500093E00E94E9B18091EE058130C9F1D4F466
:10546000882309F189EE92E00E94E9B11092A2022C
:105470001092A3021092A4021092A50281E893E078
:105480000E94E9B18091EE058F5F84309CF5809396
:10549000EE050895823049F1833021F780E090E0F5
:1054A000A0EFB1E419C080E090E0A0EFB1E48093F8
:1054B0009A0290939B02A0939C02B0939D028093CA
:1054C0009E0290939F02A093A002B093A102CACF24
:1054D00080E090E0A7E8B3E480939A0290939B0267
:1054E000A0939C02B0939D02BDCF80E090E0A7E81E
:1054F000B3E4E5CF1092EE0508950F94657229ECA0
:1055000038EC48EC5EE30F94C37920E030E040E0F3
:105510005FE30F94E7780F94307A862F0C9453C78B
:105520000F94657220E030E0A9010F94E7780F94A2
:105530002B7ACB010C94B8BC0D94D3370D94D33790
:105540000D94D3370D94D3370D9455370D945537AB
:105550000D9455370D9455370F94657220E030E067
:10556000A9010F94E7780F94307A862F0C94E2C546
:10557000CF93DF9300D01F92CDB7DEB70F94307A70
:105580000F94637269837A838B839C83CE01019627
:105590000E9404BA0F900F900F900F90DF91CF915F
:1055A00008950F9465722AE037ED43E25DE30F94AE
:1055B000C37920E030E0A9010F94E778D9CFCF92EA
:1055C000DF92EF92FF92CF93DF9300D01F92CDB77F
:1055D000DEB76B017C0120E030E0A9010F945F721F
:1055E00087FD1BC067E177EB81E598E3A701960192
:1055F0000F94E77869837A838B839C83CE0101962D
:105600000E9404BA0F900F900F900F90DF91CF91EE
:10561000FF90EF90DF90CF90089567E177EB81E501
:1056200098EBE4CF0F9465722AE037ED43E25DE337
:105630000F94C37920E030E0A9010F94E778BFCF41
:105640000F94657220E030E0A9010F94E778B7CF9E
:10565000AF92BF92CF92DF92EF92FF920F931F9380
:10566000CF93DF936B01E9014A3009F4B6C04531AD
:1056700009F06BC0DB011296ED91FC91F280C681BE
:10568000D78180910201809582708093000188E229
:105690008A950000E9F7BF2CB29420EFB22230E1E6
:1056A000A32EAF0C48E2E42E88EF8CDB8E2D8A957A
:1056B0000000E9F7BFE1BF1508F47EC08F2D8077A9
:1056C000806880DB8B2D7EDB8E2D8A950000E9F7CC
:1056D00080E878DB80E076DB8E2D8A950000E9F7A4
:1056E0008AEF70DB8E2D8A950000E9F78E01005F4E
:1056F0001F4F8881807F66DB89918295807F62DB86
:10570000C017D107B1F78E2D8A950000E9F7F39401
:10571000E0E1BE0EFA10C8CF809102018270809342
:105720000001D6011296CD91DC91CE010E940AF9BA
:105730008111E1C1DF91CF911F910F91FF90EF9007
:10574000DF90CF90BF90AF900895FB01028113814D
:10575000423309F48BC108F48FC1463409F47CC18B
:10576000473409F47FC14B3329F589812B81D80156
:1057700012966C91129713964C91213009F4D2C174
:10578000233009F09CC138EF380F582F91E04317B0
:1057900008F490E041E0531708F040E031E056177C
:1057A00008F430E0592F542B352309F0B0C194236D
:1057B00009F0ADC181E0BECF80EE8F0D8068807FA3
:1057C00001DB8F2D8295807FFDDA8E2D8A9500007A
:1057D000E9F780E8F7DA80E87ECF80910101826006
:1057E0008093010180910201827080930001809179
:1057F0000101816080930101809102018170809399
:105800000001099A119A809102018095827080931B
:10581000000188E28A950000E9F788E790E0CEE988
:10582000DFE0FE013197F1F70197D9F788EFCADA87
:1058300018E2812F8A950000E9F780E2C3DA80E060
:10584000C1DA812F8A950000E9F780E0BBDA80E8B1
:10585000B9DA812F8A950000E9F780E0B3DA80E1B8
:10586000B1DA812F8A950000E9F7CE010197F1F7AF
:10587000CE010197F1F7CE010197F1F7CE01019723
:10588000F1F7CE010197F1F7CE010197F1F7CE01C3
:105890000197F1F7CE010197F1F7CE010197F1F7EA
:1058A000CE010197F1F7CE010197F1F7CE010197F3
:1058B000F1F7CE010197F1F7CE010197F1F72197AA
:1058C000F1F780E27FDA80E47DDA812F8A950000AB
:1058D000E9F780E277DA80E675DA1A950000E9F7F1
:1058E00010E0D0E0C8E28D2F807780686BDA812FDE
:1058F00069DA8C2F8A950000E9F780E863DA80E0A6
:1059000061DA8C2F8A950000E9F78AEF5BDA8C2F39
:105910008A950000E9F790E2119880910201817068
:1059200080930001119A000011988091020181700A
:1059300080930001119A00001198809102018170FA
:1059400080930001119A00001198809102018170EA
:1059500080930001119A00001198809102018170DA
:1059600080930001119A00001198809102018170CA
:1059700080930001119A00001198809102018170BA
:1059800080930001119A00001198809102018170AA
:1059900080930001119A000011988091020181709A
:1059A00080930001119A000011988091020181708A
:1059B00080930001119A000011988091020181707A
:1059C00080930001119A000011988091020181706A
:1059D00080930001119A000011988091020181705A
:1059E00080930001119A000011988091020181704A
:1059F00080930001119A000011988091020181703A
:105A000080930001119A0000119880910201817029
:105A100080930001119A00008C2F8A950000E9F70D
:105A2000915009F079CF88EFCDD98C2F8A9500005D
:105A3000E9F7DF5F105FD03209F055CF80E0C2D9BF
:105A400080ECC0D9CA950000E9F78091020182700C
:105A50008093000181E06ECED80115968C918883E9
:105A600081E068CEF80181818883FACFB901C8014D
:105A70000E94F5F881E05ECE443171F0473109F0C3
:105A800099CE1882F80182818983858181508A8329
:105A900083818B8381E04ECED80115964C9115976A
:105AA00050E0440F551F70E060E016968D919C9178
:105AB0000F940D7CC8010E9420F981E03BCE48176D
:105AC00008F478CE861708F475CEFA80E12CD12C34
:105AD000243070F41DC0BE01C8010E94F5F8898110
