:100000000C9404240C9433F60C9408F60C94DDF54F
:100010000C94B2F50C9487F50C945CF50C9431F5C6
:100020000C9406F50C9426B60C9426B60C9426B6C1
:100030000C9435240C9435240C9435240C943524DC
:100040000C9435240D94EE1D0C9435240C94352419
:100050000C9435240C9435240D9468080C94BCF44D
:100060000C9435240C94339B0C94299B0C943524CC
:100070000C9435240C9435240C9435240C9435249C
:100080000C94C75B0C9435240C9435240C943524C3
:100090000C9435240C9435240C9435240C9435247C
:1000A0000C9435240C9435240C94995B0C943524D1
:1000B0000C9435240C9435240C9435240C946B5BEF
:1000C0000C9435240C9435240C9435240C9435244C
:1000D0000C9435240C9435240C9435240C9435243C
:1000E0000C943524084AD73B3BCE016E84BCBFFD3F
:1000F000C12F3D6C74319ABD56833DDA3D00C77FF8
:1001000011BED9E4BB4C3E916BAAAABE0000008090
:100110003F05A84CCDB2D44EB93836A9020C50B91F
:10012000918688083CA6AAAA2ABE000000803F004B
:100130000D94EF0B0D94EA0B0D9447600D94B30BE7
:100140000D94020C0D94D1670D94070C0D94D70BF0
:100150000D94BF0B0D94D20B0D94F30A0D94560A17
:100160004E414E494E495459494E46CDCCCC3D0A9C
:10017000D7233C17B7D13877CC2B329595E6241F7F
:10018000B14F0A000020410000C84200401C462038
:10019000BCBE4CCA1B0E5AAEC59D7400407A10F30B
:1001A0005A00A0724E18090010A5D4E80000E876A5
:1001B00048170000E40B54020000CA9A3B000000FC
:1001C000E1F505000080969800000040420F000015
:1001D00000A08601000000102700000000E80300D6
:1001E0000000006400000000000A000000000001A0
:1001F00000000000002C76D888DC674F0823DFC1A0
:10020000DFAE59E1B1B796E5E3E453C63AE651995A
:100210007696E8E6C28426EB898C9B62ED407C6F83
:10022000FCEFBC9C9F40F2BAA56FA5F490055A2A3A
:10023000F75C936B6CF9676DC11BFCE0E40D47FE46
:10024000F520E6B500D0ED902E030094357705003B
:1002500080841E080000204E0A000000C80C3333C2
:1002600033330F986E12831141EF8D2114893BE6D1
:100270005516CFFEE6DB18D1844B381BF77C1D905A
:100280001DA4BBE424203284725E228100C9F124C3
:10029000ECA1E53D275A5249425F5632305F44395E
:1002A0005F50494E005A5249425F5632305F4436E1
:1002B0005F50494E005A5F4D494E5F50524F424584
:1002C0005F50494E005A5F53544F505F50494E00A3
:1002D0005A5F535445505F50494E005A5F4D494E46
:1002E0005F50494E005A5F4D41585F50494E005A89
:1002F0005F454E41424C455F50494E005A5F44496C
:10030000525F50494E005A5F43535F50494E005967
:100310005F53544F505F50494E00595F53544550FE
:100320005F50494E00595F4D494E5F50494E00594C
:100330005F454E41424C455F50494E00595F44492C
:10034000525F50494E00595F43535F50494E005829
:100350005F53544F505F50494E00585F53544550BF
:100360005F50494E00585F4D494E5F50494E00580E
:100370005F454E41424C455F50494E00585F4449ED
:10038000525F50494E00585F43535F50494E0053EF
:10039000535F50494E00534552564F335F50494EBC
:1003A00000534552564F325F50494E005345525606
:1003B0004F315F50494E00534552564F305F5049C0
:1003C0004E00534453530053434B5F50494E005229
:1003D000414D50535F44395F50494E0052414D509A
:1003E000535F44385F50494E0052414D50535F4473
:1003F00031305F50494E004F5249475F45335F41AE
:1004000055544F5F46414E5F50494E004F52494749
:100410005F45325F4155544F5F46414E5F50494EF4
:10042000004F5249475F45315F4155544F5F464148
:100430004E5F50494E004F5249475F45305F41552E
:10044000544F5F46414E5F50494E004D4F53495FF8
:1004500050494E004D4F534645545F445F50494EFE
:10046000004D49534F5F50494E004D415836363785
:10047000355F53535F50494E004C45445F50494EE1
:10048000004C43445F50494E535F5253004C434429
:100490005F50494E535F454E41424C45004C4344EA
:1004A0005F50494E535F4437004C43445F50494EC0
:1004B000535F4436004C43445F50494E535F4435CC
:1004C000004C43445F50494E535F4434004845411B
:1004D0005445525F4245445F50494E00484541549F
:1004E00045525F315F50494E004845415445525F87
:1004F000305F50494E0046494C5F52554E4F55545F
:100500005F50494E0046414E5F50494E0045315FB5
:10051000535445505F50494E0045315F454E41426E
:100520004C455F50494E0045315F4449525F504948
:100530004E0045315F43535F50494E0045315F41A6
:1005400055544F5F46414E5F50494E0045305F5312
:100550005445505F50494E0045305F454E41424C36
:10056000455F50494E0045305F4449525F50494E07
:100570000045305F43535F50494E0045305F415561
:10058000544F5F46414E5F50494E00455F4D5558B0
:10059000325F50494E00455F4D5558315F50494ECE
:1005A00000455F4D5558305F50494E00424545501B
:1005B00045525F50494E004156525F53535F504978
:1005C0004E004156525F53434B5F50494E004156D7
:1005D000525F4D4F53495F50494E004156525F4D57
:1005E00049534F5F50494E005458443000525844CC
:1005F00030004572726F722077726974696E67207D
:10060000746F20454550524F4D210A00363726035E
:100610003C3D380E2E303E1213131A1C1824221E95
:1006200008440A06430706450809000153544F5081
:100630005045442E20005072696E746572207374A8
:100640006F707065642064756520746F20657272C8
:100650006F72732E20466978207468652065727207
:100660006F7220616E6420757365204D39393920B1
:10067000746F20726573746172742E202854656DD6
:100680007065726174757265206973207265736537
:10069000742E20536574206974206166746572201D
:1006A00072657374617274696E67290A004E6F20F7
:1006B000436865636B73756D2077697468206C6936
:1006C0006E65206E756D6265722C204C61737420AE
:1006D0004C696E653A20004E6F20436865636B730A
:1006E000756D2077697468206C696E65206E756D14
:1006F0006265722C204C617374204C696E653A20DF
:1007000000636865636B73756D206D69736D6174EB
:1007100063682C204C617374204C696E653A20002C
:100720004C696E65204E756D626572206973206E2E
:100730006F74204C617374204C696E65204E756D2A
:100740006265722B312C204C617374204C696E658C
:100750003A20004D313130005344207265616420ED
:100760006572726F720A002121204B494C4C206344
:10077000617573656420627920746F6F206D756395
:100780006820696E6163746976652074696D65209F
:100790002D2063757272656E7420636F6D6D616E6E
:1007A000643A2000506C656173652052657365740E
:1007B000005052494E5445522048414C5445440043
:1007C00025533A202553004B494C4C45442E2000DC
:1007D0005072696E7465722068616C7465642E2055
:1007E0006B696C6C28292063616C6C6564210A005C
:1007F00053544F505045442E20005072696E74651A
:10080000722073746F707065642064756520746FF6
:10081000206572726F72732E204669782074686545
:10082000206572726F7220616E6420757365204D51
:1008300039393920746F20726573746172742E2097
:100840002854656D706572617475726520697320D6
:1008500072657365742E2053657420697420616617
:100860007465722072657374617274696E67290AA7
:10087000006563686F3A004572726F723A004269B0
:100880006C696E656172204C6576656C696E672077
:10089000477269643A0A00486F74656E6420746F29
:1008A0006F20636F6C640A004732362043616E63C9
:1008B000656C6564004732362048656174696E670F
:1008C000204E6F7A7A6C6500473236204865617435
:1008D000696E67204265640057616974696E6720BC
:1008E000666F72206865617475702E0A00466978BB
:1008F0006564204C656E677468205072696D650090
:10090000446F6E65205072696D696E67004D616E4F
:1009100075616C207072696D696E672E2E2E004CA9
:10092000656176696E6720473236003F53706563B4
:10093000696669656420582C5920636F6F72646919
:100940006E617465206F7574206F6620626F756EBE
:1009500064732E0A003F2852296570656174207601
:10096000616C7565206E6F7420706C61757369625F
:100970006C653B206D757374206265206174206C1A
:100980006561737420312E0A003F53706563696698
:10099000696564206E6F7A7A6C652074656D706528
:1009A000726174757265206E6F7420706C617573FE
:1009B00069626C652E0A003F5370656369666965FC
:1009C000642066696C616D656E742073697A652058
:1009D0006E6F7420706C61757369626C652E0A00AD
:1009E0003F537065636966696564207072696D65FF
:1009F000206C656E677468206E6F7420706C617512
:100A00007369626C652E0A003F537065636966699D
:100A10006564206E6F7A7A6C652073697A65206EE2
:100A20006F7420706C61757369626C652E0A003F8B
:100A300052657472616374696F6E204D756C746970
:100A4000706C696572206D757374206265207370B7
:100A5000656369666965642E0A003F537065636962
:100A6000666965642052657472616374696F6E2093
:100A70004D756C7469706C696572206E6F7420704E
:100A80006C61757369626C652E0A003F5370656313
:100A90006966696564206C6179657220686569675B
:100AA0006874206E6F7420706C61757369626C6518
:100AB0002E0A0043292E0A003F5370656369666958
:100AC0006564206265642074656D7065726174751B
:100AD0007265206E6F7420706C61757369626C65ED
:100AE000202834302D0047323620737461727469C7
:100AF0006E672E2E2E0A004F46460A004661646538
:100B0000204865696768742000426564204C6576FA
:100B1000656C696E6720004661696C656420746F5E
:100B200020656E61626C6520426564204C65766567
:100B30006C696E670A00496E76616C6964206D6548
:100B400073682E0A0050726F62696E6720506F6979
:100B50006E740025532025692F2569002E0A002F69
:100B60000050726F62696E67206D65736820706FE8
:100B7000696E742000202844525952554E2900476E
:100B80003239204175746F20426564204C6576656A
:100B90006C696E67003F20284C2C522C462C422951
:100BA000206F7574206F6620626F756E64732E0AF5
:100BB000003F2856296572626F7365206C65766503
:100BC0006C20696D706C61757369626C652028308A
:100BD0002D34292E0A00426164205A2076616C75FA
:100BE000650A004E6F2062696C696E6561722067EC
:100BF0007269640A0020284E6F7420796574206D34
:100C000065617375726564290020204176657261A3
:100C10006765206D65617375726564206261636BE1
:100C20006C61736820286D6D293A00202042616351
:100C30006B6C6173682044697374616E636520280E
:100C40006D6D293A202020202020202000202846D9
:100C5000312E30203D2066756C6C2C2046302E30B5
:100C6000203D206E6F6E65290A002020436F72724E
:100C7000656374696F6E20416D6F756E742F466188
:100C800064652D6F75743A20202020204600616332
:100C9000746976653A0A00696E004261636B6C6143
:100CA000736820436F7272656374696F6E200044CD
:100CB0006576696174696F6E0025533A202573006B
:100CC0005374616E6461726420446576696174690D
:100CD0006F6E3A20002052616E67653A2000204D09
:100CE00061783A2000204D696E3A20004D65616EB2
:100CF0003A200046696E6973686564210A002072B3
:100D0000616E67653A2000206D61783A2000206DA1
:100D1000696E3A2000207369676D613A2000206D8A
:100D200065616E3A20003A207A3A2000206F6620F2
:100D300000476F696E6720746F3A20580043570A66
:100D400000206469723A0020616E676C653A005356
:100D500074617274207261646975733A004D34383D
:100D600020506F696E740025533A2025642F256446
:100D700000506F736974696F6E696E67207468657F
:100D80002070726F62652E2E2E0A003F4E756D62C6
:100D90006572206F66206C65677320696E206D6FC9
:100DA00076656D656E74206E6F7420706C617573FE
:100DB00069626C652028302D3135292E0A003F20CC
:100DC00028582C5929206F7574206F6620626F7522
:100DD0006E64732E0A003F53616D706C65207369F9
:100DE0007A65206E6F7420706C61757369626C65D2
:100DF0002028342D3530292E0A004D3438205A2D24
:100E000050726F6265205265706561746162696CD1
:100E100069747920546573740A003F2856296572F5
:100E2000626F7365206C6576656C20696D706C61AE
:100E3000757369626C652028302D34292E0A0050A4
:100E4000574D3A20202534640050574D3A20202534
:100E500034640050574D3A20202534640050574DDB
:100E60003A20202534640050574D3A202025346420
:100E70000050574D3A20202534640050574D3A20F9
:100E8000202534640050574D3A202025346400500A
:100E9000574D3A20202534640050574D3A202025E4
:100EA00034640050574D3A20202534640050574D8B
:100EB0003A20202534640050574D3A2020253464D0
:100EC0000050574D3A20202534640050574D3A20A9
:100ED000202534640050574D3A2020253464003AD0
:100EE000200020202020434F4D002020206E6F6ED8
:100EF0002D7374616E646172642050574D206D6F64
:100F0000646500202020636F6D7061726520696EDA
:100F10007465727275707420656E61626C656400D0
:100F20002020206F766572666C6F7720696E74651D
:100F3000727275707420656E61626C6564003A202F
:100F4000002020202054494D534B00423A200020DD
:100F50002020205443435200413A200020202020EA
:100F600054434352002020202043533A20002020A5
:100F7000202057474D3A200050574D3A2020253425
:100F8000640050574D3A2020253464004700480043
:100F9000000088008A008C00B300B40000009800B4
:100FA0009A009C00A800AA00AC0028012A012C018C
:100FB0002020202054494D455200440045006E0039
:100FC000800081006F00B000B100700090009100BF
:100FD0007100A000A10072002001210173002069AE
:100FE0007320616C736F207469656420746F207462
:100FF0006869732070696E0054494D455231430051
:101000000A202E002020002020506F72743A200009
:1010100020202000202020416E616C6F6720696EC7
:10102000203D2025356C64003C756E757365642F1A
:10103000756E6B6E6F776E3E0020284125326429F5
:101040002020002533642000257350494E3A2000AB
:101050004F7574707574203D2000496E7075742052
:10106000203D2000416E616C6F6720696E203D203D
:1010700025356C640070726F74656374656420005C
:1010800020284125326429202000253364200025B2
:101090007350494E3A2000ED050001E8050101DBDF
:1010A000053201CE053301C2053401B7053501AC67
:1010B000052501A105280196052A018B052C017B38
:1010C00005060171052A0166051C01580518014C29
:1010D000051A013C05060132052C012705220119DC
:1010E000051E010D05240105050901F6040401E9A9
:1010F000040A01DC040701CD040801C1041701B58D
:10110000041901A9041B019D041D018D0411018115
:1011100004100179040D016A044201610432015492
:101120000407014B04330136040601210406010CB7
:10113000040601F7030601E9030A01DC030801CFF5
:10114000030901C7033401C2033501B7030F01AC22
:10115000030601A1030501960304018F03350186EF
:101160000335017C0337016F032601650303015A30
:101170000336014F030301460331013C033D012FB8
:1011800003380125030E011A033C010F030E01066B
:10119000032801FC023001EF023E01E5021301DBEE
:1011A000021201D0022E01C5021201B5021301A5DF
:1011B00002060195020901446F6E652E0A00666100
:1011C0006C7365004641494C3A204E6F2074726939
:1011D000676765722064657465637465640A0046B8
:1011E00041494C3A204E6F697365206465746563AC
:1011F000746564202D20706C656173652072652DA7
:1012000072756E20746573740A002064657465637A
:101210007465642E0A003D20424C546F756368204B
:101220007072652056332E3120286F7220636F6DE7
:1012300070617469626C6529003D205A20536572A3
:10124000766F2050726F6265003D20424C546F757E
:1012500063682056332E310020282B2F2D20346D2B
:1012600073293A20003A2033306D73206F72206D5D
:101270006F72650A002E2050756C73652077696463
:101280007468002A2A20506C656173652074726945
:10129000676765722070726F62652077697468692C
:1012A0006E20333020736563202A2A0A00464149A4
:1012B0004C3A20424C544F55434820656E61626C55
:1012C0006564202D205365742075702074686973DF
:1012D00020646576696365206173206120536572BF
:1012E000766F2050726F6265207769746820494E6E
:1012F00056455254494E472073657420746F202719
:1013000074727565272E0A0020204445504C4F59B1
:1013100045442073746174653A204C4F5720286C03
:101320006F6769632030290020204445504C4F5995
:1013300045442073746174653A2048494748202821
:101340006C6F676963203129003D204D65636861DA
:101350006E6963616C205377697463682064657497
:1013600065637465640A005741524E494E473A20FE
:10137000494E56455254494E472073657474696E00
:10138000672070726F6261626C79206261636B7753
:10139000617264732E0A002E204465706C6F792090
:1013A000262073746F7720342074696D65730A008A
:1013B0003D20424C546F75636820436C61737369C0
:1013C0006320312E322C20312E332C20536D61724C
:1013D0007420312E302C20322E302C20322E322C04
:1013E00020332E302C20332E3120646574656374D5
:1013F00065642E0A002E20436865636B20666F7259
:1014000020424C544F5543480A002E205A5F4D4904
:101410004E5F50524F42455F454E4453544F505FCC
:10142000494E56455254494E473A20002E2050729C
:101430006F6265205A5F4D494E5F50524F42455F83
:1014400050494E3A20002C2073746F7720616E67EC
:101450006C653A202020002C206465706C6F792028
:10146000616E676C653A2000536572766F2070720A
:101470006F626520746573740A2E207573696E67D8
:1014800020696E6465783A2020005761746368694A
:101490006E672070696E730A0064697300656E0080
:1014A00061626C65640A00656E6473746F70206DB0
:1014B0006F6E69746F722000290A00204B00285358
:1014C0006C6F742000204B00205300416476616EE5
:1014D00063652054003F4C2076616C7565206F7504
:1014E00074206F662072616E67652028302D313060
:1014F000292E0A003F4B2076616C7565206F75744C
:10150000206F662072616E67652028302D3130298A
:101510002E0A003F542076616C7565206F7574202B
:101520006F662072616E67652E0A005761726E6980
:101530006E67203A20436C65616E20436972636C6C
:10154000652072657175697265732058590A004D7E
:101550003630303A20546F6F20436F6C6400486F10
:1015600074656E6420746F6F20636F6C640A005042
:101570007265737320627574746F6E20746F206867
:10158000656174206E6F7A7A6C650A0020496E7608
:10159000616C6964206578747275646572200044BA
:1015A0006966663A200046726F6D5374703A005354
:1015B0007465707065723A00556E4C6576656C3A6C
:1015C000004C6576656C65643A005261773A20207C
:1015D0002020000A4C6F676963616C3A00436F75A5
:1015E0006E7420453A004361703A00290A00207465
:1015F0006F20003F5A206F7574206F662072616EF5
:101600006765202800290A0020746F20003F5920B8
:101610006F7574206F662072616E676520282D00DB
:10162000290A0020746F20003F58206F7574206FC6
:10163000662072616E676520282D0050726F6265AA
:10164000204F6666736574205800220A00656E712B
:1016500075657565696E672022006F6B0052657352
:10166000656E643A200023646566696E65204445B2
:101670004641554C545F004B6420004B6920004BA1
:10168000702000504944204175746F74756E652058
:1016900066696E697368656421205075742074688A
:1016A00065206C617374204B702C204B6920616E37
:1016B00064204B6420636F6E7374616E7473206674
:1016C000726F6D2062656C6F7720696E746F204356
:1016D0006F6E66696775726174696F6E2E680A0055
:1016E000504944204175746F74756E652066616958
:1016F0006C6564212074696D656F75740A005049CA
:1017000044204175746F74756E65206661696C65FF
:1017100064212054656D7065726174757265207402
:101720006F6F20686967680A00204B643A200020C8
:101730004B693A2000204B703A20000A20436C612C
:101740007373696320504944200A00204B643A2097
:1017500000204B693A2000204B703A20000A204EAE
:101760006F206F76657273686F6F740A002054750E
:101770003A2000204B753A2000206D61783A200015
:10178000206D696E3A200020643A20002062696171
:10179000733A2000504944204175746F74756E652A
:1017A0002073746172740A00504944204175746F4B
:1017B00074756E65206661696C6564212054656D81
:1017C000706572617475726520746F6F20686967E7
:1017D000680A00504944204175746F74756E652025
:1017E0006661696C65642120426164206578747269
:1017F00075646572206E756D6265720A00A10000E5
:10180000006900A20000006300B00000000900C1F0
:101810000000004100C20000004100C30000004180
:1018200000C40000004100C50000004100C60000E7
:10183000004145C70000004300C80000004500C942
:101840000000004500CD0000004900D10000004E1E
:1018500000D50000004F00D60000004F00D7000068
:10186000007800DC0000005500DD0000005900E0B9
:101870000000006100E10000006100E20000006182
:1018800000E30000006100E40000006100E50000EA
:10189000006100E60000006165E70000006300E809
:1018A0000000006500E90000006500EA0000006536
:1018B00000EB0000006500EC0000006900ED000096
:1018C000006900EE0000006900EF0000006900F10F
:1018D0000000006E00F20000006F00F30000006FD7
:1018E00000F40000006F00F50000006F00F600003B
:1018F000006F00F80000006F00F90000007500FAAA
:101900000000007500FB0000007500FC0000007581
:1019100000FD0000007900FF0000007900040100D4
:1019200000410005010000610006010000430007BE
:1019300001000063000C01000043000D0100006382
:10194000000E01000044000F0100006400110100BE
:101950000064001901000065001F010000670030ED
:101960000100004900310100006900410100004C04
:1019700000420100006C00430100004E00440100E1
:10198000006E00480100006E005901000072005A0C
:1019900001000053005B01000073005F0100007351
:1019A0000060010000530061010000730065010048
:1019B0000074006F01000075007C0100007A007D5A
:1019C0000100005A007E0100007A009201000066CA
:1019D00000E30200007800222000002E001E2100FB
:1019E00000507822210000544D902100003C2D929F
:1019F0002100002D3EB02100000300BB21000004A7
:101A0000003C2200007E00482200007E3D60220053
:101A100000213D612200003D00642200003C3D6544
:101A20002200003E3DF12300000700A03000003DF1
:101A30000021F301000200C2F401000500A2000031
:101A400000EC00B0000000DF00E4000000E100F660
:101A5000000000EF00F7000000FD00FC000000F5B2
:101A600000E3020000EB0087030000A5008F0300E5
:101A700000F40098030000F2009E030000E300A3BE
:101A8000030000F600A9030000F400AC030000E02E
:101A900000AD030000E300B1030000E000B203006A
:101AA00000E200B5030000E300B8030000F200BC50
:101AB000030000E400BE030000E300C0030000F7E1
:101AC00000C1030000E600C3030000E50090210010
:101AD000007F00922100007E001A220000E8001E14
:101AE000220000F30088250000FF0002300000A162
:101AF000000C300000A2000D300000A3009B30005D
:101B000000DE009C300000DF00A03000003D00A19E
:101B1000300000A700A2300000B100A3300000A8F0
:101B200000A4300000B200A5300000A900A63000DB
:101B300000B300A7300000AA00A8300000B400A93C
:101B4000300000AB00AA300000B500AB300000B69A
:101B500000AC300000B6DEAD300000B700AE3000A3
:101B600000B7DEAF300000B800B0300000B8DEB122
:101B7000300000B900B2300000B9DEB3300000BA66
:101B800000B4300000BADEB5300000BB00B6300053
:101B900000BBDEB7300000BC00B8300000BCDEB9CE
:101BA000300000BD00BA300000BDDEBB300000BE1A
:101BB00000BC300000BEDEBD300000BF00BE300003
:101BC00000BFDEBF300000C000C0300000C0DEC17A
:101BD000300000C100C2300000C1DEC3300000AFE1
:101BE00000C4300000C200C5300000C2DEC63000B4
:101BF00000C300C7300000C3DEC8300000C400C905
:101C0000300000C4DECA300000C500CB300000C682
:101C100000CC300000C700CD300000C800CE30003E
:101C200000C900CF300000CA00D0300000CADED1A9
:101C3000300000CADFD2300000CB00D3300000CB30
:101C4000DED4300000CBDFD5300000CC00D6300031
:101C500000CCDED7300000CCDFD8300000CD00D97A
:101C6000300000CDDEDA300000CDDFDB300000CE0A
:101C700000DC300000CEDEDD300000CEDFDE3000E4
:101C800000CF00DF300000D000E0300000D100E1E4
:101C9000300000D200E2300000D300E3300000AC9E
:101CA00000E4300000D400E5300000AD00E6300074
:101CB00000D500E7300000AE00E8300000D600E9B3
:101CC000300000D700EA300000D800EB300000D927
:101CD00000EC300000DA00ED300000DB00EF3000F7
:101CE00000DC00F2300000A600F3300000DD00F45C
:101CF000300000B3DEF7300000DCDEFA300000A672
:101D0000DEFB300000A500FC300000B000FD30001C
:101D100000A400074E0000FB0086510000FC0043B9
:101D2000530000FA0064FF0000A40065FF0000A556
:101D30000066FF0000A60067FF0000A70068FF0024
:101D400000A80069FF0000A9006AFF0000AA006B5C
:101D5000FF0000AB006CFF0000AC006DFF0000ADA9
:101D6000006EFF0000AE006FFF0000AF0070FF00CC
:101D700000B00071FF0000B10072FF0000B20073FC
:101D8000FF0000B30074FF0000B40075FF0000B551
:101D90000076FF0000B60077FF0000B70078FF0074
:101DA00000B80079FF0000B9007AFF0000BA007B9C
:101DB000FF0000BB007CFF0000BC007DFF0000BDF9
:101DC000007EFF0000BE007FFF0000BF0080FF001C
:101DD00000C00081FF0000C10082FF0000C200833C
:101DE000FF0000C30084FF0000C40085FF0000C5A1
:101DF0000086FF0000C60087FF0000C70088FF00C4
:101E000000C80089FF0000C9008AFF0000CA008BDB
:101E1000FF0000CB008CFF0000CC008DFF0000CD48
:101E2000008EFF0000CE008FFF0000CF0090FF006B
:101E300000D00091FF0000D10092FF0000D200937B
:101E4000FF0000D30094FF0000D40095FF0000D5F0
:101E50000096FF0000D60097FF0000D70098FF0013
:101E600000D80099FF0000D9009AFF0000DA009B1B
:101E7000FF0000DB009CFF0000DC009DFF0000DD98
:101E8000009EFF0000DE009FFF0000DF00E5FF0076
:101E9000005C0000000000010204040000001C1CA3
:101EA0000C040404020100000000000408100000FB
:101EB0000000002D2D2D2D2D2D007C4D61726C69A3
:101EC0006E7C002D2D2D2D2D2D00001C1F11111F9E
:101ED00000000006191803130C00040E1F041C0058
:101EE0000000000E1315110E00001C101817050637
:101EF0000500040A0A0A0A11110E0C12120C000045
:101F00000000001F1511151F00004C6F6164204672
:101F1000696C616D656E74202A004C6F6164206D80
:101F20006D00556E6C6F61642046696C616D656E05
:101F300074202A00556E6C6F6164206D6D004669D7
:101F40006C2E204469612E202A0046696C2E2044A4
:101F500069612E004520696E206D6DC2B300416439
:101F600076616E6365204B202A004D333033205557
:101F70003120452569205325690050494420417589
:101F8000746F74756E65202A005049442D44202AD0
:101F9000005049442D49202A005049442D50202A00
:101FA0000020022046616374002002204D61780009
:101FB0002002204D696E004F6666004F6E0041752D
:101FC000746F74656D70005654726176204D696E41
:101FD00000566D696E00566D6178204500566D6142
:101FE00078205A00566D6178205900566D6178202E
:101FF0005800416D6178204500416D6178205A009C
:10200000416D6178205900416D6178205800412D63
:1020100054726176656C00412D526574726163740F
:1020200000416363656C004A756E6374696F6E206E
:102030004465760050726F6265205A204F66667361
:1020400065740050726F62652059204F6666736533
:10205000740050726F62652058204F666673657415
:10206000004573746570732F6D6D005A73746570DD
:10207000732F6D6D005973746570732F6D6D0058FB
:1020800073746570732F6D6D00416476616E636566
:10209000642053657474696E6773003F0043616E1A
:1020A00063656C00496E697400496E697469616C9E
:1020B000697A6520454550524F4D0046696C616D07
:1020C000656E740054656D7065726174757265003B
:1020D0004261636B6C6173680053746570732F6D3C
:1020E0006D0050726F6265204F6666736574730091
:1020F0004A65726B00416363656C65726174696FF8
:102100006E0056656C6F6369747900436F6E666923
:102110006775726174696F6E005A00590058004308
:102120006F7272656374696F6E004D61696E003F16
:10213000004E65787420436F726E657200446F6E56
:1021400065004E65787400486F6D696E6720585958
:102150005A00554E4C4F41442046494C414D454E46
:1021600054004C4F41442046494C414D454E54008B
:1021700046494C414D454E54204348414E47450049
:102180005A2056616C756500496E64657820590067
:10219000496E64657820580053746F7265205365EA
:1021A0007474696E6773004C6F6164205365747456
:1021B000696E6773004C6576656C20436F726E655F
:1021C00072730050726F6265205A204F66667365A5
:1021D00074004661646520486569676874004F66ED
:1021E00066004F6E00426564204C6576656C696ED2
:1021F000670045646974204D657368004732380A8A
:1022000047323900473239004C6576656C204265AB
:1022100064004175746F20486F6D65004D6F74697F
:102220006F6E005A20526169736500326E64204EF1
:102230006F7A7A6C65205A00326E64204E6F7A7A1B
:102240006C65205900326E64204E6F7A7A6C65207E
:102250005800436D643A2053746F7700436D643ABD
:10226000204465706C6F7900436D643A2053572D9C
:102270004D6F646500436D643A2053656C662D5460
:1022800065737400436D643A20526573657400424F
:102290006564004E6F7A7A6C650046616E205370FB
:1022A00065656400436F6E66696775726174696F16
:1022B0006E004C6F61642053657474696E677300BF
:1022C00053746F72652053657474696E677300523E
:1022D0006573746F72652044656661756C74730014
:1022E000507265686561742041425320436F6E6689
:1022F000005072656865617420504C4120436F6ED8
:102300006600546F6F6C204368616E676500424CD5
:10231000546F75636800546F6F6C204F6666736509
:1023200074730050726F6265205A204F6666736541
:102330007400416476616E636564205365747469EA
:102340006E6773004D61696E004D37303220542541
:1023500064004D36303020423020542564004D3723
:102360003032203B2564004D373031205425640045
:102370004368616E67652046696C616D656E7400C7
:10238000556E6C6F61642046696C616D656E74009A
:102390004C6F61642046696C616D656E74005072AB
:1023A00065686561742041425300507265686561DB
:1023B0007420504C4100507265686561742043750B
:1023C00073746F6D004261636B004D363030204294
:1023D0003020542569004D37303120542569004D97
:1023E0003730322054256900556E6C6F6164204689
:1023F000696C616D656E74202A004C6F61642046C3
:10240000696C616D656E74202A004368616E676552
:102410002046696C616D656E74202A004D61696E9D
:10242000005075726765206D6F726500436F6E7442
:10243000696E756500524553554D45204F505449BE
:102440004F4E533A005052494E5420504155534537
:10245000440020204E6F7A7A6C653A2000506172F9
:102460006B696E672E2E2E0000005761697420661E
:102470006F720066696C616D656E74206368616E71
:10248000676500746F2073746172740057616974BA
:1024900020666F720066696C616D656E7420756E82
:1024A0006C6F616400004E6F7A7A6C6520686561BC
:1024B00074696E6700506C6561736520776169743B
:1024C0002E2E2E0000507265737320627574746F27
:1024D0006E00746F2068656174206E6F7A7A6C6527
:1024E0000000496E736572742066696C616D656E7B
:1024F0007400616E64207072657373206275747409
:102500006F6E00746F20636F6E74696E756500572F
:1025100061697420666F720066696C616D656E74C6
:10252000206C6F6164000050726573732042757493
:10253000746F6E00746F20726573756D65207072B4
:10254000696E7400005761697420666F7220707242
:10255000696E7400746F20726573756D652E2E2E12
:1025600000005761697420666F720066696C616D66
:10257000656E742070757267650000313530003A01
:10258000200035003A20004245443A31252062655A
:10259000746120333935300052756E61776179206E
:1025A00057617463683A204F4E00323735003A2045
:1025B0000035003A200045323A2041544320313062
:1025C0003447542D32004D61782054656D700032CF
:1025D0003735003A20004D696E2054656D70003526
:1025E000003A200045313A204154432031303447ED
:1025F000542D32005053550047656E657269630073
:102600003A200050726F746F636F6C00312E30008F
:102610003A20004261756400313135323030003A81
:1026200020004D4B532047454E203E3D2076312E15
:10263000330042696C696E656172204C6576656C29
:10264000696E670045787472756465727300320054
:102650003A2000687474703A2F2F6D61726C696E45
:1026600066772E6F726700503830324E5232003229
:102670003032302D30322D323700322E302E342E83
:1026800034004D61726C696E00546865726D6973D7
:10269000746F727300426F61726420496E666F00DE
:1026A0005072696E74657220496E666F004D616983
:1026B0006E003F004261636B0053746F70004368AB
:1026C000616E67652046696C616D656E7400436F6D
:1026D0006E66696775726174696F6E0054656D70BE
:1026E00065726174757265004D6F74696F6E00522A
:1026F0006573756D65205072696E740041626F7507
:1027000074205072696E746572004D656469612051
:1027100052656C6561736564004D323100417474BB
:10272000616368204D65646961004D323200526515
:102730006C65617365204D65646961005072696EF6
:10274000742066726F6D204D656469610054756E0A
:10275000650053746F70205072696E74005061751B
:102760007365205072696E7400496E666F20536302
:102770007265656E003F0053746172742050726917
:102780006E740043616E63656C005072696E740014
:1027900043616E6E6F7420656E746572207375622E
:1027A0006469723A2000052E2E0004526566726537
:1027B0007368004D61696E004D6F76652025736DFD
:1027C0006D004D6F766520302E316D6D004D6F764A
:1027D0006520316D6D004D6F76652031306D6D0077
:1027E000486F74656E6420746F6F20636F6C640053
:1027F0004578747275646572202A00457874727524
:10280000646572004D6F7665205A004D6F766520C5
:1028100059004D6F76652058004F6666004F6E0078
:10282000536F667420456E6473746F7073004D6FE0
:1028300074696F6E004D38340044697361626C6571
:10284000205374657070657273004732380A4D34D6
:102850003820503130004D34382050726F6265207E
:102860005465737400426564204C6576656C696ECE
:102870006700473238205A00486F6D65205A00477C
:102880003238205900486F6D652059004732382092
:102890005800486F6D652058004732380041757404
:1028A0006F20486F6D65004D6F76652041786973C4
:1028B000004D61696E005072656865617420504C0E
:1028C0004120416C6C005072656865617420504C09
:1028D0004120456E64207E005072656865617420F9
:1028E000504C4120426564005072656865617420F7
:1028F000504C41207E0050726568656174204142F1
:102900005320416C6C0050726568656174204142CF
:1029100053204265640050726568656174204142CD
:102920005320456E64207E00507265686561742096
:10293000414253207E0054656D70657261747572FA
:102940006500436F6F6C646F776E005072656865E9
:102950006174204142530050726568656174205073
:102960004C410046616E20537065656400426564A9
:10297000004E6F7A7A6C65207E004D61696E004171
:102980006476616E6365204B202A00466C6F772069
:102990007E00466C6F770046616E205370656564FB
:1029A00000426564004E6F7A7A6C65207E00537039
:1029B000656564004D61696E002568753A253032A1
:1029C00068750025303268753A2530326875002DFB
:1029D0002D2D005344004D6564696120496E736577
:1029E0007274656400E803000403E803000402E86D
:1029F000030004014400760008E7011902059A006B
:102A0000CC00079F02D102042D015F0106507269BC
:102A10006E742041626F72746564004D32350050EF
:102A200061757365205072696E7400290A00206216
:102A3000797465733B206372632000536574746915
:102A40006E67732053746F7265642028004545508B
:102A5000524F4D206461746173697A6520657272AA
:102A60006F722E0A00290A002062797465733B2078
:102A700063726320002073746F72656420736574E1
:102A800074696E6773207265747269657665642017
:102A90002800202863616C63756C6174656429216A
:102AA0000A0020213D2000454550524F4D20435201
:102AB00043206D69736D61746368202D20287374E1
:102AC0006F7265642920002053697A653A200049B5
:102AD0006E6465783A2000204D61726C696E3D56D7
:102AE0003736290A00454550524F4D20766572739E
:102AF000696F6E206D69736D617463682028454548
:102B000050524F4D3D00454550524F4D20496E6942
:102B10007469616C697A65640A0048617264636F04
:102B20006465642044656661756C742053657474D3
:102B3000696E6773204C6F616465640A0000004829
:102B400043000048430000204200004842142EA0E9
:102B500042856BA0423D6AC7430080C042E2040048
:102B600000E2040000E2040000881300003B2000A3
:102B70003A0A0020204D363033200020204D3432D8
:102B8000352046004261636B6C61736820636F6D32
:102B900070656E736174696F6E3A00546F6F6C2D5F
:102BA0006368616E67696E673A0020550054312092
:102BB0004C002055005430204C0046696C616D6516
:102BC0006E74206C6F61642F756E6C6F6164206C25
:102BD000656E677468733A00204B0020204D3930D1
:102BE000302054004C696E65617220416476616EDC
:102BF00063653A0020204D3835312058005A2D5059
:102C0000726F6265204F6666736574002044002011
:102C1000490020500020204D3330312045005049DC
:102C2000442073657474696E67733A00204600200F
:102C3000420020480020204D3134352053004D61A2
:102C400074657269616C206865617475702070616B
:102C500072616D65746572733A00204A00202047E6
:102C60003239205720490020204D34323020530083
:102C70004175746F20426564204C6576656C696EA1
:102C8000673A0020204D323138205400486F746577
:102C90006E64206F6666736574733A00204A002084
:102CA000530020204D323035204200416476616E61
:102CB0006365643A20423C6D696E5F7365676D655C
:102CC0006E745F74696D655F75733E20533C6D690A
:102CD0006E5F66656564726174653E20543C6D6923
:102CE0006E5F74726176656C5F666565647261744F
:102CF000653E204A3C6A756E635F6465763E0020DF
:102D0000520020204D323034205000416363656C06
:102D100065726174696F6E2028756E6974732F73A4
:102D200032293A20503C7072696E745F616363654A
:102D30006C3E20523C726574726163745F616363C0
:102D4000656C3E20543C74726176656C5F616363B0
:102D5000656C3E0020204D3230312058004D6178A6
:102D6000696D756D20416363656C65726174696F2F
:102D70006E2028756E6974732F7332293A002020F3
:102D80004D3230332058004D6178696D756D206685
:102D900065656472617465732028756E6974732F3C
:102DA00073293A0053746570732070657220756ED4
:102DB00069743A0020204D3230302044300A00201F
:102DC000440020204D323030002044697361626C31
:102DD00065640A0046696C616D656E742073657484
:102DE00074696E67733A0020204D313439204320D6
:102DF0003B20556E69747320696E2043656C73695E
:102E000075730A0020286D6D29002020473231207B
:102E10002020203B20556E69747320696E206D6DF3
:102E2000006F70656E005452494747455245440053
:102E30003A20007A5F70726F6265007A5F6D617828
:102E4000007A5F6D696E00795F6D696E00785F6D05
:102E5000696E005265706F7274696E6720656E648A
:102E600073746F70207374617475730A00205A3A1A
:102E70000020593A0020436F756E7420583A0020A4
:102E8000453A00205A3A0020593A00583A000000CA
:102E90005C4300005C4300006643000020C2000069
:102EA00000000000000020746F6F206C6F6E6720C0
:102EB000657874727573696F6E2070726576656E71
:102EC0007465640A0020636F6C64206578747275A1
:102ED00073696F6E2070726576656E7465640A0042
:102EE000486F6D696E67204661696C65640000001B
:102EF00020C2000000000000000000004842000066
:102F00004842000020415761726E696E673A20485E
:102F10006F6D696E672042756D70204469766973C4
:102F20006F72203C20310A000202040000A0400021
:102F300000A040000000400000824300005C43000D
:102F4000006643FFFFFF00000001000000010000D9
:102F50008000555555000000400033333300AAAAC5
:102F60002A004992240000002000C7711C00999992
:102F70001900D1451700555515003BB113002449E0
:102F8000120011111100000010000F0F0F00E338A4
:102F90000E0043790D00CCCC0C00C3300C00E8A22D
:102FA0000B0064210B00AAAA0A00703D0A009DD8FC
:102FB0000900427B090092240900DCD308008888BC
:102FC00008001042080000000800F0C107008787D1
:102FD000070075500700711C07003EEB0600A1BCFE
:102FE00006006990060066660600703E06006118DD
:102FF000060017F4050074D105005BB00500B2901F
:103000000500627205005555050078390500B81EA7
:103010000500050505004EEC040087D40400A1BDA1
:10302000040090A7040049920400C17D0400EE69E9
:103030000400C7560400444404005C320400082124
:10304000040041100400000004003FF00300F8E019
:10305000030026D20300C3C30300CCB503003AA883
:1030600003000A9B0300388E0300C08103009F7594
:103070000300D0690300505E03001D530300344871
:103080000300913D03003333030016290300381F6A
:10309000030097150300300C0300030303000BFA31
:1030A000020049F10200BAE802005CE002002DD8FB
:1030B00002002DD0020059C80200B0C0020031B990
:1030C0000200DAB10200AAAA0200A0A30200BC9C7E
:1030D0000200FA9502005C8F0200DF880200828203
:1030E0000200457C02002776020027700200436A36
:1030F00002007C640200D05E02003F590200C85307
:1031000002001000C90210012C01400122017001CF
:103110001801B0010E01F00104015002FA00B002E2
:10312000F0003003E600D003DC009004D20070050C
:10313000C800A006BE000008B400B009AA00D00B69
:10314000A000600E960060118C000015820020190E
:103150007800C01D6E00A0226400B0275A00902C99
:10316000500000314600E0343C0010383200903A04
:103170002800603C1E00A03D1400803E0A00203F55
:103180000000206C696D6974656420746F200020F4
:103190004D61782000FFFDFCFAF8F6F4F2F0EEEC59
:1031A000EAE9E7E5E3E1E0DEDCDAD9D7D5D4D2D04D
:1031B000CFCDCBCAC8C7C5C3C2C0BFBDBCBAB9B7E3
:1031C000B6B4B3B2B0AFADACAAA9A8A6A5A4A2A14B
:1031D000A09E9D9C9A99989795949392908F8E8D8E
:1031E0008B8A8988878684838281807F7E7D7B7AB3
:1031F000797877767574737271706F6E6D6C6B6AB7
:10320000696867666564636261605F5E5D5C5B5AA6
:103210005958585756555453525150504F4E4D4C83
:103220004B4A4A4948474646454443424241403F4B
:103230003E3E3D3C3B3B3A39383837363535343302
:1032400032323130302F2E2E2D2C2B2B2A292928AB
:10325000272726252524232322212120201F1E1E47
:103260001D1C1C1B1B1A19191818171616151514D6
:10327000131312121111100F0F0E0E0D0D0C0C0B5B
:103280000A0A0909080807070606050504040303D6
:10329000020201000020746F6F206C6F6E67206562
:1032A0007874727573696F6E2070726576656E746E
:1032B00065640A0020636F6C6420657874727573AE
:1032C000696F6E2070726576656E7465640A0021A0
:1032D000212053544F502063616C6C6564206265FB
:1032E0006361757365206F6620424C546F75636827
:1032F000206572726F72202D207265737461727412
:103300002077697468204D3939390A00212120530A
:10331000544F502063616C6C656420626563617515
:103320007365206F6620424C546F75636820657228
:10333000726F72202D2072657374617274207769C8
:103340007468204D3939390A0024F4D43050C38EC2
:1033500020C2A24017828B7011127A910D816CD914
:103360000AA861E108C7586607615143061E4B5D14
:1033700005C145A7041A411104093D98037139316B
:10338000034036DB0265339102D4305402802E1D97
:1033900002632CEE01752AC501B028A00110278117
:1033A000018F2564012B244B01E0223401AC211F45
:1033B000018D200D01801FFC00841EED00971DDF94
:1033C00000B81CD200E61BC600201BBC00641AB269
:1033D00000B219A8000A19A0006A189900D1179123
:1033E0000040178B00B516840031167E00B31579A6
:1033F000003A157300C7146F0058146A00EE136684
:10340000008813630025135E00C7125B006C12571F
:103410000015125400C111510070114F0021114BC1
:1034200000D61049008D104700461044000210429B
:1034300000C00F4000800F3E00420F3C00060F3BD3
:1034400000CB0E3800930E37005C0E3500270E348B
:1034500000F30D3200C10D3100900D3000600D2ED3
:1034600000320D2D00050D2C00D90C2B00AE0C29BF
:1034700000850C29005C0C2700350C27000E0C265B
:1034800000E80B2400C40B2400A00B23007D0B23B9
:10349000005A0B2100390B2100180B2000F80A1FDD
:1034A00000D90A1E00BB0A1E009D0A1D00800A1DCD
:1034B00000630A1C00470A1B002C0A1B00110A1A91
:1034C00000F7091A00DD091900C4091900AB091930
:1034D00000920917007B091800630917004C0916B0
:1034E0000036091600200916000A091500F508150E
:1034F00000E0081400CC081400B8081400A4081454
:1035000000900813007D0812006B08130058081281
:103510000046081200340811002308110012081197
:103520000001081100F0071000E0071000D007109C
:1035300000C0071000B0070F00A107100091070E90
:103540000083070F0074070F0065070E0057070E72
:103550000049070E003B070D002E070E0020070D47
:103560000013070D0006070D00F9060C00ED060D0F
:1035700000E0060C00D4060C00C8060C00BC060CCB
:1035800000B0060C00A4060B0099060C008D060B7B
:103590000082060B0077060B006C060B0061060A22
:1035A0000057060B004C060A0042060A0038060ABD
:1035B000002E060A0024060A001A060A0010060950
:1035C0000007060A00FD050900F4050900EB0509DE
:1035D00000E2050900D9050900D0050900C7050961
:1035E00000BE050900B5050800AD050800A50509E0
:1035F000009C050800940508008C05080084050857
:10360000007C050800740508006C050700650508C6
:10361000005D050700560508004E05070047050731
:10362000004005080038050700310507002A050796
:1036300000230507001C050600160507000F0507F7
:10364000000805060002050700FB040600F5040754
:1036500000EE040600E8040600E2040700DB0406AE
:1036600000D5040600CF040600C9040600C3040602
:1036700000BD040600B7040600B1040500AC040652
:1036800000A6040600A00405009B0406009504059E
:1036900000900406008A04050085040500800406E5
:1036A000007A04050075040500700405006B04052C
:1036B0000066040500610405005C0405005704056C
:1036C00000520405004D04050048040500430405AC
:1036D000003E0404003A04050035040500300404EB
:1036E000002C04050027040400230405001E040424
:1036F000001A04040016040500110404000D04045B
:1037000000090405000404040000040400FC030490
:1037100000F8030400F4030400F0030400EC0304C5
:1037200000E8030400E4030400E0030400DC0304F5
:1037300000D8030400D4030400D0030400CC030425
:1037400000C8030300C503030024F404D9201BC4EC
:103750000C5C0E9804C4095F0265077101F405F959
:1037600000FB04B30048048700C1036900580355F7
:103770000003034500BE023A008402310053022ACE
:10378000002902250004022000E4011C00C80119E0
:1037900000AF01170098011400840113007101109B
:1037A000006101100051010E0043010D0036010BB4
:1037B000002B010B0020010B00150109000C010971
:1037C0000003010800FB000800F3000800EB0007FD
:1037D00000E4000600DE000600D8000600D2000665
:1037E00000CC000500C7000500C2000500BD0004B4
:1037F00000B9000400B5000400B1000400AD0004ED
:1038000000A9000400A5000300A20003009F00041B
:10381000009B000300980003009500020093000342
:1038200000900003008D0002008B0003008800025E
:10383000008600020084000300810002007F000275
:10384000007D0002007B0002007900020077000189
:103850000076000200740002007200010071000294
:10386000006F0002006D0001006C0002006A0001A0
:1038700000690002006700010066000100650001A8
:1038800000640002006200010061000100600001AC
:10389000005F0002005D0001005C0001005B0001B0
:1038A000005A0001005900010058000100570001B2
:1038B00000560001005500010054000100530000B3
:1038C00000530001005200010051000100500001AE
:1038D000004F0001004E0000004E0001004D0001AD
:1038E000004C0001004B0000004B0001004A0001A9
:1038F00000490001004800000048000100470001A5
:10390000004600000046000100450000004500019F
:103910000044000100430000004300010042000099
:103920000042000100410000004100010040000190
:10393000003F0000003F0001003E0000003E00018B
:10394000003D0000003D0001003C0000003C000084
:10395000003C0001003B0000003B0001003A000079
:10396000003A000100390000003900010038000071
:103970000038000000380001003700000037000167
:10398000003600000036000000360001003500005F
:103990000035000000350001003400000034000054
:1039A0000034000100330000003300000033000148
:1039B000003200000032000000320001003100003F
:1039C0000031000000310001003000000030000034
:1039D00000300001002F0000002F0000002F000029
:1039E000002F0001002E0000002E0000002E00011C
:1039F000002D0000002D0000002D0000002D000112
:103A0000002C0000002C0000002C0000002C000105
:103A1000002B0000002B0000002B0000002B0001F9
:103A2000002A0000002A0000002A0000002A0001ED
:103A300000290000002900000029000000290000E2
:103A400000290001002800000028000000280000D4
:103A500000280000002800010027000000270000C7
:103A600000270000002700000027000100260000BA
:103A700000260000002600000026000000260001AD
:103A800000250000002500000025000000250000A2
:103A90000025000000250001002400000024000093
:103AA0000024000000240000002400010023000086
:103AB000002300000023000000230000002300007A
:103AC000002300000023000100220000002200006B
:103AD000002200000022000000220000002200015D
:103AE0000021000000210000002100000021000052
:103AF0000021000000210000002100010020000042
:103B00000020000000200000002000000020000035
:103B1000002000000020000000200001001F000025
:103B2000001F0000001F0000001F0000001F000019
:103B3000001F0000001F0001001E0000001E00000A
:103B4000001E0000001E000000232C0000B8220010
:103B500000561800003A0F0000B8080000B1040039
:103B600000710200003E0100000000453200426585
:103B70006400453100626564002C207379737465BC
:103B80006D2073746F707065642120486561746581
:103B9000725F49443A200048656174696E67204647
:103BA00061696C65640048656174696E672066616F
:103BB000696C6564001000AA03F0013A01900222CA
:103BC0000130031001D00302017004F7001005ED6D
:103BD00000B005E5005006DD00F006D7009007D1E3
:103BE000003008CC00D008C7007009C300100ABE1E
:103BF00000B00ABB00500BB700F00BB300900CB044
:103C000000D00DAA00100FA5005010A00090119B2D
:103C100000D0129600B014900090168B007018859A
:103C200000501A8000301C7B00B01E750030216FE0
:103C300000B02369003026640010285F00902A5AE3
:103C400000702C5500F02E4F0070314800B0324506
:103C500000F03341007036390010373700503833E8
:103C60000090392D00D03A2700B03C1C00503D1781
:103C700000F03D1100903E0900D03FE5FF5448455B
:103C8000524D414C2052554E4157415900546865A0
:103C9000726D616C2052756E617761790045727248
:103CA0003A204D415854454D50004D415854454DD2
:103CB0005020747269676765726564004572723A74
:103CC000204D494E54454D50004D494E54454D50A0
:103CD00020747269676765726564000A0A002020B3
:103CE0005A5F4D494E5F50524F42453A0020205A8C
:103CF0005F4D41583A0020205A5F4D494E3A00200E
:103D000020595F4D494E3A002020585F4D494E3AA8
:103D1000004D383420582059205A204500202F00CB
:103D20002040002042403A0020403A0020573A000C
:103D300020573A00496E76616C6964206578747228
:103D4000756465720A00416374697665204578740C
:103D500072756465723A20007C3C3E5E2B3D3F2FBD
:103D60005B5D3B2C2A225C0043616E6E6F74206F9A
:103D700070656E207375626469722000534420631D
:103D8000617264206F6B0A006F70656E526F6F74A2
:103D9000206661696C65640A00766F6C756D652ECE
:103DA000696E6974206661696C65640A0053442019
:103DB000696E6974206661696C0A004D3234004D89
:103DC00032332025730046696C652073656C65632A
:103DD0007465640A002053697A653A200046696C6C
:103DE00065206F70656E65643A2000454E4420532F
:103DF0005542524F5554494E450A002220706F7368
:103E0000002220706172656E743A2200535542524E
:103E10004F5554494E452043414C4C2074617267C4
:103E200065743A2200747279696E6720746F20633A
:103E3000616C6C207375622D67636F6465206669C1
:103E40006C6573207769746820746F6F206D616E84
:103E500079206C6576656C732E204D4158206C6519
:103E600076656C2069733A310A0057726974696E1D
:103E70006720746F2066696C653A20002E0A006F17
:103E800070656E206661696C65642C2046696C659E
:103E90003A2000667265736800646F696E6700207F
:103EA00066696C653A20004E6F77200000002100A3
:103EB000240027002A002D003000330001010000FB
:103EC000040107010A0100002200250028002B0040
:103ED0002E003100340002010000050108010B0131
:103EE000000020002300260029002C002F003200B3
:103EF000000100000301060109010505050507058C
:103F000008080808020202020A0A08080404040455
:103F10000101010101010101030303030303030381
:103F2000040707070C0C0C0C0C0C0C0C0202020210
:103F300006060606060606060B0B0B0B0B0B0B0BF9
:103F400001021020200808102040102040800201AB
:103F50000201080402010102040810204080804090
:103F6000201008040201800402018040201008048F
:103F7000020108040201010204081020408001022D
:103F800004081020408000000A0B02090C0D0E08E6
:103F90000703040100000000000000000000000012
:103FA0000000000000000000000000000000000011
:103FB00000001211100000000000000000000000CE
:103FC0000000000000000000000000006874747031
:103FD0003A2F2F6D61726C696E66772E6F72670073
:103FE000687474703A2F2F6D61726C696E66772EEB
:103FF0006F726700687474703A2F2F6D61726C690C
:104000006E66772E6F726700322E302E342E34009B
:10401000322E302E342E3400322E302E342E3400F8
:1040200000687474703A2F2F6D61726C696E6677D8
:104030002E6F726700687474703A2F2F6D61726C06
:10404000696E66772E6F726700687474703A2F2FEE
:104050006D61726C696E66772E6F72670020322E0A
:10406000302E342E34002020506C616E6E6572420A
:10407000756666657242797465733A2000204672EF
:104080006565204D656D6F72793A2000436F6D70E4
:10409000696C65643A204D617220203320323032E1
:1040A000300A00204C61737420557064617465643B
:1040B0003A20323032302D30322D3237207C2041C0
:1040C0007574686F723A2053696C766572437972C1
:1040D00065780A00322E302E342E340A004D61727B
:1040E0006C696E0020536F6674776172652052654B
:1040F0007365740A00205761746368646F672052A7
:10410000657365740A002042726F776E206F757454
:104110002052657365740A002045787465726E617B
:104120006C2052657365740A00506F776572557024
:104130000A0073746172740A006175746F25632ECE
:104140006700473238585900446F6E6520707269B5
:104150006E74696E672066696C650A004D333100C4
:104160004D3051315331383030006572726F7220EA
:1041700077726974696E6720746F2066696C650A6E
:1041800000446F6E6520736176696E672066696CA6
:10419000652E0A004D323900456E6473746F70737A
:1041A00000255320256320256320256320256300F7
:1041B00020503A00205A3A0020593A0020583A003C
:1041C000656E6473746F7073206869743A2000437D
:1041D0004F4D4D554E49434154494F4E004452595D
:1041E00052554E004552524F525300494E464F00D1
:1041F0004543484F005072696E7420506175736575
:1042000064005072696E742066726F6D204D656433
:10421000696100454550524F4D204F4B0A004D6596
:10422000736820706F696E742063616E6E6F7420A6
:104230006265207265736F6C7665640A004D343276
:104240003120696E636F7272656374207061726190
:104250006D657465722075736167650A00646973C2
:1042600000656E0043290A0061626C656420286D58
:10427000696E2074656D702000436F6C64206578F2
:10428000747275646573206172652000496E766191
:104290006C69642065787472756465720A002064C4
:1042A0003A0020693A0020703A0020653A003A202E
:1042B0000020536572766F2000206F7574206F6642
:1042C0002072616E67650A00536572766F20002068
:1042D000466C6F773A2000486F74656E64206F6695
:1042E00066736574733A004F4646004F4E0020587F
:1042F0000020204D61783A2000200020204D696E7A
:104300003A2000536F667420656E6473746F707327
:104310003A20003F4A206F7574206F662072616EEC
:1043200067652028302E303120746F20302E3329DD
:104330000A00205400205200416363656C6572617D
:1043400074696F6E3A2050004665656472617465E9
:1043500000416363656C65726174696F6E004D3115
:10436000343520533C696E6465783E206F75742047
:104370006F662072616E67652028302D31290A0032
:104380002F2F20004348414D4245525F54454D5028
:1043900045524154555245004D4F54494F4E5F4D83
:1043A0004F44455300544845524D414C5F50524F85
:1043B00054454354494F4E004155544F5245504F78
:1043C00052545F53445F5354415455530050524F1D
:1043D0004D50545F535550504F525400454D455227
:1043E00047454E43595F5041525345520043415354
:1043F000455F4C494748545F4252494748544E45EF
:10440000535300544F47474C455F4C49474854531A
:1044100000534F4654574152455F504F5745520045
:104420004255494C445F50455243454E54004C451B
:1044300056454C494E475F44415441005A5F5052E3
:104440004F4245004155544F4C4556454C00505243
:10445000494E545F4A4F420050524F4752455353C2
:10446000004155544F5245504F52545F54454D50A2
:1044700000564F4C554D4554524943004545505206
:104480004F4D0042494E4152595F46494C455F5499
:1044900052414E534645520053455249414C5F5894
:1044A0004F4E5F584F4646004649524D5741524580
:1044B0005F4E414D453A4D61726C696E20322E302F
:1044C0002E342E3420284769744875622920534FB2
:1044D000555243455F434F44455F55524C3A6874CB
:1044E0007470733A2F2F6769746875622E636F6DED
:1044F0002F4D61726C696E4669726D776172652FBE
:104500004D61726C696E2050524F544F434F4C5F57
:1045100056455253494F4E3A312E30204D41434873
:10452000494E455F545950453A503830324E523218
:104530002045585452554445525F434F554E543AC6
:104540003220555549443A63656465326132662DBF
:10455000343161322D343734382D396231322D63A4
:1045600035356336326633363766660A0050383082
:10457000324E5232204F46462E0042656420436F31
:104580006F6C696E672E2E2E00426564204865614F
:1045900074696E672E2E2E004D31313220536875AE
:1045A00074646F776E006F666600F041EB41E44122
:1045B000DD41CF4144454255473A006F6B00436FA0
:1045C0006F6C696E672E2E2E0048656174696E6788
:1045D0002E2E2E004525632025530050726F7465E2
:1045E000637465642050696E0A002569730025694B
:1045F0006D20256973002569682025696D2025696E
:104600007300256964202569682025696D20256966
:10461000730025697920256964202569682025694A
:104620006D20256973005072696E742074696D6520
:104630003A20002E0A0044656C6574696F6E20662E
:1046400061696C65642C2046696C653A2000466996
:104650006C652064656C657465643A00286E6F2033
:1046600066696C65290043757272656E74206669AF
:104670006C653A20005344207072696E74696E67ED
:10468000206279746520004E6F742053442070724C
:10469000696E74696E670A00456E642066696C65B0
:1046A000206C6973740A00426567696E2066696CE4
:1046B00065206C6973740A004E6F204D6F76652E0D
:1046C00000436C69636B20746F20526573756D6570
:1046D0002E2E2E004D65736820706F696E742063F6
:1046E000616E6E6F74206265207265736F6C7665A3
:1046F000640A00205A3A200020593A20004265649A
:1047000020583A2000536C6565702E2E2E004732DB
:104710002F47332062616420706172616D6574653A
:1047200072730A00486F6D65202573257325732009
:1047300046697273740050726F62696E67204661D9
:10474000696C65640A0050726F62696E6720466129
:10475000696C656400205A3A200020593A200042D2
:10476000656420583A2000496E736572742066694A
:104770006C616D656E7420616E6420707265737318
:1047800020627574746F6E0A00496E7365727420CE
:1047900066696C616D656E7420616E64207072650F
:1047A000737320627574746F6E0A00220A00556E6E
:1047B0006B6E6F776E20636F6D6D616E643A202251
:1047C00000503830324E52322052656164792E00EA
:1047D0005072696E74696E672E2E2E00204500207F
:1047E0005900204D3932205800205A002E0A006FFF
:1047F00070656E206661696C65642C2046696C6525
:104800003A200000A2009C0011241FBECFEFD1E28D
:10481000DEBFCDBF00E00CBF14E0A0E0B2E0E0E0FE
:10482000F0EF02E00BBF02C007900D92A238B10773
:10483000D9F727E1A2E8B4E001C01D92A333B20783
:10484000E1F714E2C3E0D4E200E006C021970109D9
:10485000802FFE010F946877C230D10780E00807EF
:10486000A9F70F94AB600D94EF770C9400000C94B3
:10487000C032CF92DF92EF92FF9223EF34E045E314
:104880005FE36091F7107091F8108091F9109091AA
:10489000FA100F94456E6B017C016091F4117091D8
:1048A000F5118091F6119091F7110F94E46D9B0131
:1048B000AC01C701B6010F94456E29E732E84AE51D
:1048C00050E40F94456E0F94D4766093F310709378
:1048D000F4108093F5109093F610FF90EF90DF9016
:1048E000CF9008952CEA35EC47E25EE360913A06FA
:1048F00070913B0680913C0690913D060F94447563
:1049000060935C1170935D1180935E1190935F11C1
:1049100008952CEA35EC47E25EE360913E06709123
:104920003F0680914006909141060F94456E60933A
:1049300058117093591180935A1190935B110895F7
:104940002CEA35EC47E25EE360913A0670913B0653
:1049500080913C0690913D060F94447560934511FB
:1049600070934611809347119093481108952CEA53
:1049700035EC47E25EE360913E0670913F06809120
:104980004006909141060F94456E609341117093DB
:10499000421180934311909344110895FC01849136
:1049A0000895FC0180810895CF93DF93EC01CB0142
:1049B000BA010F94E66D2AE037ED43E25DE30F9410
:1049C000447520E030E0A9010F9468740F94B1752C
:1049D000688379838A839B83DF91CF910895CF93F6
:1049E000DF93EC01CB01BA010F94E66D20E030E0DB
:1049F00048EC52E40F94447520E030E0A9010F9494
:104A00006874688379838A839B83DF91CF9108954B
:104A1000CF93DF93EC01CB01BA010F94E66D20E058
:104A200030E048EC52E40F94447520E030E0A901F6
:104A30000F946874688379838A839B83DF91CF9115
:104A40000895CF93DF93EC01CB01BA010F94E66D8B
:104A500020E030E040E251E40F94447520E030E083
:104A6000A9010F946874688379838A839B83DF919B
:104A7000CF910895CF93DF93EC01CB01BA010F944E
:104A8000E66D20E030E040E251E40F94447520E010
:104A900030E0A9010F946874688379838A839B83CB
:104AA000DF91CF910895CF93DF93EC01CB01BA0151
:104AB0000F94E66D20E030E040E251E40F9444753D
:104AC00020E030E0A9010F946874688379838A83B9
:104AD0009B83DF91CF910895CF93DF93EC01CB01BE
:104AE000BA010F94E66D2AE037ED43E25DE30F94DF
:104AF000447520E030E0A9010F94687468837983DD
:104B00008A839B83DF91CF910895CF93DF93EC014C
:104B1000CB01BA010F94E66D20E030E0A9010F94BB
:104B20006874688379838A839B83DF91CF9108952A
:104B3000CF93DF93EC01CB01BA010F94E66D20E037
:104B400030E0A9010F946874688379838A839B831A
:104B5000DF91CF910895CF93DF93EC01CB01BA01A0
:104B60000F94E66D20E030E04AE754E40F9444757A
:104B700020E030E0A9010F946874688379838A8308
:104B80009B83DF91CF910895CF93DF93EC01CB010D
:104B9000BA010F94E66D20E030E0A9010F9468742B
:104BA0000F94B1756883DF91CF910895CF93DF9310
:104BB000EC01CB01BA010F94E66D20E030E0A901D1
:104BC0000F9468740F94AC7579836883DF91CF91EB
:104BD0000895CF93DF93EC01CB01BA010F94E66DFA
:104BE00029EC38EC48EC5EE30F94447520E030E0AB
:104BF00040E05FE30F9468740F94B1756883DF91B0
:104C0000CF9108958F929F92AF92BF92CF92DF92F1
:104C1000EF92FF92CF936B017C0120E030E0A9017D
:104C20000F94E06D87FD99C067E177EB81E598E32C
:104C3000A70196010F9468746B017C0120E030E0BD
:104C40004AE754E40F94456E4B015C0120E030E0EC
:104C5000A901C701B6010F94E06D20E030E040EA01
:104C600050E487FF04C020E030E040EA50ECC5018A
:104C7000B4010F94687420E030E040E251E40F94F6
:104C800044750F94AC756B017C018BE2F7FE09C093
:104C9000F094E094D094C094C11CD11CE11CF11C90
:104CA0008DE280939510C701B60120E137E240E024
:104CB00050E00F942C748AE0882E912CA12CB12CFA
:104CC000CA01B901A50194010F942C74605D609331
:104CD0009610C701B60128EE33E040E050E00F9493
:104CE0002C74CA01B901A50194010F942C74605D64
:104CF00060939710C701B60124E630E040E050E031
:104D00000F942C74CA01B901A50194010F942C745D
:104D1000605D609398108EE280939910C701B60190
:104D2000A50194010F942C74C62FCA01B901A501E5
:104D300094010F942C74605D60939A10C05DC093D1
:104D40009B1085E990E1CF91FF90EF90DF90CF909D
:104D5000BF90AF909F908F90089567E177EB81E5CA
:104D600098EB66CF0F94E66D20E030E048EC52E41B
:104D70000F94447520E030E0A9010F94687442CF8D
:104D80008F929F92AF92BF92CF92DF92EF92FF925B
:104D9000CF936B017C0120E030E0A9010F94E06D1E
:104DA00087FD99C067E177EB81E598E3A70196015C
:104DB0000F9468746B017C0120E030E048EC52E411
:104DC0000F94456E4B015C0120E030E0A901C70162
:104DD000B6010F94E06D20E030E040EA50E487FF38
:104DE00004C020E030E040EA50ECC501B4010F946B
:104DF000687420E030E040E251E40F9444750F9471
:104E0000AC756B017C018BE2F7FE09C0F094E09475
:104E1000D094C094C11CD11CE11CF11C8DE2809384
:104E20009510C701B60120E137E240E050E00F9451
:104E30002C748AE0882E912CA12CB12CCA01B901C6
:104E4000A50194010F942C74605D60939610C701C6
:104E5000B60128EE33E040E050E00F942C74CA0114
:104E6000B901A50194010F942C74605D60939710B3
:104E7000C701B60124E630E040E050E00F942C7406
:104E8000CA01B901A50194010F942C74605D60936F
:104E90009810C701B601A50194010F942C74C62F78
:104EA000CA01B901A50194010F942C74605D60934F
:104EB00099108EE280939A10C05DC0939B1085E993
:104EC00090E1CF91FF90EF90DF90CF90BF90AF90A7
:104ED0009F908F90089567E177EB81E598EB66CF1F
:104EE0000F94E66D20E030E040E251E40F94447509
:104EF00020E030E0A9010F94687442CF8F929F9216
:104F0000AF92BF92CF92DF92EF92FF92CF936B015D
:104F10007C0120E030E0A9010F94E06D87FDA4C082
:104F200067E177EB81E598E3A70196010F94687438
:104F30006B017C0120E030E0A9010F94E06D87FF58
:104F400098C0C701B601905820E030E048EC52E428
:104F50000F94456E20E030E040EA50E40F9468740E
:104F600020E030E040E251E40F9444750F94AC75BA
:104F70006B017C0180E28093951060E280E1C816AD
:104F800087E2D806E104F1048CF0C701B60120E104
:104F900037E240E050E00F942C74CA01B9012AE0D6
:104FA00030E040E050E00F942C74605D6093961008
:104FB00060E288EEC81683E0D806E104F1048CF0C4
:104FC000C701B60128EE33E040E050E00F942C74A6
:104FD000CA01B9012AE030E040E050E00F942C749F
:104FE000605D6093971060E284E6C816D104E10426
:104FF000F1048CF0C701B60124E630E040E050E057
:105000000F942C74CA01B9012AE030E040E050E06E
:105010000F942C74605D609398108AE0882E912C18
:10502000A12CB12CC701B601A50194010F942C74D9
:10503000C62FCA01B901A50194010F942C74605DBB
:10504000609399108EE280939A10C05DC0939B107C
:1050500085E990E1CF91FF90EF90DF90CF90BF90E6
:10506000AF909F908F90089567E177EB81E598EB83
:105070005BCF20E030E048EC52E4C701B60168CFD6
:105080000F94E66D20E030E040E251E40F94447567
:1050900020E030E0A9010F94687430CFCF93DF9304
:1050A000FB01D90190819130E9F09430A8F094503F
:1050B00090832D913C911197B9016F5F7F4F1196AD
:1050C0007C936E93420F531FEA0188838D919C91CC
:1050D0008F35910564F406C08C3539F49C5F90835C
:1050E000943039F7DF91CF9108958B3311F781E038
:1050F0008083F8CF90911D0EE92FF0E0E953FA4E2E
:1051000080839F5F943040F490931D0E8091A10F97
:105110008F5F8093A10F089510921D0EF7CF282F57
:1051200090918211833021F495FD0FC094FD0FC042
:10513000892F90E0B0E0A0E004C0B695A7959795C0
:1051400087952A95D2F78170089581E0089580E0CF
:105150000895082E000C990BFC01E650F14CE491E7
:10516000EE2391F0F0E0EE0FFF1FE052F14CA5911D
:10517000B4912C91805C904CFC018491282381E0B7
:1051800090E021F480E0089580E090E00895082EFA
:10519000000C990BFC01E650F14CE491F0E0EE0FAD
:1051A000FF1FE455F14CA591B4912C91805C904C7B
:1051B000FC018491822391E009F490E0892F089505
:1051C000EF92FF920F931F93CF93DF9324E0629FA0
:1051D000E00111248C010C0F1D1FCE018B569D4F39
:1051E0007C01F80124A935A946A957A9FC016081D1
:1051F0007181828193810F946874F7016083718358
:1052000082839383C653DD4F88819981AA81BB81B4
:10521000F80180839183A283B38314AA15AA16AAE6
:1052200017AADF91CF911F910F91FF90EF900895F2
:10523000CF93DF93CBEDD0E1288139814A815B8127
:105240006C857D858E859F850F9467746C877D87BF
:105250008E879F872C813D814E815F816889798906
:105260008A899B890F946774688B798B8A8B9B8B57
:10527000288539854A855B856C897D898E899F89DA
:105280000F9467746C8B7D8B8E8B9F8B1886198621
:105290001A861B861C821D821E821F82188219821A
:1052A0001A821B82DF91CF910895CF92DF92EF9205
:1052B000FF92CF93DF93EC016A017B0127E137EB8B
:1052C00041ED58EBCB01B6010F948E7687FD23C0DC
:1052D00027E030E04CE553E4C701B6010F94E06DE0
:1052E0001816CCF0C880D980EA80FB802AE130E033
:1052F00040E252ECC701B6010F948E7687FD0BC0D9
:10530000C1E027E030E04CE553E4C701B6010F945B
:10531000E06D18160CF4C0E08C2FDF91CF91FF9058
:10532000EF90DF90CF9008952F923F924F925F922F
:105330006F927F928F929F92AF92BF92CF92DF92A5
:10534000EF92FF920F931F93CF93DF93CDB7DEB70A
:105350002E970FB6F894DEBF0FBECDBFF82EE62E07
:10536000042F122F282F30E03A872987862F90E0CC
:105370009C878B87220F331FA985BA852A0F3B1F75
:105380003E872D87FC01E20FF31FEE0FFF1FEE0F8C
:10539000FF1FE255FF4E60817181828193819B01E5
:1053A000AC010F941677882309F440C1802F8F0D2C
:1053B000612F6E0D282F30E0F901EE0FFF1FE20F75
:1053C000F31FAB85BC85AE0FBF1FAA0FBB1FAA0F73
:1053D000BB1FA255BF4EAC901196BC901197129670
:1053E000CC9012971396DC90080F802F90E0AC01C0
:1053F000440F551F480F591FAB85BC85A40FB51F1F
:10540000AA0FBB1FAA0FBB1FA255BF4EEC9011964F
:10541000FC90119712960C91129713969C90862FE0
:1054200090E0AD85BE85A80FB91FAA0FBB1FAA0FBC
:10543000BB1FA255BF4E8C9011967C90119712966F
:105440006C90129713965C90610F70E02D853E85ED
:10545000260F371F220F331F220F331F22553F4EB7
:105460003E872D87D9014C9011963C90119712964A
:105470001C91129713962C90E80FF91FEE0FFF1F47
:10548000EE0FFF1FE255FF4EB081B98321812A83C1
:1054900032813B8383818C83FA01E60FF71FEE0F85
:1054A000FF1FEE0FFF1FE255FF4E90819D83A181EC
:1054B000AE83B281BF83238128879701402F592D66
:1054C000B701802F992D0F941677882321F0E12CB6
:1054D000F12C00E0912C9501A601B501C6010F94B5
:1054E0001677882319F05701C02ED92C242D332D7F
:1054F000412F522D642D732D812F922D0F941677ED
:10550000882321F0412C312C10E0212C282D372D1F
:10551000462D552D682D772D862D952D0F941677B8
:10552000882321F0842C732C612E522C2D813E81F6
:105530004F8158856D817E818F8198850F94167774
:10554000882321F01D821E821F82188629813A81BC
:105550004B815C8169817A818B819C810F94167764
:10556000882341F03D8139838E818A839F819B838B
:10557000A885AC83E985FA85EE0FFF1F29853A855A
:10558000E20FF31F8B859C85E80FF91FEE0FFF1FBD
:10559000EE0FFF1FE255FF4EFA87E9879501A6013E
:1055A000B501C6010F9468749701402F592D0F94CF
:1055B00067746B017C01282D372D462D552D682DE4
:1055C000772D862D952D0F946874242D332D412F22
:1055D000522D0F9467749B01AC01C701B6010F9463
:1055E00068746B017C0129813A814B815C816981FE
:1055F0007A818B819C810F9468742D813E814F81CB
:1056000058850F9467749B01AC01C701B6010F94D4
:10561000687420E030E040E450E40F944475A985BC
:10562000BA856D937D938D939C9313972E960FB6A9
:10563000F894DEBF0FBECDBFDF91CF911F910F91C8
:10564000FF90EF90DF90CF90BF90AF909F908F90A2
:105650007F906F905F904F903F902F9008958EEFC6
:105660000E94D6B30C9443B480E090E0A0E8B0E48C
:1056700080939D0290939E02A0939F02B093A002FC
:1056800082E793E00E9478B280914F068130C9F1A1
:10569000D4F4882309F18AED92E00E9478B2109246
:1056A0009D0210929E0210929F021092A00282E729
:1056B00093E00E9478B280914F068F5F84309CF512
:1056C00080934F060895823049F1833021F780E0BE
:1056D00090E0A0EFB1E419C080E090E0A0EFB1E469
:1056E0008093950290939602A0939702B0939802AC
:1056F0008093990290939A02A0939B02B0939C028C
:10570000CACF80E090E0AEE3B3E48093950290933B
:105710009602A0939702B0939802BDCF80E090E0EC
:10572000AEE3B3E4E5CF10924F0608950F94E66D13
:1057300029EC38EC48EC5EE30F94447520E030E04F
:1057400040E05FE30F9468740F94B175862F0C945A
:10575000D0C50F94E66D20E030E0A9010F94687485
:105760000F94AC75CB010C947CBD0D9493330D94C8
:1057700093330D9493330D9493330D9415330D940B
:1057800015330D9415330D9415330F94E66D20E009
:1057900030E0A9010F9468740F94B175862F0C94B2
:1057A00085C0CF93DF9300D01F92CDB7DEB70F94A3
:1057B000B1750F94E46D69837A838B839C83CE01EA
:1057C00001960E94C8BA0F900F900F900F90DF9132
:1057D000CF9108950F94E66D2AE037ED43E25DE343
:1057E0000F94447520E030E0A9010F946874D9CF7C
:1057F000CF92DF92EF92FF92CF93DF9300D01F9270
:10580000CDB7DEB76B017C0120E030E0A9010F9439
:10581000E06D87FD1BC067E177EB81E598E3A701A9
:1058200096010F94687469837A838B839C83CE017D
:1058300001960E94C8BA0F900F900F900F90DF91C1
:10584000CF91FF90EF90DF90CF90089567E177EBD5
:1058500081E598EBE4CF0F94E66D2AE037ED43E263
:105860005DE30F94447520E030E0A9010F94687463
:10587000BFCF0F94E66D20E030E0A9010F9468746B
:10588000B7CFEF92FF920F931F93CF93DF9300D088
:1058900000D01F921F92CDB7DEB78E010F5F1F4F52
:1058A000D80130E020E0FB01E20FF31FE491ED931B
:1058B0002F5F3F4F28303105B1F7877028E0829F76
:1058C000C001112480640F949338780188E0E80EB9
:1058D000F11CF80161918F018FEA95E10E94D6F6E3
:1058E000E016F106B1F728960FB6F894DEBF0FBEAA
:1058F000CDBFDF91CF911F910F91FF90EF90089551
:10590000CF92DF92EF92FF920F931F93CF93DF938B
:1059100000D000D0CDB7DEB78A0146E0469F9001A7
:10592000479F300D1124BC01620F731F46E050E009
:10593000CE0101960F941F6DC980DA80EB80FC8048
:10594000F80140815181628173818FEF9FEFC4160E
:10595000D506E606F70640F081E090E04C155D05BF
:105960006E057F0508F080E026960FB6F894DEBF3E
:105970000FBECDBFDF91CF911F910F91FF90EF90A0
:10598000DF90CF9008950F931F93CF93DF93CDB700
:10599000DEB72E970FB6F894DEBF0FBECDBF8A01DB
:1059A0001E861D866F83788789879A872FEF2B87BE
:1059B000603871058105910538F48FEA95E10E9400
:1059C000D6F681E090E02FC09E01235F3F4FAE01ED
:1059D000495F5F4F69EB70E08DE39AE10F943F38C8
:1059E00097FD2CC08D859E8526E0289FB001299FBC
:1059F000700D1124635C754E46E050E0CE010196B7
:105A00000F941F6D6D818FEA95E10E94D6F60130EB
:105A10001105B9F26E816623A1F28FEA95E10E9429
:105A2000D6F682E090E02E960FB6F894DEBF0FBE59
:105A3000CDBFDF91CF911F910F9108959E01235FFC
:105A40003F4FAE01495F5F4F60E670E08DEF97E139
:105A50000F943F3897FD0BC08D859E8526E0289FCB
:105A6000B001299F700D11246350784EC5CF6FE3AC
:105A7000A4CF63E00D94543FCF92DF92EF92FF9258
:105A80000F931F93CF93DF936B017A01EC01CE56F6
:105A9000DB4F28813CE0389F8001399F100D112495
:105AA00027FF24C0FB011182108288818F5F8883C9
:105AB00088819801280F311D87FD3A95C9012091F1
:105AC0005415F6012817190629F024F088818C3026
:105AD0000CF43CC080819181049680349C4908F488
