:100000000C94F2390C94233A0C94233A0C94233A2E
:100010000C94233A0C94233A0C94233A0C94233AEC
:100020000C94233A0D9436A30D9436A30D9436A365
:100030000C94233A0D94E99D0C94233A0C94233AA2
:100040000C94233A0C948B3F0C94233A0C94233A4F
:100050000C94233A0C94233A0D9488AE0D94ECA2A0
:100060000C94233A0D94187C0D940E7C0C94233A36
:100070000C94233A0C94233A0C94233A0C94233A8C
:100080000C94233A0C94233A0C94233A0C94233A7C
:100090000C94233A0C94233A0C94233A0C94233A6C
:1000A0000C94233A0C94233A0C94233A0C94233A5C
:1000B0000C94233A0C94233A0C94233A0C94233A4C
:1000C0000C94233A0C94233A0C94233A0C94233A3C
:1000D0000C94233A0C94233A0C94233A0C94233A2C
:1000E0000C94233A084AD73B3BCE016E84BCBFFD3B
:1000F000C12F3D6C74319ABD56833DDA3D00C77FF8
:1001000011BED9E4BB4C3E916BAAAABE0000008090
:100110003F05A84CCDB2D44EB93836A9020C50B91F
:10012000918688083CA6AAAA2ABE000000803F0744
:10013000634236B79BD8A71A39685618AEBAAB5582
:100140008C1D3CB7CC5763BD6DEDFD753EF6177247
:1001500031BF000000803F08000000BE9224491219
:100160003EABAAAA2ABECDCCCC4C3E00000080BE3D
:10017000ABAAAAAA3E00000000BF000000803F001A
:1001800000000000084178D3BB4387D1133D190E0E
:100190003CC3BD4282AD2B3E68EC8276BED98FE176
:1001A000A93E4C80EFFFBE01C4FF7F3F000000006E
:1001B00000000D94708F0D94FC8E0D9458310D94A9
:1001C0009E1F0D94F9200D94E48F0D94688D0D946D
:1001D000F08E0D9489B20D94D3910D9479910D9474
:1001E00047110D94FF8E0D94138F0D949E3A0D942C
:1001F0003E910D9408010D94F69F0D94E29F0D948D
:10020000178F0D945EB20D94F5130D9467230D9422
:100210004B230D941D8F0D94DA130D94CB900D94F8
:1002200078290D94258F0D94961F0D94AE210D9471
:10023000F48E0D9437A00D9416090D9444110D946D
:1002400080120D9423A00D940F8F0D949D0B0D948F
:1002500057230D9432A10D94588F0D948EB20D94A6
:10026000708E0D94950B0D9476B20D9496A00D940E
:1002700041A00D942A0F0D94C89F0D94F88E0D94F3
:1002800001270D94718F0D94E9130D94B0210D94F5
:10029000A5B00D94A8010D9419A00D94E0130D9430
:1002A00052B20D94098F0D94AD0B0D9412090D945B
:1002B000DD130D94A2350D94078B0D94B49F0D940E
:1002C000B0070D9402010D9430040D94508A0D94E2
:1002D000530D0D94AF9F0D941C910D94DA9F0D94C6
:1002E00061230D94ED180D942B8F0D940E090D9430
:1002F000D29F0D94058F0D94EC130D94FE020D9476
:1003000084120D94B2210D94EF420D943A230D9472
:10031000A79F0D94A2030D9468910D94E3900D9402
:10032000981F0D942A250D945A230D94872D0D9412
:1003300070910D947F140D940E000D942A8F0D94DE
:100340004F0D0D944D310D9445230D9454230D9470
:1003500064230D9454050D9464910D94AE070D948F
:10036000E6130D9451230D9400A00D9460910D940B
:10037000B2070D94B3020D945D310D94C3900D94AA
:10038000FD250D9462310D9448230D949C1F0D940E
:100390004B0D0D94BB210D946F8E0D941FB90D94D0
:1003A00083380D94EF130D94F9900D945D160D9410
:1003B000EA8E0D94470D0D94A50B0D94218F0D948D
:1003C000D42B0D94381E0D944E230D9453310D945F
:1003D000F2130D9495B00D94CE370D94498A0D9477
:1003E00067310D94B4210D949A1F0D9488120D94C9
:1003F00071B20D940FA00D94188C0D94350A0D94C4
:100400008D0B0D942F8F0D94071D0D949F8E0D94C1
:10041000CD8F0D94718D0D94B6210D94E3130D9431
:100420002DA00D94EC9F0D9438330D94C70D0D94B1
:10043000BE9F0D945F230D94818D0D94F8130D9440
:10044000B7A20D94022A4E414E494E495459494E85
:1004500046CDCCCC3D0AD7233C17B7D13877CC2B2F
:10046000329595E6241FB14F0A000020410000C8D4
:100470004200401C4620BCBE4CCA1B0E5AAEC59D55
:100480007400407A10F35A00A0724E18090010A5AB
:10049000D4E80000E87648170000E40B540200009E
:1004A000CA9A3B000000E1F5050000809698000024
:1004B0000040420F000000A086010000001027004D
:1004C000000000E803000000006400000000000AD3
:1004D00000000000000100000000002C76D888DC3D
:1004E000674F0823DFC1DFAE59E1B1B796E5E3E41A
:1004F00053C63AE651997696E8E6C28426EB898C93
:100500009B62ED407C6FFCEFBC9C9F40F2BAA56FF4
:10051000A5F490055A2AF75C936B6CF9676DC11BC3
:10052000FCE0E40D47FEF520E6B500D0ED902E038B
:1005300000943577050080841E080000204E0A00D4
:100540000000C80C333333330F986E12831141EF20
:100550008D2114893BE65516CFFEE6DB18D1844B7E
:10056000381BF77C1D901DA4BBE424203284725EEE
:10057000228100C9F124ECA1E53D271FE0201023D2
:1005800010249010A011202210241037B00840042D
:100590008003001FE02010211023101520112021BE
:1005A00010211031300840048003001FE03FF03C70
:1005B000F03B701F601EE03DF03BF038700FC0074D
:1005C0008003001FE03FF03EF03CF01AE01EE03EEA
:1005D000F03EF03EF00FC0078003005072696E7469
:1005E00020506175736564004D657368204C6576B5
:1005F000656C696E670045646974204D65736800B9
:1006000056616C6964617465204D6573680047329A
:100610003920493939390A473239205032204220AD
:100620005430004D616E75616C6C79204275696C57
:1006300064204D657368004275696C64204D657374
:100640006800372E205361766520426564204D6531
:1006500073680047323920503420523939392054D8
:1006600000362E2046696E652054756E6520416CFB
:100670006C00352E2056616C6964617465204D658F
:1006800073680047323920503420523939392054A8
:1006900000342E2046696E652054756E6520416CCD
:1006A0006C00332E2056616C6964617465204D6561
:1006B00073680047323920503320543000322E20E6
:1006C000536D6172742046696C6C2D696E004732FF
:1006D000380A47323920503100312E204275696C7A
:1006E0006420436F6C64204D65736800556E6966C5
:1006F00069656420426564204C6576656C696E6747
:10070000004661646520486569676874004732394E
:100710002057004F75747075742055424C20496EF7
:10072000666F0055424C20546F6F6C73004F7574A8
:10073000707574204D657368204D6170004D657350
:10074000682053746F72616765004D65736820455A
:1007500064697400537465702D42792D537465700B
:100760002055424C0047323920410041637469767C
:100770006174652055424C0047323920440044657D
:1007800061637469766174652055424C004D6F74E5
:10079000696F6E002568753A25303268750025301E
:1007A0003268753A253032687500256875642025F1
:1007B000303268753A2530326875002020202020BC
:1007C000202000202020200093057B05C305AB05D9
:1007D0003FFFF038007030FC3020FC1020781020F3
:1007E00030102C00D02E31D02F7BD02F7BD02E314B
:1007F000D02C00D020301020781020FC1030FC309D
:100800003800703FFFF03FFFF03800703186302332
:1008100087102787902F87D02F03D0203010207883
:10082000102078102030102F03D02F87D0278790EA
:100830002387103186303800703FFFF01FFFF81F0C
:10084000FFF804104002082002082004104008208D
:10085000801041001041000820800410400000007A
:100860001FFFF81FFFF85A38523220526561647931
:100870002E005072696E74696E672E2E2E004D32F6
:100880003520500A4D323400506175736520507226
:10089000696E7400290A002062797465733B2063D5
:1008A0007263200053657474696E67732053746FAC
:1008B0007265642028004E6F20454550524F4D2EE2
:1008C0000A00454550524F4D206461746173697A46
:1008D00065206572726F722E0A003F4D6573682045
:1008E000746F6F2062696720666F722045455052B1
:1008F0004F4D2E0A0055424C2072657365740A00F4
:10090000206C6F616465642066726F6D2073746F14
:10091000726167652E0A004D65736820002E0A001B
:100920003F43616E277420656E61626C6520002014
:10093000696E697469616C697A65642E0A0A0029B6
:100940000A002062797465733B2063726320002083
:1009500073746F7265642073657474696E67732055
:100960007265747269657665642028002028636169
:100970006C63756C6174656429210A0020213D2037
:1009800000454550524F4D20435243206D69736DD1
:1009900061746368202D202873746F726564292048
:1009A000002053697A653A2000496E6465783A20E0
:1009B00000204D61726C696E3D563736290A00453C
:1009C0004550524F4D2076657273696F6E206D6988
:1009D000736D617463682028454550524F4D3D004A
:1009E0004E6F20454550524F4D2E0A0045455052FE
:1009F0004F4D20496E697469616C697A65640A00BB
:100A00004D65736820736176656420696E20736C30
:100A10006F7420003F556E61626C6520746F2073A7
:100A2000617665206D65736820646174612E0A00CB
:100A300020736C6F743D00206D65736865735F652E
:100A40006E643D004532454E443D00206D6573683F
:100A500020736C6F747320617661696C61626C6580
:100A60002E0A003F496E76616C696420736C6F7466
:100A70002E0A004D657368206C6F616465642066A2
:100A8000726F6D20736C6F7420003F556E61626CE5
:100A90006520746F206C6F6164206D6573682064DD
:100AA0006174612E0A0048617264636F646564203A
:100AB00044656661756C742053657474696E677300
:100AC000204C6F616465640A0000004843000048E0
:100AD000430000A040000048420000A0420000A0E7
:100AE000420000C8430080BD42E2040000E204006E
:100AF000006400000088130000556E696669656433
:100B000020426564204C6576656C696E67003B2009
:100B1000003A0A0020204D3930360020204D35366D
:100B2000392053310020204D3630332000546F6F70
:100B30006C2D6368616E67696E673A0020550054DA
:100B400031204C002055005430204C0046696C6127
:100B50006D656E74206C6F61642F756E6C6F61646F
:100B6000206C656E677468733A00204B0020204D3E
:100B70003930302054004C696E65617220416476D2
:100B8000616E63653A00493100447269766572208E
:100B90007374657070696E67206D6F64653A0020CC
:100BA00049310053746570706572206472697665AE
:100BB000722063757272656E743A0020204D38356C
:100BC000312058005A2D50726F6265204F6666734F
:100BD00065740020204D3230392053004175746F08
:100BE0002D526574726163743A20533D3020746FE6
:100BF0002064697361626C652C203120746F2069F8
:100C00006E7465727072657420452D6F6E6C7920FC
:100C10006D6F7665732061732072657472616374A1
:100C20002F7265636F7665720020460020570020A2
:100C3000204D3230382053005265636F7665723A2A
:100C400020533C6C656E6774683E20463C756E6947
:100C500074732F6D3E0020460020570020204D3237
:100C60003037205300526574726163743A20533CEC
:100C70006C656E6774683E20463C756E6974732FB0
:100C80006D3E205A3C6C6966743E00204400204949
:100C90000020500020204D33303120450050494481
:100CA0002073657474696E67733A002046002042B1
:100CB0000020480020204D3134352053004D617410
:100CC000657269616C20686561747570207061720D
:100CD000616D65746572733A00206D657368657344
:100CE0002E0A0A00454550524F4D2063616E206820
:100CF0006F6C642000416374697665204D6573688C
:100D000020536C6F743A200020204D343230205331
:100D1000000020580020204D323138205400486F08
:100D200074656E64206F6666736574733A00202084
:100D30004D323036205800486F6D65206F666673FF
:100D400065743A00204A0020530020204D3230358F
:100D5000204200416476616E6365643A20423C6DD6
:100D6000696E5F7365676D656E745F74696D655FED
:100D700075733E20533C6D696E5F66656564726194
:100D800074653E20543C6D696E5F74726176656C6B
:100D90005F66656564726174653E204A3C6A756E83
:100DA000635F6465763E0020520020204D3230346F
:100DB000205000416363656C65726174696F6E20D9
:100DC00028756E6974732F7332293A20503C707203
:100DD000696E745F616363656C3E20523C7265743A
:100DE000726163745F616363656C3E20543C74722E
:100DF0006176656C5F616363656C3E0020204D32F7
:100E000030312058004D6178696D756D2041636304
:100E1000656C65726174696F6E2028756E69747394
:100E20002F7332293A0020204D3230332058004DA4
:100E30006178696D756D206665656472617465734E
:100E40002028756E6974732F73293A005374657086
:100E5000732070657220756E69743A0020204D32DF
:100E600030302044300A0020440020540020204D1F
:100E7000323030002044697361626C65640A004658
:100E8000696C616D656E742073657474696E6773E7
:100E90003A0020204D3134392043203B20556E69E3
:100EA000747320696E2043656C736975730A002042
:100EB000286D6D29002020473231202020203B2042
:100EC000556E69747320696E206D6D006F70656E6C
:100ED00000545249474745524544003A20007A5F42
:100EE00070726F6265007A5F6D6178007A5F6D691C
:100EF0006E00795F6D696E00785F6D696E00526596
:100F0000706F7274696E6720656E6473746F7020A1
:100F10007374617475730A00000091430000964376
:100F20000000C843000018C20000E0C0000000003C
:100F300020746F6F206C6F6E6720657874727573A4
:100F4000696F6E2070726576656E7465640A002044
:100F5000636F6C6420657874727573696F6E20704E
:100F6000726576656E7465640A00486F6D696E67B8
:100F7000204661696C656400000018C20000E0C092
:100F8000000000000000484200004842000080408D
:100F90005761726E696E673A20486F6D696E67209F
:100FA00042756D702044697669736F72203C203100
:100FB0000A000202040000A0400000A0400000005F
:100FC000400000A443008099430000C843FFFFFF96
:100FD0000000000100000001000080005555550090
:100FE0000000400033333300AAAA2A0049922400AB
:100FF00000002000C7711C0099991900D145170005
:10100000555515003BB11300244912001111110070
:10101000000010000F0F0F00E3380E0043790D00A1
:10102000CCCC0C00C3300C00E8A20B0064210B00F8
:10103000AAAA0A00703D0A009DD80900427B090057
:1010400092240900DCD308008888080010420800B8
:1010500000000800F0C107008787070075500700EF
:10106000711C07003EEB0600A1BC0600699006005B
:1010700066660600703E06006118060017F405005B
:1010800074D105005BB00500B290050062720500E6
:101090005555050078390500B81E05000505050001
:1010A0004EEC040087D40400A1BD040090A7040006
:1010B00049920400C17D0400EE690400C756040093
:1010C000444404005C320400082104004110040080
:1010D000000004003FF00300F8E0030026D2030004
:1010E000C3C30300CCB503003AA803000A9B030066
:1010F000388E0300C08103009F750300D069030090
:10110000505E03001D53030034480300913D03006B
:101110003333030016290300381F0300971503001B
:10112000300C0300030303000BFA020049F1020034
:10113000BAE802005CE002002DD802002DD00200C7
:1011400059C80200B0C0020031B90200DAB1020091
:10115000AAAA0200A0A30200BC9C0200FA95020009
:101160005C8F0200DF88020082820200457C020060
:101170002776020027700200436A02007C640200A6
:10118000D05E02003F590200C853020020746F6F06
:10119000206C6F6E6720657874727573696F6E204E
:1011A00070726576656E7465640A0020636F6C64A6
:1011B00020657874727573696F6E207072657665DC
:1011C0006E7465640A00206C696D697465642074CE
:1011D0006F2000204D61782000FFFDFCFAF8F6F446
:1011E000F2F0EEECEAE9E7E5E3E1E0DEDCDAD9D7BC
:1011F000D5D4D2D0CFCDCBCAC8C7C5C3C2C0BFBD5E
:10120000BCBAB9B7B6B4B3B2B0AFADACAAA9A8A6D0
:10121000A5A4A2A1A09E9D9C9A999897959493921B
:10122000908F8E8D8B8A8988878684838281807F48
:101230007E7D7B7A797877767574737271706F6E54
:101240006D6C6B6A696867666564636261605F5E46
:101250005D5C5B5A5958585756555453525150502B
:101260004F4E4D4C4B4A4A494847464645444342F7
:101270004241403F3E3E3D3C3B3B3A3938383736B1
:101280003535343332323130302F2E2E2D2C2B2B5E
:101290002A292928272726252524232322212120FE
:1012A000201F1E1E1D1C1C1B1B1A1919181817168F
:1012B00016151514131312121111100F0F0E0E0D17
:1012C0000D0C0C0B0A0A0909080807070606050594
:1012D00004040303020201000024F4D43050C38E3E
:1012E00020C2A24017828B7011127A910D816CD9A5
:1012F0000AA861E108C7586607615143061E4B5DA5
:1013000005C145A7041A411104093D9803713931FB
:10131000034036DB0265339102D4305402802E1D27
:1013200002632CEE01752AC501B028A001102781A7
:10133000018F2564012B244B01E0223401AC211FD5
:10134000018D200D01801FFC00841EED00971DDF24
:1013500000B81CD200E61BC600201BBC00641AB2F9
:1013600000B219A8000A19A0006A189900D11791B3
:101370000040178B00B516840031167E00B3157936
:10138000003A157300C7146F0058146A00EE136614
:10139000008813630025135E00C7125B006C1257B0
:1013A0000015125400C111510070114F0021114B52
:1013B00000D61049008D104700461044000210422C
:1013C00000C00F4000800F3E00420F3C00060F3B64
:1013D00000CB0E3800930E37005C0E3500270E341C
:1013E00000F30D3200C10D3100900D3000600D2E64
:1013F00000320D2D00050D2C00D90C2B00AE0C2950
:1014000000850C29005C0C2700350C27000E0C26EB
:1014100000E80B2400C40B2400A00B23007D0B2349
:10142000005A0B2100390B2100180B2000F80A1F6D
:1014300000D90A1E00BB0A1E009D0A1D00800A1D5D
:1014400000630A1C00470A1B002C0A1B00110A1A21
:1014500000F7091A00DD091900C4091900AB0919C0
:1014600000920917007B091800630917004C091640
:101470000036091600200916000A091500F508159E
:1014800000E0081400CC081400B8081400A40814E4
:1014900000900813007D0812006B08130058081212
:1014A0000046081200340811002308110012081128
:1014B0000001081100F0071000E0071000D007102D
:1014C00000C0071000B0070F00A107100091070E21
:1014D0000083070F0074070F0065070E0057070E03
:1014E0000049070E003B070D002E070E0020070DD8
:1014F0000013070D0006070D00F9060C00ED060DA0
:1015000000E0060C00D4060C00C8060C00BC060C5B
:1015100000B0060C00A4060B0099060C008D060B0B
:101520000082060B0077060B006C060B0061060AB2
:101530000057060B004C060A0042060A0038060A4D
:10154000002E060A0024060A001A060A00100609E0
:101550000007060A00FD050900F4050900EB05096E
:1015600000E2050900D9050900D0050900C70509F1
:1015700000BE050900B5050800AD050800A5050970
:10158000009C050800940508008C050800840508E7
:10159000007C050800740508006C05070065050857
:1015A000005D050700560508004E050700470507C2
:1015B000004005080038050700310507002A050727
:1015C00000230507001C050600160507000F050788
:1015D000000805060002050700FB040600F50407E5
:1015E00000EE040600E8040600E2040700DB04063F
:1015F00000D5040600CF040600C9040600C3040693
:1016000000BD040600B7040600B1040500AC0406E2
:1016100000A6040600A00405009B0406009504052E
:1016200000900406008A0405008504050080040675
:10163000007A04050075040500700405006B0405BC
:101640000066040500610405005C040500570405FC
:1016500000520405004D040500480405004304053C
:10166000003E0404003A040500350405003004047B
:10167000002C04050027040400230405001E0404B4
:10168000001A04040016040500110404000D0404EB
:1016900000090405000404040000040400FC030421
:1016A00000F8030400F4030400F0030400EC030456
:1016B00000E8030400E4030400E0030400DC030486
:1016C00000D8030400D4030400D0030400CC0304B6
:1016D00000C8030300C503030024F404D9201BC47D
:1016E0000C5C0E9804C4095F0265077101F405F9EA
:1016F00000FB04B30048048700C103690058035588
:101700000003034500BE023A008402310053022A5E
:10171000002902250004022000E4011C00C8011970
:1017200000AF01170098011400840113007101102B
:10173000006101100051010E0043010D0036010B44
:10174000002B010B0020010B00150109000C010901
:101750000003010800FB000800F3000800EB00078D
:1017600000E4000600DE000600D8000600D20006F5
:1017700000CC000500C7000500C2000500BD000444
:1017800000B9000400B5000400B1000400AD00047D
:1017900000A9000400A5000300A20003009F0004AC
:1017A000009B0003009800030095000200930003D3
:1017B00000900003008D0002008B000300880002EF
:1017C000008600020084000300810002007F000206
:1017D000007D0002007B000200790002007700011A
:1017E0000076000200740002007200010071000225
:1017F000006F0002006D0001006C0002006A000131
:101800000069000200670001006600010065000138
:10181000006400020062000100610001006000013C
:10182000005F0002005D0001005C0001005B000140
:10183000005A000100590001005800010057000142
:101840000056000100550001005400010053000043
:10185000005300010052000100510001005000013E
:10186000004F0001004E0000004E0001004D00013D
:10187000004C0001004B0000004B0001004A000139
:101880000049000100480000004800010047000135
:101890000046000000460001004500000045000130
:1018A000004400010043000000430001004200002A
:1018B0000042000100410000004100010040000121
:1018C000003F0000003F0001003E0000003E00011C
:1018D000003D0000003D0001003C0000003C000015
:1018E000003C0001003B0000003B0001003A00000A
:1018F000003A000100390000003900010038000002
:1019000000380000003800010037000000370001F7
:1019100000360000003600000036000100350000EF
:1019200000350000003500010034000000340000E4
:1019300000340001003300000033000000330001D8
:1019400000320000003200000032000100310000CF
:1019500000310000003100010030000000300000C4
:1019600000300001002F0000002F0000002F0000B9
:10197000002F0001002E0000002E0000002E0001AC
:10198000002D0000002D0000002D0000002D0001A2
:10199000002C0000002C0000002C0000002C000196
:1019A000002B0000002B0000002B0000002B00018A
:1019B000002A0000002A0000002A0000002A00017E
:1019C0000029000000290000002900000029000073
:1019D0000029000100280000002800000028000065
:1019E0000028000000280001002700000027000058
:1019F000002700000027000000270001002600004B
:101A0000002600000026000000260000002600013D
:101A10000025000000250000002500000025000032
:101A20000025000000250001002400000024000023
:101A30000024000000240000002400010023000016
:101A4000002300000023000000230000002300000A
:101A500000230000002300010022000000220000FB
:101A600000220000002200000022000000220001ED
:101A700000210000002100000021000000210000E2
:101A800000210000002100000021000100200000D2
:101A900000200000002000000020000000200000C6
:101AA000002000000020000000200001001F0000B6
:101AB000001F0000001F0000001F0000001F0000AA
:101AC000001F0000001F0001001E0000001E00009B
:101AD000001E0000001E000000232C0000B82200A1
:101AE00000561800003A0F0000B8080000B10400CA
:101AF00000710200003E01000020436F756E7420EB
:101B0000583A005A325F53455249414C5F52585F30
:101B100050494E005A325F53455249414C5F545828
:101B20005F50494E005A5F53455249414C5F5258ED
:101B30005F50494E005A5F53455249414C5F5458DB
:101B40005F50494E00595F53455249414C5F5258CE
:101B50005F50494E00595F53455249414C5F5458BC
:101B60005F50494E00585F53455249414C5F5258AF
:101B70005F50494E00585F53455249414C5F54589D
:101B80005F50494E005A5249425F5632305F4439E5
:101B90005F50494E005A5249425F5632305F4436D8
:101BA0005F50494E005A5F4D494E5F50524F42457B
:101BB0005F50494E005A325F535445505F50494E72
:101BC000005A325F454E41424C455F50494E005AE3
:101BD000325F4449525F50494E005A325F43535F6F
:101BE00050494E005A5F53544F505F50494E005A6F
:101BF0005F535445505F50494E005A5F4D494E5F08
:101C000050494E005A5F4D41585F50494E005A5F4F
:101C1000454E41424C455F50494E005A5F4449523F
:101C20005F50494E00595F53544F505F50494E002A
:101C3000595F535445505F50494E00595F4D494ECE
:101C40005F50494E00595F454E41424C455F5049F7
:101C50004E00595F4449525F50494E00585F5354FB
:101C60004F505F50494E00585F535445505F5049A4
:101C70004E00585F4D494E5F50494E00585F454EEB
:101C800041424C455F50494E00585F4449525F50B5
:101C9000494E0053535F50494E00534552564F33FF
:101CA0005F50494E00534552564F325F50494E00E7
:101CB000534552564F315F50494E00534552564F8F
:101CC000305F50494E00534453530053445F4445E2
:101CD000544543545F50494E0053434B5F50494E67
:101CE0000052414D50535F44395F50494E005241BC
:101CF0004D50535F44385F50494E0052414D505350
:101D00005F4431305F50494E004D4F53495F504959
:101D10004E004D4F534645545F445F50494E004D71
:101D200049534F5F50494E004D4158363637355F65
:101D300053535F50494E004C45445F50494E004C50
:101D400043445F50494E535F5253004C43445F50ED
:101D5000494E535F454E41424C45004C43445F5011
:101D6000494E535F4437004C43445F50494E535FE4
:101D70004436004C43445F50494E535F4435004C59
:101D800043445F50494E535F4434004B494C4C5FD1
:101D900050494E004845415445525F4245445F50CA
:101DA000494E004845415445525F315F50494E000D
:101DB0004845415445525F305F50494E0046414EC0
:101DC0005F50494E0045315F535445505F50494E76
:101DD0000045315F454E41424C455F50494E0045FC
:101DE000315F4449525F50494E0045315F4155547F
:101DF0004F5F46414E5F50494E0045305F5354455A
:101E0000505F50494E0045305F454E41424C455F62
:101E100050494E0045305F4449525F50494E00459D
:101E2000305F4155544F5F46414E5F50494E00452B
:101E30005F4D5558325F50494E00455F4D55583102
:101E40005F50494E00455F4D5558305F50494E0038
:101E5000444F474C43445F53434B00444F474C432C
:101E6000445F4D4F53490042544E5F454E4300423C
:101E7000544E5F454E320042544E5F454E31004253
:101E800045455045525F50494E004156525F5353AD
:101E90005F50494E004156525F53434B5F50494E8D
:101EA000004156525F4D4F53495F50494E004156D5
:101EB000525F4D49534F5F50494E005458443000D3
:101EC0005258443000434F4D4D554E4943415449BB
:101ED0004F4E0044525952554E004552524F5253A4
:101EE00000494E464F004543484F004732385A009C
:101EF00041636375726163793A2000206F66200048
:101F000044696420004733342061626F72746564F1
:101F10002E0A005461726765742061636375726193
:101F200063792061636869657665642E0A0044659B
:101F30006372656173696E67206163637572616363
:101F4000792064657465637465642E0A000A4449E7
:101F500046464552454E4345205A312D5A323D00A2
:101F600050726F62696E67206661696C65642E0AE3
:101F7000000A495445524154494F4E3A20003F28E7
:101F800041296D706C696669636174696F6E206F59
:101F90007574206F6620626F756E64732028302E12
:101FA000352D322E30292E0A003F285429617267C0
:101FB0006574206163637572616379206F75742045
:101FC0006F6620626F756E64732028302E30312D5D
:101FD000312E30292E0A003F284929746572617418
:101FE000696F6E206F7574206F6620626F756E6406
:101FF000732028312D3330292E0A003F28592920FB
:102000006F7574206F6620626F756E64732E0A00A0
:102010003F285829206F7574206F6620626F756E97
:1020200064732E0A003F285329205A2D50726F6284
:1020300065506F736974696F6E20696E646578208E
:10204000696E76616C69642E0A003F285329206905
:10205000732072657175697265642E0A004D3432A1
:1020600032205300446576696174696F6E002553B0
:102070003A202573005374616E6461726420446574
:1020800076696174696F6E3A20002052616E6765EF
:102090003A2000204D61783A2000204D696E3A20A8
:1020A000004D65616E3A200046696E69736865642B
:1020B000210A002072616E67653A2000206D617808
:1020C0003A2000206D696E3A2000207369676D61C7
:1020D0003A2000206D65616E3A20003A207A3A205D
:1020E00000206F662000476F696E6720746F3A208A
:1020F000580043570A00206469723A0020616E67F5
:102100006C653A005374617274207261646975730E
:102110003A004D343820506F696E740025533A20D0
:1021200025642F256400506F736974696F6E696E42
:1021300067207468652070726F62652E2E2E0A000B
:102140003F4E756D626572206F66206C6567732007
:10215000696E206D6F76656D656E74206E6F74208C
:10216000706C61757369626C652028302D3135297A
:102170002E0A003F2028582C5929206F7574206F93
:102180006620626F756E64732E0A003F53616D7036
:102190006C652073697A65206E6F7420706C617550
:1021A0007369626C652028342D3530292E0A004D64
:1021B0003438205A2D50726F626520526570656107
:1021C000746162696C69747920546573740A003FA4
:1021D0002856296572626F7365206C6576656C2080
:1021E000696D706C61757369626C652028302D347F
:1021F000292E0A0050574D3A2020253464005057AC
:102200004D3A20202534640050574D3A2020253483
:10221000640050574D3A20202534640050574D3A01
:1022200020202534640050574D3A20202534640086
:1022300050574D3A20202534640050574D3A202005
:102240002534640050574D3A2020253464005057FF
:102250004D3A20202534640050574D3A2020253433
:10226000640050574D3A20202534640050574D3AB1
:1022700020202534640050574D3A20202534640036
:1022800050574D3A20202534640050574D3A2020B5
:10229000253464003A200020202020434F4D0020A8
:1022A00020206E6F6E2D7374616E646172642050B5
:1022B000574D206D6F646500202020636F6D706145
:1022C000726520696E7465727275707420656E61D6
:1022D000626C6564002020206F766572666C6F7793
:1022E00020696E7465727275707420656E61626CBF
:1022F0006564003A20002020202054494D534B00B3
:10230000423A2000202020205443435200413A20EA
:1023100000202020205443435200202020204353FB
:102320003A20002020202057474D3A200050574D9A
:102330003A20202534640050574D3A20202534643B
:102340000047004800000088008A008C00B300B4F9
:1023500000000098009A009C00A800AA00AC002889
:10236000012A012C012020202054494D45520044CF
:102370000045006E00800081006F00B000B1007069
:1023800000900091007100A000A1007200200121C6
:1023900001730020697320616C736F207469656438
:1023A00020746F20746869732070696E0054494D01
:1023B00045523143000A202E002020002020506F7B
:1023C00072743A200020202000202020416E616C91
:1023D0006F6720696E203D2025356C64003C756E6A
:1023E000757365642F756E6B6E6F776E3E00202877
:1023F0004125326429202000253364200050494EB5
:102400003A20004F7574707574203D2000496E703D
:10241000757420203D2000416E616C6F6720696EED
:10242000203D2025356C640070726F74656374659F
:1024300064200020284125326429202000253364AF
:10244000200050494E3A2000C01E0001BB1E010171
:10245000AE1E3201A11E3301951E34018A1E3501C4
:102460007F1E2501771E1F016F1E2101671E23019C
:102470005B1E3301501E3401451E28013A1E2A01FD
:102480002F1E2C011F1E0601141E0501061E16011B
:10249000FA1D0401EA1D0601DF1D2201D11D1E01E6
:1024A000C51D2401BD1D0901B01D0A01A31D0701A1
:1024B000941D08018B1D29017F1D1701731D190132
:1024C000671D1B015B1D1D014B1D11013F1D1001EF
:1024D000371D0D01281D42011F1D3201121D07016C
:1024E000091D3301FB1C0A01EE1C0801E11C090156
:1024F000D91C3401CB1C3101C61C3501BB1C0B019E
:10250000B01C0601A51C05019A1C0401931C350191
:10251000891C37017C1C2601721C0301671C3601D3
:102520005C1C0301521C3D01451C38013B1C0E0183
:10253000301C3C01251C0E011B1C30010E1C3E01F1
:10254000041C1301FA1B1201EF1B2E01E41B1201E4
:10255000DA1B2A01CF1B1C01C11B1801B51B1A0174
:10256000A51B1301951B0601851B0901751B28017D
:10257000651B3F01551B3B01451B4001351B2A01D3
:10258000251B4101141B2C01031B4201446F6E6586
:102590002E0A0050756C73696E6720202000556EFE
:1025A000746F75636865642000534552564F206E02
:1025B0006F74207365742075702E0A005761746300
:1025C00068696E672070696E730A006469730065DC
:1025D0006E0061626C65640A00656E6473746F708E
:1025E000206D6F6E69746F7220004F4646004F4E2B
:1025F0000020204D61783A2000200020204D696E97
:102600003A2000536F667420656E6473746F707344
:102610003A2000290A00204B00285300204B0020BC
:102620005300416476616E63652054002E0A0020D9
:1026300028302D313029002076616C7565206F754A
:1026400074206F662072616E6765005761726E69F3
:102650006E67203A20436C65616E20436972636C3B
:10266000652072657175697265732058590A007327
:1026700070726561644379636C6500737465616C45
:10268000746843686F700020647269766572206DAB
:102690006F64653A09007370726561644379636CB5
:1026A0006500737465616C746843686F70002064C2
:1026B0007269766572206D6F64653A090073707295
:1026C0006561644379636C6500737465616C7468FB
:1026D00043686F700020647269766572206D6F6464
:1026E000653A09007370726561644379636C6500D3
:1026F000737465616C746843686F700020647269FC
:10270000766572206D6F64653A090020496E7661C6
:102710006C69642065787472756465722000473254
:102720002F47332062616420706172616D6574654A
:1027300072730A00536C6565702E2E2E00205A3A73
:10274000200020593A200042656420583A20004D6C
:1027500065736820706F696E742063616E6E6F744C
:10276000206265207265736F6C7665640A00436C45
:1027700069636B20746F20526573756D652E2E2E04
:10278000004E6F204D6F76652E0025697300256918
:102790006D20256973002569682025696D202569EC
:1027A0007300256964202569682025696D202569E5
:1027B00073002569792025696420256968202569C9
:1027C0006D20256973005072696E742074696D659F
:1027D0003A2000496E76616C69642050696E204D24
:1027E0006F64650A00436F6F6C696E672E2E2E0052
:1027F00048656174696E672E2E2E0045256320257D
:1028000053006F6B006F666600E61EE11EDA1ED392
:102810001EC51E44454255473A004D3131322053C2
:10282000687574646F776E004D3131332053004208
:10283000656420436F6F6C696E672E2E2E004265B3
:10284000642048656174696E672E2E2E005A3852D6
:1028500032204F46462E004348414D4245525F5478
:10286000454D5045524154555245004D4F54494FE6
:102870004E5F4D4F44455300544845524D414C5FC7
:1028800050524F54454354494F4E004155544F52B6
:1028900045504F52545F53445F5354415455530075
:1028A00050524F4D50545F535550504F5254004565
:1028B0004D455247454E43595F5041525345520092
:1028C000434153455F4C494748545F42524947484A
:1028D000544E45535300544F47474C455F4C49476E
:1028E00048545300534F4654574152455F504F5739
:1028F0004552004255494C445F50455243454E5461
:10290000004C4556454C494E475F44415441005A9E
:102910005F50524F4245004155544F4C4556454C2F
:10292000005052494E545F4A4F420050524F475256
:10293000455353004155544F5245504F52545F54E4
:10294000454D5000564F4C554D4554524943004556
:102950004550524F4D0042494E4152595F46494CF5
:10296000455F5452414E53464552005345524941EA
:102970004C5F584F4E5F584F4646004649524D57A0
:102980004152455F4E414D453A4D61726C696E2032
:10299000322E302E352E342028476974487562292E
:1029A00020534F555243455F434F44455F55524C6A
:1029B0003A68747470733A2F2F6769746875622E61
:1029C000636F6D2F4D61726C696E4669726D7761D0
:1029D00072652F4D61726C696E2050524F544F4397
:1029E0004F4C5F56455253494F4E3A312E30204D91
:1029F000414348494E455F545950453A5A3852323E
:102A00002045585452554445525F434F554E543A11
:102A10003220555549443A63656465326132662D0A
:102A2000343161322D343734382D396231322D63EF
:102A300035356336326633363766660A002F2F2007
:102A4000004D31343520533C696E6465783E206F0B
:102A50007574206F662072616E67652028302D3195
:102A6000290A00416363656C65726174696F6E0069
:102A70004665656472617465002052004163636558
:102A80006C65726174696F6E3A2050003F4A206F26
:102A90007574206F662072616E67652028302E3055
:102AA0003120746F20302E33290A00486F74656E10
:102AB00064206F6666736574733A0046523A00206C
:102AC000466C6F773A200050726F7465637465646A
:102AD0002050696E0A00496E76616C6964206578E1
:102AE0007472756465720A0020643A0020693A00C5
:102AF00020703A0020653A0064697300656E0043F7
:102B0000290A0061626C656420286D696E20746515
:102B10006D702000436F6C64206578747275646515
:102B2000732061726520004D65736820706F696E57
:102B3000742063616E6E6F74206265207265736FBE
:102B40006C7665640A004D34323120696E636F72B1
:102B50007265637420706172616D65746572207551
:102B6000736167650A004F66667365747320417010
:102B7000706C696564004572723A20546F6F20660C
:102B800061722100546F6F206661722066726F6DF2
:102B9000207265666572656E636520706F696E741C
:102BA0000A00454550524F4D204F4B0A0020647299
:102BB000697665722063757272656E743A200020C2
:102BC0006472697665722063757272656E743A20FC
:102BD00000206472697665722063757272656E7426
:102BE0003A2000206472697665722063757272659E
:102BF0006E743A2000446966663A200046726F6D32
:102C00005374703A00537465707065723A00556E73
:102C10004C6576656C3A004C6576656C65643A0087
:102C20005261773A20202020000A4C6F6769636167
:102C30006C3A00436F756E7420453A004361703AF8
:102C400000290A0020746F20003F5A206F757420FD
:102C50006F662072616E6765202800290A00207463
:102C60006F20003F59206F7574206F662072616E6F
:102C7000676520282D00290A0020746F20003F5826
:102C8000206F7574206F662072616E676520282D35
:102C90000050726F6265204F66667365742058003D
:102CA000220A00656E7175657565696E6720220080
:102CB0006F6B00526573656E643A2000236465662D
:102CC000696E652044454641554C545F004B642075
:102CD000004B6920004B702000504944204175741E
:102CE0006F74756E652066696E697368656421200E
:102CF00050757420746865206C617374204B702C5F
:102D0000204B6920616E64204B6420636F6E737486
:102D1000616E74732066726F6D2062656C6F7720D0
:102D2000696E746F20436F6E66696775726174694E
:102D30006F6E2E680A00504944204175746F747597
:102D40006E65206661696C6564212074696D656FCC
:102D500075740A00504944204175746F74756E652E
:102D6000206661696C6564212054656D70657261CF
:102D70007475726520746F6F20686967680A002037
:102D80004B643A2000204B693A2000204B703A20D7
:102D9000000A20436C617373696320504944200A20
:102DA00000204B643A2000204B693A2000204B70F1
:102DB0003A20000A204E6F206F76657273686F6F3D
:102DC000740A002054753A2000204B753A200020E8
:102DD0006D61783A2000206D696E3A200020643AD7
:102DE000200020626961733A2000504944204175F7
:102DF000746F74756E652073746172740A00504943
:102E000044204175746F74756E65206661696C65E8
:102E100064212054656D70657261747572652074EB
:102E20006F6F20686967680A0050494420417574D3
:102E30006F74756E65206661696C656421204261FE
:102E400064206578747275646572206E756D626554
:102E5000720A004572723A207574663820666F6E89
:102E600074206E6F7420696E697469616C697A652B
:102E7000642E004572723A207574663820666F6E53
:102E800074206E6F7420696E697469616C697A650B
:102E9000642E004572723A207574663820666F6E33
:102EA00074206E6F7420696E697469616C697A65EB
:102EB000642E004C6F61642046696C616D656E74B0
:102EC000202A004C6F6164206D6D00556E6C6F613F
:102ED000642046696C616D656E74202A00556E6CC5
:102EE0006F6164206D6D0046696C2E204469612E0F
:102EF000202A0046696C2E204469612E0045206915
:102F00006E206D6DC2B300416476616E6365204BC7
:102F1000202A004D33303320553120452569205378
:102F2000256900000C0D00FE07022603BC017FFE90
:102F300008FE08FE05080806000040F0C8888898CA
:102F40007810050808060000C0F88888888888F886
:102F50000505050600012030F830200508080600A8
:102F6000002070F820202020E00509090600FF203D
:102F700070A8A8B888887020050606060001E08CB5
:102F8000EA8C8A0A0509090600FFF8A8888888885B
:102F900088A8F8050A0A0600FE205050505088A85C
:102FA000A8887003030306000340A040FFFFFFFF53
:102FB000FFFFFFFFFFFFFFFFFFFFFFFFFFFFFFFF21
:102FC000FFFF0000000605FF0107070602008080E2
:102FD0008080800080030303060105A0A0A00506F1
:102FE0000606000050F85050F8500509090600FF89
:102FF0002070A8A07028A87020050707060000C848
:10300000C8102040989805070706000040A0A0407F
:10301000A890680103030602058080800309090661
:1030200001FF2040408080804040200309090601C4
:10303000FF80404020202040408005070706000018
:1030400020A8702070A8200505050600012020F8A2
:1030500020200203030601FFC04080050101060095
:1030600003F8020202060100C0C0050707060000BF
:10307000081010204040800507070600007088985F
:10308000A8C8887003070706010040C040404040C0
:10309000E0050707060000708808102040F80507C3
:1030A00007060000F80810300888700507070600BA
:1030B0000010305090F81010050707060000F88047
:1030C000F008088870050707060000304080F08887
:1030D0008870050707060000F8081010202020055A
:1030E0000707060000708888708888700507070643
:1030F000000070888878081060020505060100C08D
:10310000C000C0C00206060601FFC0C000C040806B
:103110000305050601012040804020050303060049
:1031200002F800F8030505060101804020408005F3
:1031300007070600007088102020002005070706FA
:1031400000007088B8A8B8807005070706000070F6
:103150008888F8888888050707060000F0484870C6
:103160004848F00507070600007088808080887056
:10317000050707060000F04848484848F0050707DB
:10318000060000F88080F08080F805070706000040
:10319000F88080F080808005070706000070888036
:1031A00080988870050707060000888888F8888856
:1031B00088030707060100E04040404040E0050763
:1031C0000706000038101010109060050707060071
:1031D000008890A0C0A090880507070600008080A6
:1031E00080808080F805070706000088D8A88888B6
:1031F00088880507070600008888C8A89888880579
:103200000707060000708888888888700507070609
:103210000000F08888F080808005070706000070B5
:10322000888888A89068050707060000F08888F05D
:10323000A0908805070706000070888070088870D5
:10324000050707060000F82020202020200507079A
:1032500006000088888888888870050707060000AF
:1032600088888888505020050707060000888888CD
:1032700088A8A850050707060000888850205088B5
:1032800088050707060000888850202020200507B1
:1032900007060000F80810204080F803090906011D
:1032A000FFE080808080808080E0050707060000C6
:1032B000804040201010080309090601FFE020208B
:1032C0002020202020E0050303060005205088056B
:1032D00001010600FEF803030306010580402005F6
:1032E00005050600007008788878050707060000C5
:1032F0008080F0888888F0050505060000708080D1
:10330000887005070706000008087888888878050F
:1033100005050600007088F08070050707060000AC
:10332000304840E04040400507070600FE708888AE
:10333000887808700507070600008080F088888874
:10334000880307070601004000C0404040E0040930
:10335000090601FE100030101010109060050707DC
:1033600006000080808890E090880307070601002F
:10337000C04040404040E0050505060000D0A8A838
:10338000A8A8050505060000B0C8888888050505B9
:1033900006000070888888700507070600FEF08820
:1033A0008888F080800507070600FE78888888787E
:1033B0000808050505060000B0C8808080050505E1
:1033C00006000078807008F005070706000020203E
:1033D000F8202020180505050600008888889868D0
:1033E00005050506000088888850200505050600AB
:1033F000008888A8A85005050506000088502050C0
:10340000880507070600FE8888885020408005054B
:1034100005060000F8102040F80309090601FF2006
:1034200040404080404040200109090602FF808062
:10343000808080808080800309090601FF804040F1
:1034400040204040408005030306000248A890FF4A
:10345000554E4C4F41442046494C414D454E540039
:103460004C4F41442046494C414D454E540046493D
:103470004C414D454E54204348414E47450050492C
:1034800044204175746F74756E65202A005049445C
:103490002D44202A005049442D49202A00504944F7
:1034A0002D50202A00200820466163740020082047
:1034B0004D6178002008204D696E004F6666004F10
:1034C0006E004175746F74656D700056547261764C
:1034D000204D696E00566D696E00566D617820450D
:1034E00000566D6178205A00566D6178205900565B
:1034F0006D6178205800416D6178204500416D6113
:1035000078205A00416D6178205900416D61782022
:103510005800412D54726176656C00412D526574DE
:103520007261637400416363656C004A756E637415
:10353000696F6E204465760050726F6265205A2074
:103540004F66667365740050726F62652059204F34
:1035500066667365740050726F62652058204F660E
:1035600066736574004573746570732F6D6D005AD2
:1035700073746570732F6D6D005973746570732F5C
:103580006D6D005873746570732F6D6D00416476B6
:10359000616E6365642053657474696E6773003F80
:1035A0000043616E63656C00496E6974004D34328E
:1035B0003800496E697469616C697A6520454550C7
:1035C000524F4D0046696C616D656E740054656DB7
:1035D000706572617475726500544D432044726960
:1035E000766572730053746570732F6D6D00507241
:1035F0006F6265204F666673657473004A65726B0F
:1036000000416363656C65726174696F6E00566535
:103610006C6F636974790053657420486F6D652021
:103620004F66667365747300436F6E666967757283
:103630006174696F6E005A20526169736500326E61
:1036400064204E6F7A7A6C65205A00326E64204E88
:103650006F7A7A6C65205900326E64204E6F7A7AE8
:103660006C652058005320556E52657420560055E5
:103670006E5265742056005320556E526574206D4D
:103680006D00556E526574206D6D00486F70206D31
:103690006D00526574726163742020560053776127
:1036A000702052652E6D6D005265747261637420D6
:1036B0006D6D004F6666004F6E004175746F526508
:1036C00074722E00426564004E6F7A7A6C65004613
:1036D000616E20537065656400436F6E666967753F
:1036E000726174696F6E004C6F616420536574740D
:1036F000696E67730053746F7265205365747469E3
:103700006E677300526573746F72652044656661FD
:10371000756C74730050726568656174205045471C
:103720005420436F6E660050726568656174205066
:103730004C4120436F6E6600526574726163740081
:10374000546F6F6C204368616E676500546F6F6CD7
:10375000204F6666736574730050726F6265205AFD
:10376000204F666673657400416476616E636564BC
:103770002053657474696E6773004D61696E004D06
:1037800037303220542564004D363030204230200E
:10379000542564004D373032203B2564004D3730CE
:1037A0003120542564004368616E67652046696C6A
:1037B000616D656E7400556E6C6F61642046696C56
:1037C000616D656E74004C6F61642046696C616D5B
:1037D000656E740050726568656174205045475489
:1037E000005072656865617420437573746F6D0075
:1037F0005072656865617420504C41004261636B92
:10380000004D36303020423020542569004D37308D
:103810003120542569004D37303220542569005538
:103820006E6C6F61642046696C616D656E74202AF0
:10383000004C6F61642046696C616D656E74202A6E
:10384000004368616E67652046696C616D656E74E2
:10385000202A004D61696E005075726765206D6F9A
:10386000726500436F6E74696E75650052455355FD
:103870004D45204F5054494F4E533A005052494EF7
:1038800054205041555345440020204E6F7A7A6CA5
:10389000653A20005061726B696E672E2E2E000013
:1038A000005761697420666F720066696C616D65AE
:1038B0006E74206368616E676500746F2073746155
:1038C0007274005761697420666F720066696C617A
:1038D0006D656E7420756E6C6F616400004E6F7A5A
:1038E0007A6C652068656174696E6700506C65610B
:1038F000736520776169742E2E2E000050726573F7
:103900007320627574746F6E00746F2068656174E3
:10391000206E6F7A7A6C650000496E736572742050
:1039200066696C616D656E7400616E6420707265AD
:10393000737320627574746F6E00746F20636F6EA2
:1039400074696E7565005761697420666F720066F0
:10395000696C616D656E74206C6F616400005072FB
:1039600065737320427574746F6E00746F20726596
:1039700073756D65207072696E74000057616974AB
:1039800020666F72207072696E7400746F207265A9
:1039900073756D652E2E2E00005761697420666F59
:1039A000720066696C616D656E7420707572676512
:1039B0000000313530003A200035003A2000424501
:1039C000443A312520626574612033393530005224
:1039D000756E617761792057617463683A204F4E44
:1039E00000333030003A200035003A200045323AAA
:1039F000205A6F6E6573746172202854726F6E78EE
:103A0000792058334129004D61782054656D70004C
:103A1000323735003A20004D696E2054656D7000D4
:103A200035003A200045313A2041544320313034AA
:103A300047542D32005053550047656E65726963D7
:103A4000003A200050726F746F636F6C00312E303B
:103A5000003A200042617564003131353230300067
:103A60003A20004D4B532047454E203E3D207631B5
:103A70002E3300556E696669656420426564204C8A
:103A80006576656C696E67004578747275646572F9
:103A9000730032003A2000687474703A2F2F6D6101
:103AA000726C696E66772E6F7267005A38523200F8
:103AB000323032302D30372D303900322E302E3525
:103AC0002E34004D61726C696E00546865726D69C8
:103AD00073746F727300426F61726420496E666F17
:103AE000005072696E74657220496E666F004D6198
:103AF000696E004368616E67652046696C616D653B
:103B00006E7400436F6E66696775726174696F6E7B
:103B10000054656D7065726174757265004D6F74E7
:103B2000696F6E00526573756D65205072696E74B1
:103B30000041626F7574205072696E746572005432
:103B4000756E65005061757365205072696E740002
:103B5000496E666F2053637265656E004D6F7665C2
:103B60002025736D6D00004D6F766520302E316D10
:103B70006D004D6F766520316D6D004D6F7665205F
:103B800031306D6D00486F74656E6420746F6F2006
:103B9000636F6C64004578747275646572202A00E6
:103BA0004578747275646572004D6F7665205A00B1
:103BB0004D6F76652059004D6F76652058004F6631
:103BC00066004F6E00536F667420456E6473746FA9
:103BD0007073004D6F74696F6E004D383400446926
:103BE0007361626C65205374657070657273004711
:103BF00032380A4D343820503130004D343820509E
:103C0000726F6265205465737400556E69666965EC
:103C10006420426564204C6576656C696E67004778
:103C20003334004175746F205A2D416C69676E0002
:103C30004732385A00486F6D65205A00473238596C
:103C400000486F6D652059004732385800486F6D45
:103C5000652058004175746F20486F6D65004D6F89
:103C600076652041786973004D61696E0050726518
:103C70006865617420504C4120416C6C0050726545
:103C80006865617420504C41204265640050726543
:103C90006865617420504C4120456E64207E005060
:103CA00072656865617420504C41207E00507265D9
:103CB00068656174205045475420416C6C00507217
:103CC0006568656174205045475420456E64207EC8
:103CD0000050726568656174205045475420426504
:103CE0006400507265686561742050454754207EB9
:103CF0000054656D706572617475726500436F6F15
:103D00006C646F776E005072656865617420504511
:103D10004754005072656865617420504C410046FC
:103D2000616E20537065656400426564004E6F7A71
:103D30007A6C65207E004D61696E005A32005A002F
:103D4000590058005A32005A0059004F6666004F19
:103D50006E005800544D43204472697665727300BA
:103D6000537465616C746843686F7020456E61625E
:103D70006C6564005374657070696E67204D6F6484
:103D800065004472697665722043757272656E745F
:103D900000436F6E74726F6C004261627973746578
:103DA00070205A00416476616E6365204B202A00C2
:103DB000466C6F77207E00466C6F770046616E2000
:103DC000537065656400426564004E6F7A7A6C6575
:103DD000207E005370656564004D61696E0000FED1
:103DE0000003FF8007C7C00701E00000E00000F00B
:103DF0000000700400700E00701F00703F80F00E15
:103E000000E00F01E007C7C003FF8000FE0000FED6
:103E10000003FF8007C7C00F01E00E00E03F80F005
:103E20001F00700E00700400700000700000F000B1
:103E300000E00701E007C7C003FF8000FE000E009E
:103E40000E000E000E000E000E000E000E007FC0D1
:103E50003F801F000E00040004000E001F003F8082
:103E60007FC00E000E000E000E000E000E000E00B1
:103E70000E00FFFFFF7F80FFC0FFC0FFC07F807F7D
:103E800080FFC0FFC0FFC03F001E000C004D6573E7
:103E90006820456469746F720047323920503100E0
:103EA0004D31303920532569004D313930205325AB
:103EB00069004265642054656D7000486F74656EDA
:103EC000642054656D70002E2569004732392050FA
:103ED000362043202D0048656967687420416D6F66
:103EE000756E740041646A757374204D6573682043
:103EF000486569676874004732392050342054009F
:103F000046696E652054756E6520436C6F736573EA
:103F10007400473239205034205239393920540046
:103F200046696E652054756E6520416C6C004732A1
:103F300036204320422569204825692050005661DB
:103F40006C696461746520437573746F6D204D6591
:103F50007368004732380A473236204320423635EC
:103F6000204832363020500056616C6964617465B7
:103F7000204D657368202850454754290047323842
:103F80000A4732362043204236352048323330202B
:103F9000500056616C6964617465204D65736820DA
:103FA00028504C412900473239204A2569004C6588
:103FB00076656C204D657368005369646520506FA9
:103FC000696E74730047726964204D657368204C94
:103FD0006576656C696E6700473239204A30003378
:103FE0002D506F696E74204C6576656C696E670044
:103FF000473239205033205220432E256900473262
:10400000392050322042205430004D616E75616C71
:104010002046696C6C2D696E004732392050332080
:10402000543000536D6172742046696C6C2D696E5A
:104030000046696C6C2D696E20416D6F756E740061
:104040004D65736820696E76616C6964617465643E
:104050002E0A00496E666F2053637265656E0047D5
:104060003239204900496E76616C6964617465205B
:10407000436C6F7365737400496E76616C6964613B
:10408000746520416C6C0047323920503120430068
:10409000436F6E74696E756520426564204D65736B
:1040A000680046696C6C2D696E204D657368004729
:1040B00032380A473239205031004275696C642029
:1040C000436F6C64204D657368004275696C6420B1
:1040D000437573746F6D204D657368004732380AFD
:1040E0004D313930205336350A4D31303920533275
:1040F00036300A4732392050310A4D31303420539E
:10410000300A4D313430205330004275696C6420E0
:104110004D65736820285045475429004732380AB6
:104120004D313930205336350A4D31303920533234
:1041300033300A4732392050310A4D313034205360
:10414000300A4D313430205330004275696C6420A0
:104150004D6573682028504C4129004D313137207E
:104160004D657368202569204C6F61646564004764
:104170003239204C2569004D313137204D65736847
:104180002025692053617665640047323920532524
:1041900069005361766520426564204D657368004F
:1041A0004C6F616420426564204D657368004D6505
:1041B0006D6F727920536C6F74004E6F2053746F63
:1041C0007261676500486F6D696E672058595A00C3
:1041D00047323920503420582573205925732052F6
:1041E000256900202D2D2D2D2D005A3A00593A0019
:1041F0004732380047323920532D31004F66662050
:104200005072696E746572204261636B757000470D
:104210003239205431004F757470757420666F7296
:104220002043535600473239205430004F75747084
:10423000757420666F7220486F7374004D323100C0
:104240004D3233202573004D323400453A0020585A
:104250003A005072696E7465722073746F70706585
:10426000642064756520746F206572726F72732E9E
:104270002046697820746865206572726F722061CB
:104280006E6420757365204D39393920746F207242
:104290006573746172742E202854656D7065726147
:1042A000747572652069732072657365742E20536E
:1042B0006574206974206166746572207265737418
:1042C000617274696E67290A0024F404D9201BC442
:1042D0000C5C0E9804C4095F0265077101F405F9CE
:1042E00000FB04B30048048700C10369005803556C
:1042F0000003034500BE023A008402310053022A43
:10430000002902250004022000E4011C00C8011954
:1043100000AF01170098011400840113007101100F
:10432000006101100051010E0043010D0036010B28
:10433000002B010B0020010B00150109000C0109E5
:104340000003010800FB000800F3000800EB000771
:1043500000E4000600DE000600D8000600D20006D9
:1043600000CC000500C7000500C2000500BD000428
:1043700000B9000400B5000400B1000400AD000461
:1043800000A9000400A5000300A20003009F000490
:10439000009B0003009800030095000200930003B7
:1043A00000900003008D0002008B000300880002D3
:1043B000008600020084000300810002007F0002EA
:1043C000007D0002007B00020079000200770001FE
:1043D0000076000200740002007200010071000209
:1043E000006F0002006D0001006C0002006A000115
:1043F000006900020067000100660001006500011D
:104400000064000200620001006100010060000120
:10441000005F0002005D0001005C0001005B000124
:10442000005A000100590001005800010057000126
:104430000056000100550001005400010053000027
:104440000053000100520001005100010050000122
:10445000004F0001004E0000004E0001004D000121
:10446000004C0001004B0000004B0001004A00011D
:104470000049000100480000004800010047000119
:104480000046000000460001004500000045000114
:10449000004400010043000000430001004200000E
:1044A0000042000100410000004100010040000105
:1044B000003F0000003F0001003E0000003E000100
:1044C000003D0000003D0001003C0000003C0000F9
:1044D000003C0001003B0000003B0001003A0000EE
:1044E000003A0001003900000039000100380000E6
:1044F00000380000003800010037000000370001DC
:1045000000360000003600000036000100350000D3
:1045100000350000003500010034000000340000C8
:1045200000340001003300000033000000330001BC
:1045300000320000003200000032000100310000B3
:1045400000310000003100010030000000300000A8
:1045500000300001002F0000002F0000002F00009D
:10456000002F0001002E0000002E0000002E000190
:10457000002D0000002D0000002D0000002D000186
:10458000002C0000002C0000002C0000002C00017A
:10459000002B0000002B0000002B0000002B00016E
:1045A000002A0000002A0000002A0000002A000162
:1045B0000029000000290000002900000029000057
:1045C0000029000100280000002800000028000049
:1045D000002800000028000100270000002700003C
:1045E000002700000027000000270001002600002F
:1045F0000026000000260000002600000026000122
:104600000025000000250000002500000025000016
:104610000025000000250001002400000024000007
:1046200000240000002400000024000100230000FA
:1046300000230000002300000023000000230000EE
:1046400000230000002300010022000000220000DF
:1046500000220000002200000022000000220001D1
:1046600000210000002100000021000000210000C6
:1046700000210000002100000021000100200000B6
:1046800000200000002000000020000000200000AA
:10469000002000000020000000200001001F00009A
:1046A000001F0000001F0000001F0000001F00008E
:1046B000001F0000001F0001001E0000001E00007F
:1046C000001E0000001E00000024F4D43050C38EF1
:1046D00020C2A24017828B7011127A910D816CD981
:1046E0000AA861E108C7586607615143061E4B5D81
:1046F00005C145A7041A411104093D9803713931D8
:10470000034036DB0265339102D4305402802E1D03
:1047100002632CEE01752AC501B028A00110278183
:10472000018F2564012B244B01E0223401AC211FB1
:10473000018D200D01801FFC00841EED00971DDF00
:1047400000B81CD200E61BC600201BBC00641AB2D5
:1047500000B219A8000A19A0006A189900D117918F
:104760000040178B00B516840031167E00B3157912
:10477000003A157300C7146F0058146A00EE1366F0
:10478000008813630025135E00C7125B006C12578C
:104790000015125400C111510070114F0021114B2E
:1047A00000D61049008D1047004610440002104208
:1047B00000C00F4000800F3E00420F3C00060F3B40
:1047C00000CB0E3800930E37005C0E3500270E34F8
:1047D00000F30D3200C10D3100900D3000600D2E40
:1047E00000320D2D00050D2C00D90C2B00AE0C292C
:1047F00000850C29005C0C2700350C27000E0C26C8
:1048000000E80B2400C40B2400A00B23007D0B2325
:10481000005A0B2100390B2100180B2000F80A1F49
:1048200000D90A1E00BB0A1E009D0A1D00800A1D39
:1048300000630A1C00470A1B002C0A1B00110A1AFD
:1048400000F7091A00DD091900C4091900AB09199C
:1048500000920917007B091800630917004C09161C
:104860000036091600200916000A091500F508157A
:1048700000E0081400CC081400B8081400A40814C0
:1048800000900813007D0812006B081300580812EE
:104890000046081200340811002308110012081104
:1048A0000001081100F0071000E0071000D0071009
:1048B00000C0071000B0070F00A107100091070EFD
:1048C0000083070F0074070F0065070E0057070EDF
:1048D0000049070E003B070D002E070E0020070DB4
:1048E0000013070D0006070D00F9060C00ED060D7C
:1048F00000E0060C00D4060C00C8060C00BC060C38
:1049000000B0060C00A4060B0099060C008D060BE7
:104910000082060B0077060B006C060B0061060A8E
:104920000057060B004C060A0042060A0038060A29
:10493000002E060A0024060A001A060A00100609BC
:104940000007060A00FD050900F4050900EB05094A
:1049500000E2050900D9050900D0050900C70509CD
:1049600000BE050900B5050800AD050800A505094C
:10497000009C050800940508008C050800840508C3
:10498000007C050800740508006C05070065050833
:10499000005D050700560508004E0507004705079E
:1049A000004005080038050700310507002A050703
:1049B00000230507001C050600160507000F050764
:1049C000000805060002050700FB040600F50407C1
:1049D00000EE040600E8040600E2040700DB04061B
:1049E00000D5040600CF040600C9040600C304066F
:1049F00000BD040600B7040600B1040500AC0406BF
:104A000000A6040600A00405009B0406009504050A
:104A100000900406008A0405008504050080040651
:104A2000007A04050075040500700405006B040598
:104A30000066040500610405005C040500570405D8
:104A400000520405004D0405004804050043040518
:104A5000003E0404003A0405003504050030040457
:104A6000002C04050027040400230405001E040490
:104A7000001A04040016040500110404000D0404C7
:104A800000090405000404040000040400FC0304FD
:104A900000F8030400F4030400F0030400EC030432
:104AA00000E8030400E4030400E0030400DC030462
:104AB00000D8030400D4030400D0030400CC030492
:104AC00000C8030300C5030300726F746174696F4B
:104AD0006E206D61747269783A0A0024F404D9205A
:104AE0001BC40C5C0E9804C4095F0265077101F4D5
:104AF00005F900FB04B30048048700C103690058AE
:104B000003550003034500BE023A008402310053FE
:104B1000022A002902250004022000E4011C00C82A
:104B2000011900AF011700980114008401130071EE
:104B30000110006101100051010E0043010D00360B
:104B4000010B002B010B0020010B00150109000CCB
:104B500001090003010800FB000800F3000800EB56
:104B6000000700E4000600DE000600D8000600D2C0
:104B7000000600CC000500C7000500C2000500BD0E
:104B8000000400B9000400B5000400B1000400AD49
:104B9000000400A9000400A5000300A20003009F78
:104BA0000004009B0003009800030095000200939E
:104BB000000300900003008D0002008B00030088BA
:104BC0000002008600020084000300810002007FD2
:104BD0000002007D0002007B0002007900020077E5
:104BE00000010076000200740002007200010071F2
:104BF0000002006F0002006D0001006C0002006AFC
:104C00000001006900020067000100660001006504
:104C10000001006400020062000100610001006008
:104C20000001005F0002005D0001005C0001005B0C
:104C30000001005A0001005900010058000100570E
:104C4000000100560001005500010054000100530E
:104C5000000000530001005200010051000100500B
:104C60000001004F0001004E0000004E0001004D09
:104C70000001004C0001004B0000004B0001004A05
:104C80000001004900010048000000480001004701
:104C900000010046000000460001004500000045FC
:104CA00000010044000100430000004300010042F5
:104CB00000000042000100410000004100010040EE
:104CC0000001003F0000003F0001003E0000003EE8
:104CD0000001003D0000003D0001003C0000003CE0
:104CE0000000003C0001003B0000003B0001003AD6
:104CF0000000003A000100390000003900010038CE
:104D000000000038000000380001003700000037C4
:104D100000010036000000360000003600010035BA
:104D200000000035000000350001003400000034B0
:104D300000000034000100330000003300000033A5
:104D4000000100320000003200000032000100319A
:104D50000000003100000031000100300000003090
:104D6000000000300001002F0000002F0000002F85
:104D70000000002F0001002E0000002E0000002E79
:104D80000001002D0000002D0000002D0000002D6E
:104D90000001002C0000002C0000002C0000002C62
:104DA0000001002B0000002B0000002B0000002B56
:104DB0000001002A0000002A0000002A0000002A4A
:104DC000000100290000002900000029000000293E
:104DD0000000002900010028000000280000002831
:104DE0000000002800000028000100270000002724
:104DF0000000002700000027000000270001002617
:104E0000000000260000002600000026000000260A
:104E100000010025000000250000002500000025FD
:104E200000000025000000250001002400000024EF
:104E300000000024000000240000002400010023E2
:104E400000000023000000230000002300000023D6
:104E500000000023000000230001002200000022C7
:104E600000000022000000220000002200000022BA
:104E700000010021000000210000002100000021AD
:104E8000000000210000002100000021000100209E
:104E90000000002000000020000000200000002092
:104EA0000000002000000020000000200001001F82
:104EB0000000001F0000001F0000001F0000001F76
:104EC0000000001F0000001F0001001E0000001E67
:104ED0000000001E0000001E00000024F4D430502A
:104EE000C38E20C2A24017828B7011127A910D815D
:104EF0006CD90AA861E108C7586607615143061ECC
:104F00004B5D05C145A7041A411104093D98037181
:104F10003931034036DB0265339102D430540280CC
:104F20002E1D02632CEE01752AC501B028A00110C8
:104F30002781018F2564012B244B01E0223401AC31
:104F4000211F018D200D01801FFC00841EED0097A4
:104F50001DDF00B81CD200E61BC600201BBC00648D
:104F60001AB200B219A8000A19A0006A189900D153
:104F700017910040178B00B516840031167E00B3E0
:104F80001579003A157300C7146F0058146A00EEC3
:104F90001366008813630025135E00C7125B006C64
:104FA00012570015125400C111510070114F002109
:104FB000114B00D61049008D1047004610440002E6
:104FC000104200C00F4000800F3E00420F3C000620
:104FD0000F3B00CB0E3800930E37005C0E350027D8
:104FE0000E3400F30D3200C10D3100900D30006021
:104FF0000D2E00320D2D00050D2C00D90C2B00AE0E
:105000000C2900850C29005C0C2700350C27000EAC
:105010000C2600E80B2400C40B2400A00B23007D09
:105020000B23005A0B2100390B2100180B2000F82C
:105030000A1F00D90A1E00BB0A1E009D0A1D00801F
:105040000A1D00630A1C00470A1B002C0A1B0011E2
:105050000A1A00F7091A00DD091900C4091900AB82
:10506000091900920917007B091800630917004C01
:1050700009160036091600200916000A091500F560
:10508000081500E0081400CC081400B8081400A4A7
:10509000081400900813007D0812006B08130058D4
:1050A00008120046081200340811002308110012EB
:1050B00008110001081100F0071000E0071000D0EF
:1050C000071000C0071000B0070F00A107100091E3
:1050D000070E0083070F0074070F0065070E0057C7
:1050E000070E0049070E003B070D002E070E00209B
:1050F000070D0013070D0006070D00F9060C00ED63
:10510000060D00E0060C00D4060C00C8060C00BC1E
:10511000060C00B0060C00A4060B0099060C008DCE
:10512000060B0082060B0077060B006C060B006175
:10513000060A0057060B004C060A0042060A003811
:10514000060A002E060A0024060A001A060A0010A3
:1051500006090007060A00FD050900F4050900EB31
:10516000050900E2050900D9050900D0050900C7B5
:10517000050900BE050900B5050800AD050800A534
:105180000509009C050800940508008C05080084AA
:105190000508007C050800740508006C050700651B
:1051A0000508005D050700560508004E0507004785
:1051B0000507004005080038050700310507002AEB
:1051C000050700230507001C050600160507000F4C
:1051D0000507000805060002050700FB040600F5A8
:1051E000040700EE040600E8040600E2040700DB02
:1051F000040600D5040600CF040600C9040600C357
:10520000040600BD040600B7040600B1040500ACA6
:10521000040600A6040600A00405009B04060095F1
:10522000040500900406008A04050085040500803A
:105230000406007A04050075040500700405006B7F
:1052400004050066040500610405005C04050057C0
:10525000040500520405004D040500480405004300
:105260000405003E0404003A04050035040500303E
:105270000404002C04050027040400230405001E78
:105280000404001A04040016040500110404000DAF
:10529000040400090405000404040000040400FCE4
:1052A000030400F8030400F4030400F0030400EC1A
:1052B000030400E8030400E4030400E0030400DC4A
:1052C000030400D8030400D4030400D0030400CC7A
:1052D000030400C8030300C503030024F404D92019
:1052E0001BC40C5C0E9804C4095F0265077101F4CD
:1052F00005F900FB04B30048048700C103690058A6
:1053000003550003034500BE023A008402310053F6
:10531000022A002902250004022000E4011C00C822
:10532000011900AF011700980114008401130071E6
:105330000110006101100051010E0043010D003603
:10534000010B002B010B0020010B00150109000CC3
:1053500001090003010800FB000800F3000800EB4E
:10536000000700E4000600DE000600D8000600D2B8
:10537000000600CC000500C7000500C2000500BD06
:10538000000400B9000400B5000400B1000400AD41
:10539000000400A9000400A5000300A20003009F70
:1053A0000004009B00030098000300950002009396
:1053B000000300900003008D0002008B00030088B2
:1053C0000002008600020084000300810002007FCA
:1053D0000002007D0002007B0002007900020077DD
:1053E00000010076000200740002007200010071EA
:1053F0000002006F0002006D0001006C0002006AF4
:1054000000010069000200670001006600010065FC
:105410000001006400020062000100610001006000
:105420000001005F0002005D0001005C0001005B04
:105430000001005A00010059000100580001005706
:105440000001005600010055000100540001005306
:105450000000005300010052000100510001005003
:105460000001004F0001004E0000004E0001004D01
:105470000001004C0001004B0000004B0001004AFD
:1054800000010049000100480000004800010047F9
:1054900000010046000000460001004500000045F4
:1054A00000010044000100430000004300010042ED
:1054B00000000042000100410000004100010040E6
:1054C0000001003F0000003F0001003E0000003EE0
:1054D0000001003D0000003D0001003C0000003CD8
:1054E0000000003C0001003B0000003B0001003ACE
:1054F0000000003A000100390000003900010038C6
:1055000000000038000000380001003700000037BC
:1055100000010036000000360000003600010035B2
:1055200000000035000000350001003400000034A8
:10553000000000340001003300000033000000339D
:105540000001003200000032000000320001003192
:105550000000003100000031000100300000003088
:10556000000000300001002F0000002F0000002F7D
:105570000000002F0001002E0000002E0000002E71
:105580000001002D0000002D0000002D0000002D66
:105590000001002C0000002C0000002C0000002C5A
:1055A0000001002B0000002B0000002B0000002B4E
:1055B0000001002A0000002A0000002A0000002A42
:1055C0000001002900000029000000290000002936
:1055D0000000002900010028000000280000002829
:1055E000000000280000002800010027000000271C
:1055F000000000270000002700000027000100260F
:105600000000002600000026000000260000002602
:1056100000010025000000250000002500000025F5
:1056200000000025000000250001002400000024E7
:1056300000000024000000240000002400010023DA
:1056400000000023000000230000002300000023CE
:1056500000000023000000230001002200000022BF
:1056600000000022000000220000002200000022B2
:1056700000010021000000210000002100000021A5
:105680000000002100000021000000210001002096
:10569000000000200000002000000020000000208A
:1056A0000000002000000020000000200001001F7A
:1056B0000000001F0000001F0000001F0000001F6E
:1056C0000000001F0000001F0001001E0000001E5F
:1056D0000000001E0000001E00000024F4D4305022
:1056E000C38E20C2A24017828B7011127A910D8155
:1056F0006CD90AA861E108C7586607615143061EC4
:105700004B5D05C145A7041A411104093D98037179
:105710003931034036DB0265339102D430540280C4
:105720002E1D02632CEE01752AC501B028A00110C0
:105730002781018F2564012B244B01E0223401AC29
:10574000211F018D200D01801FFC00841EED00979C
:105750001DDF00B81CD200E61BC600201BBC006485
:105760001AB200B219A8000A19A0006A189900D14B
:1057700017910040178B00B516840031167E00B3D8
:105780001579003A157300C7146F0058146A00EEBB
:105790001366008813630025135E00C7125B006C5C
:1057A00012570015125400C111510070114F002101
:1057B000114B00D61049008D1047004610440002DE
:1057C000104200C00F4000800F3E00420F3C000618
:1057D0000F3B00CB0E3800930E37005C0E350027D0
:1057E0000E3400F30D3200C10D3100900D30006019
:1057F0000D2E00320D2D00050D2C00D90C2B00AE06
:105800000C2900850C29005C0C2700350C27000EA4
:105810000C2600E80B2400C40B2400A00B23007D01
:105820000B23005A0B2100390B2100180B2000F824
:105830000A1F00D90A1E00BB0A1E009D0A1D008017
:105840000A1D00630A1C00470A1B002C0A1B0011DA
:105850000A1A00F7091A00DD091900C4091900AB7A
:10586000091900920917007B091800630917004CF9
:1058700009160036091600200916000A091500F558
:10588000081500E0081400CC081400B8081400A49F
:10589000081400900813007D0812006B08130058CC
:1058A00008120046081200340811002308110012E3
:1058B00008110001081100F0071000E0071000D0E7
:1058C000071000C0071000B0070F00A107100091DB
:1058D000070E0083070F0074070F0065070E0057BF
:1058E000070E0049070E003B070D002E070E002093
:1058F000070D0013070D0006070D00F9060C00ED5B
:10590000060D00E0060C00D4060C00C8060C00BC16
:10591000060C00B0060C00A4060B0099060C008DC6
:10592000060B0082060B0077060B006C060B00616D
:10593000060A0057060B004C060A0042060A003809
:10594000060A002E060A0024060A001A060A00109B
:1059500006090007060A00FD050900F4050900EB29
:10596000050900E2050900D9050900D0050900C7AD
:10597000050900BE050900B5050800AD050800A52C
:105980000509009C050800940508008C05080084A2
:105990000508007C050800740508006C0507006513
:1059A0000508005D050700560508004E050700477D
:1059B0000507004005080038050700310507002AE3
:1059C000050700230507001C050600160507000F44
:1059D0000507000805060002050700FB040600F5A0
:1059E000040700EE040600E8040600E2040700DBFA
:1059F000040600D5040600CF040600C9040600C34F
:105A0000040600BD040600B7040600B1040500AC9E
:105A1000040600A6040600A00405009B04060095E9
:105A2000040500900406008A040500850405008032
:105A30000406007A04050075040500700405006B77
:105A400004050066040500610405005C04050057B8
:105A5000040500520405004D0405004804050043F8
:105A60000405003E0404003A040500350405003036
:105A70000404002C04050027040400230405001E70
:105A80000404001A04040016040500110404000DA7
:105A9000040400090405000404040000040400FCDC
:105AA000030400F8030400F4030400F0030400EC12
:105AB000030400E8030400E4030400E0030400DC42
:105AC000030400D8030400D4030400D0030400CC72
:105AD000030400C8030300C50303001000C902103B
