:100000000C94A1380D945A3D0D942F3D0D94043D50
:100010000D94D93C0D94AE3C0D94833C0D94583C0A
:100020000D942D3C0C94BAED0C94BAED0C94BAEDF1
:100030000C94D2380D946B390C94D2380C94D2387D
:100040000C94D2380D94685C0C94D2380C94D2384D
:100050000C94D2380C94D2380D9435470D94E33B70
:100060000C94D2380C9409D10C94FFD00C94D23853
:100070000C94D2380C94D2380C94D2380C94D238D8
:100080000C94315A0C94D2380C94D2380C94D23847
:100090000C94D2380C94D2380C94D2380C94D238B8
:1000A0000C94D2380C94D2380C94035A0C94D23855
:1000B0000C94D2380C94D2380C94D2380C94D55974
:1000C0000C94D2380C94D2380C94D2380C94D23888
:1000D0000C94D2380C94D2380C94D2380C94D23878
:1000E0000C94D238084AD73B3BCE016E84BCBFFD8E
:1000F000C12F3D6C74319ABD56833DDA3D00C77FF8
:1001000011BED9E4BB4C3E916BAAAABE0000008090
:100110003F05A84CCDB2D44EB93836A9020C50B91F
:10012000918688083CA6AAAA2ABE000000803F0744
:10013000634236B79BD8A71A39685618AEBAAB5582
:100140008C1D3CB7CC5763BD6DEDFD753EF6177247
:1001500031BF000000803F08000000BE9224491219
:100160003EABAAAA2ABECDCCCC4C3E00000080BE3D
:10017000ABAAAAAA3E00000000BF000000803F001A
:1001800000000000084178D3BB4387D1133D190E0E
:100190003CC3BD4282AD2B3E68EC8276BED98FE176
:1001A000A93E4C80EFFFBE01C4FF7F3F000000006E
:1001B00000000D9449770D94B87C0D94A34A0D94DA
:1001C0003E850D940A7C0D945B2B0D94672B0D944A
:1001D0003A940D948E780D94D6830D9474830D9477
:1001E000923A0D94BC850D94013B0D941E050D941F
:1001F000DB7B0D94E8830D94E57A0D94D4820D9405
:100200006D7B0D94CB820D9423830D9432770D94E6
:10021000D1820D949D7C0D94B9820D94C5820D946C
:10022000F97C0D94AE3A0D944F780D94EF150D9422
:1002300044940D94D43A0D94C32B0D94511A0D94FB
:10024000BF820D94EE830D947B3A0D948C2B0D940C
:10025000883A0D942D830D940A2B0D94082B0D9440
:10026000937C0D94EA860D945F2B0D9458940D9415
:10027000A6770D946F950D9427800D941B770D94A0
:100280008B4A0D94CA3A0D94A63A0D94ED830D94C1
:10029000EC140D948D8C0D94153B0D94902B0D94B6
:1002A00030940D94E0760D94DC830D94C03A0D9457
:1002B0009F080D9458A90D94AE3B0D940A780D94A7
:1002C000BC820D9460770D94DF830D947F4A0D946A
:1002D000F89B0D94BF770D9428830D94D7910D94BE
:1002E0001E120D945BB00D9493180D9463920D94AF
:1002F00066800D94997C0D94A7AB0D94F73A0D94FC
:100300004E940D94F37A0D94E2830D94D8770D9466
:10031000632B0D9449940D9457790D947E2B0D9475
:100320000D970D945C890D942B130D94D87B0D942F
:10033000B87B0D94237C0D94918C0D94157A0D94BB
:100340008B770D94077D0D940EA00D94A70E0D9440
:10035000977C0D9460890D94CE820D9493970D94A3
:10036000957C0D945D940D9451490D9453940D9486
:10037000209A0D9441490D949C3A0D943A850D9420
:1003800062940D94998C0D94857C0D94882B0D941A
:10039000F1830D9437830D9435940D943F940D940F
:1003A000B64A0D947B780D94A5830D943C780D94FA
:1003B000952B0D94C8820D94B1100D9423780D9453
:1003C0009E4A0D94833A0D94C7960D94CC800D945B
:1003D000702B0D94F1770D94072B0D94552B0D94E4
:1003E00067940D949B7C0D945E860D9488AE0D945D
:1003F000C1160D94E2760D9487A70D94947C0D940C
:10040000192C0D9455830D946A800D94742B0D94C2
:10041000822B0D94ED3A0D94CE760D940F7D0D94B4
:10042000C9830D946A2B0D9458890D94962B0D94C5
:10043000E18D0D9432830D9454890D940B3B0D94F2
:10044000F67A0D94C2820D94D9830D94967C0D9406
:10045000D3AD0D948F8C0D942C7B0D94E33A0D94B9
:10046000F17B0D9425A30D9453050D9462780D94A2
:100470007A2B0D94DE7B0D94BB4A0D949A2B0D9430
:10048000D3830D94B63A0D94E5830D9436854E4191
:100490004E494E495459494E46CDCCCC3D0AD723FE
:1004A0003C17B7D13877CC2B329595E6241FB14F46
:1004B0000A000020410000C84200401C4620BCBE8B
:1004C0004CCA1B0E5AAEC59D7400407A10F35A00F8
:1004D000A0724E18090010A5D4E80000E87648176D
:1004E0000000E40B54020000CA9A3B000000E1F552
:1004F00005000080969800000040420F000000A018
:100500008601000000102700000000E80300000042
:10051000006400000000000A00000000000100006C
:100520000000002C76D888DC674F0823DFC1DFAEDF
:1005300059E1B1B796E5E3E453C63AE651997696A8
:10054000E8E6C28426EB898C9B62ED407C6FFCEF71
:10055000BC9C9F40F2BAA56FA5F490055A2AF75C9F
:10056000936B6CF9676DC11BFCE0E40D47FEF52051
:10057000E6B500D0ED902E03009435770500808419
:100580001E080000204E0A000000C80C333333332D
:100590000F986E12831141EF8D2114893BE6551699
:1005A000CFFEE6DB18D1844B381BF77C1D901DA4D1
:1005B000BBE424203284725E228100C9F124ECA1C4
:1005C000E53D274D3231004D3233202573004D3249
:1005D00034005072696E7465722073746F70706548
:1005E000642064756520746F206572726F72732E5B
:1005F0002046697820746865206572726F72206188
:100600006E6420757365204D39393920746F2072FE
:100610006573746172742E202854656D7065726103
:10062000747572652069732072657365742E20532A
:1006300065742069742061667465722072657374D4
:10064000617274696E67290A0024F404D9201BC4FE
:100650000C5C0E9804C4095F0265077101F405F98A
:1006600000FB04B30048048700C103690058035528
:100670000003034500BE023A008402310053022AFF
:10068000002902250004022000E4011C00C8011911
:1006900000AF0117009801140084011300710110CC
:1006A000006101100051010E0043010D0036010BE5
:1006B000002B010B0020010B00150109000C0109A2
:1006C0000003010800FB000800F3000800EB00072E
:1006D00000E4000600DE000600D8000600D2000696
:1006E00000CC000500C7000500C2000500BD0004E5
:1006F00000B9000400B5000400B1000400AD00041E
:1007000000A9000400A5000300A20003009F00044C
:10071000009B000300980003009500020093000373
:1007200000900003008D0002008B0003008800028F
:10073000008600020084000300810002007F0002A6
:10074000007D0002007B00020079000200770001BA
:1007500000760002007400020072000100710002C5
:10076000006F0002006D0001006C0002006A0001D1
:1007700000690002006700010066000100650001D9
:1007800000640002006200010061000100600001DD
:10079000005F0002005D0001005C0001005B0001E1
:1007A000005A0001005900010058000100570001E3
:1007B00000560001005500010054000100530000E4
:1007C00000530001005200010051000100500001DF
:1007D000004F0001004E0000004E0001004D0001DE
:1007E000004C0001004B0000004B0001004A0001DA
:1007F00000490001004800000048000100470001D6
:1008000000460000004600010045000000450001D0
:1008100000440001004300000043000100420000CA
:1008200000420001004100000041000100400001C1
:10083000003F0000003F0001003E0000003E0001BC
:10084000003D0000003D0001003C0000003C0000B5
:10085000003C0001003B0000003B0001003A0000AA
:10086000003A0001003900000039000100380000A2
:100870000038000000380001003700000037000198
:100880000036000000360000003600010035000090
:100890000035000000350001003400000034000085
:1008A0000034000100330000003300000033000179
:1008B0000032000000320000003200010031000070
:1008C0000031000000310001003000000030000065
:1008D00000300001002F0000002F0000002F00005A
:1008E000002F0001002E0000002E0000002E00014D
:1008F000002D0000002D0000002D0000002D000143
:10090000002C0000002C0000002C0000002C000136
:10091000002B0000002B0000002B0000002B00012A
:10092000002A0000002A0000002A0000002A00011E
:100930000029000000290000002900000029000013
:100940000029000100280000002800000028000005
:1009500000280000002800010027000000270000F8
:1009600000270000002700000027000100260000EB
:1009700000260000002600000026000000260001DE
:1009800000250000002500000025000000250000D3
:1009900000250000002500010024000000240000C4
:1009A00000240000002400000024000100230000B7
:1009B00000230000002300000023000000230000AB
:1009C000002300000023000100220000002200009C
:1009D000002200000022000000220000002200018E
:1009E0000021000000210000002100000021000083
:1009F0000021000000210000002100010020000073
:100A00000020000000200000002000000020000066
:100A1000002000000020000000200001001F000056
:100A2000001F0000001F0000001F0000001F00004A
:100A3000001F0000001F0001001E0000001E00003B
:100A4000001E0000001E00000024F4D43050C38EAD
:100A500020C2A24017828B7011127A910D816CD93D
:100A60000AA861E108C7586607615143061E4B5D3D
:100A700005C145A7041A411104093D980371393194
:100A8000034036DB0265339102D4305402802E1DC0
:100A900002632CEE01752AC501B028A00110278140
:100AA000018F2564012B244B01E0223401AC211F6E
:100AB000018D200D01801FFC00841EED00971DDFBD
:100AC00000B81CD200E61BC600201BBC00641AB292
:100AD00000B219A8000A19A0006A189900D117914C
:100AE0000040178B00B516840031167E00B31579CF
:100AF000003A157300C7146F0058146A00EE1366AD
:100B0000008813630025135E00C7125B006C125748
:100B10000015125400C111510070114F0021114BEA
:100B200000D61049008D10470046104400021042C4
:100B300000C00F4000800F3E00420F3C00060F3BFC
:100B400000CB0E3800930E37005C0E3500270E34B4
:100B500000F30D3200C10D3100900D3000600D2EFC
:100B600000320D2D00050D2C00D90C2B00AE0C29E8
:100B700000850C29005C0C2700350C27000E0C2684
:100B800000E80B2400C40B2400A00B23007D0B23E2
:100B9000005A0B2100390B2100180B2000F80A1F06
:100BA00000D90A1E00BB0A1E009D0A1D00800A1DF6
:100BB00000630A1C00470A1B002C0A1B00110A1ABA
:100BC00000F7091A00DD091900C4091900AB091959
:100BD00000920917007B091800630917004C0916D9
:100BE0000036091600200916000A091500F5081537
:100BF00000E0081400CC081400B8081400A408147D
:100C000000900813007D0812006B081300580812AA
:100C100000460812003408110023081100120811C0
:100C20000001081100F0071000E0071000D00710C5
:100C300000C0071000B0070F00A107100091070EB9
:100C40000083070F0074070F0065070E0057070E9B
:100C50000049070E003B070D002E070E0020070D70
:100C60000013070D0006070D00F9060C00ED060D38
:100C700000E0060C00D4060C00C8060C00BC060CF4
:100C800000B0060C00A4060B0099060C008D060BA4
:100C90000082060B0077060B006C060B0061060A4B
:100CA0000057060B004C060A0042060A0038060AE6
:100CB000002E060A0024060A001A060A0010060979
:100CC0000007060A00FD050900F4050900EB050907
:100CD00000E2050900D9050900D0050900C705098A
:100CE00000BE050900B5050800AD050800A5050909
:100CF000009C050800940508008C05080084050880
:100D0000007C050800740508006C050700650508EF
:100D1000005D050700560508004E0507004705075A
:100D2000004005080038050700310507002A0507BF
:100D300000230507001C050600160507000F050720
:100D4000000805060002050700FB040600F504077D
:100D500000EE040600E8040600E2040700DB0406D7
:100D600000D5040600CF040600C9040600C304062B
:100D700000BD040600B7040600B1040500AC04067B
:100D800000A6040600A00405009B040600950405C7
:100D900000900406008A040500850405008004060E
:100DA000007A04050075040500700405006B040555
:100DB0000066040500610405005C04050057040595
:100DC00000520405004D04050048040500430405D5
:100DD000003E0404003A0405003504050030040414
:100DE000002C04050027040400230405001E04044D
:100DF000001A04040016040500110404000D040484
:100E000000090405000404040000040400FC0304B9
:100E100000F8030400F4030400F0030400EC0304EE
:100E200000E8030400E4030400E0030400DC03041E
:100E300000D8030400D4030400D0030400CC03044E
:100E400000C8030300C5030300726F746174696F07
:100E50006E206D61747269783A0A0024F404D92016
:100E60001BC40C5C0E9804C4095F0265077101F491
:100E700005F900FB04B30048048700C1036900586A
:100E800003550003034500BE023A008402310053BB
:100E9000022A002902250004022000E4011C00C8E7
:100EA000011900AF011700980114008401130071AB
:100EB0000110006101100051010E0043010D0036C8
:100EC000010B002B010B0020010B00150109000C88
:100ED00001090003010800FB000800F3000800EB13
:100EE000000700E4000600DE000600D8000600D27D
:100EF000000600CC000500C7000500C2000500BDCB
:100F0000000400B9000400B5000400B1000400AD05
:100F1000000400A9000400A5000300A20003009F34
:100F20000004009B0003009800030095000200935A
:100F3000000300900003008D0002008B0003008876
:100F40000002008600020084000300810002007F8E
:100F50000002007D0002007B0002007900020077A1
:100F600000010076000200740002007200010071AE
:100F70000002006F0002006D0001006C0002006AB8
:100F800000010069000200670001006600010065C1
:100F900000010064000200620001006100010060C5
:100FA0000001005F0002005D0001005C0001005BC9
:100FB0000001005A000100590001005800010057CB
:100FC00000010056000100550001005400010053CB
:100FD00000000053000100520001005100010050C8
:100FE0000001004F0001004E0000004E0001004DC6
:100FF0000001004C0001004B0000004B0001004AC2
:1010000000010049000100480000004800010047BD
:1010100000010046000000460001004500000045B8
:1010200000010044000100430000004300010042B1
:1010300000000042000100410000004100010040AA
:101040000001003F0000003F0001003E0000003EA4
:101050000001003D0000003D0001003C0000003C9C
:101060000000003C0001003B0000003B0001003A92
:101070000000003A0001003900000039000100388A
:101080000000003800000038000100370000003781
:101090000001003600000036000000360001003577
:1010A000000000350000003500010034000000346D
:1010B0000000003400010033000000330000003362
:1010C0000001003200000032000000320001003157
:1010D000000000310000003100010030000000304D
:1010E000000000300001002F0000002F0000002F42
:1010F0000000002F0001002E0000002E0000002E36
:101100000001002D0000002D0000002D0000002D2A
:101110000001002C0000002C0000002C0000002C1E
:101120000001002B0000002B0000002B0000002B12
:101130000001002A0000002A0000002A0000002A06
:1011400000010029000000290000002900000029FA
:1011500000000029000100280000002800000028ED
:1011600000000028000000280001002700000027E0
:1011700000000027000000270000002700010026D3
:1011800000000026000000260000002600000026C7
:1011900000010025000000250000002500000025BA
:1011A00000000025000000250001002400000024AC
:1011B000000000240000002400000024000100239F
:1011C0000000002300000023000000230000002393
:1011D0000000002300000023000100220000002284
:1011E0000000002200000022000000220000002277
:1011F000000100210000002100000021000000216A
:10120000000000210000002100000021000100205A
:10121000000000200000002000000020000000204E
:101220000000002000000020000000200001001F3E
:101230000000001F0000001F0000001F0000001F32
:101240000000001F0000001F0001001E0000001E23
:101250000000001E0000001E00000024F4D43050E6
:10126000C38E20C2A24017828B7011127A910D8119
:101270006CD90AA861E108C7586607615143061E88
:101280004B5D05C145A7041A411104093D9803713E
:101290003931034036DB0265339102D43054028089
:1012A0002E1D02632CEE01752AC501B028A0011085
:1012B0002781018F2564012B244B01E0223401ACEE
:1012C000211F018D200D01801FFC00841EED009761
:1012D0001DDF00B81CD200E61BC600201BBC00644A
:1012E0001AB200B219A8000A19A0006A189900D110
:1012F00017910040178B00B516840031167E00B39D
:101300001579003A157300C7146F0058146A00EE7F
:101310001366008813630025135E00C7125B006C20
:1013200012570015125400C111510070114F0021C5
:10133000114B00D61049008D1047004610440002A2
:10134000104200C00F4000800F3E00420F3C0006DC
:101350000F3B00CB0E3800930E37005C0E35002794
:101360000E3400F30D3200C10D3100900D300060DD
:101370000D2E00320D2D00050D2C00D90C2B00AECA
:101380000C2900850C29005C0C2700350C27000E69
:101390000C2600E80B2400C40B2400A00B23007DC6
:1013A0000B23005A0B2100390B2100180B2000F8E9
:1013B0000A1F00D90A1E00BB0A1E009D0A1D0080DC
:1013C0000A1D00630A1C00470A1B002C0A1B00119F
:1013D0000A1A00F7091A00DD091900C4091900AB3F
:1013E000091900920917007B091800630917004CBE
:1013F00009160036091600200916000A091500F51D
:10140000081500E0081400CC081400B8081400A463
:10141000081400900813007D0812006B0813005890
:1014200008120046081200340811002308110012A7
:1014300008110001081100F0071000E0071000D0AB
:10144000071000C0071000B0070F00A1071000919F
:10145000070E0083070F0074070F0065070E005783
:10146000070E0049070E003B070D002E070E002057
:10147000070D0013070D0006070D00F9060C00ED1F
:10148000060D00E0060C00D4060C00C8060C00BCDB
:10149000060C00B0060C00A4060B0099060C008D8B
:1014A000060B0082060B0077060B006C060B006132
:1014B000060A0057060B004C060A0042060A0038CE
:1014C000060A002E060A0024060A001A060A001060
:1014D00006090007060A00FD050900F4050900EBEE
:1014E000050900E2050900D9050900D0050900C772
:1014F000050900BE050900B5050800AD050800A5F1
:101500000509009C050800940508008C0508008466
:101510000508007C050800740508006C05070065D7
:101520000508005D050700560508004E0507004741
:101530000507004005080038050700310507002AA7
:10154000050700230507001C050600160507000F08
:101550000507000805060002050700FB040600F564
:10156000040700EE040600E8040600E2040700DBBE
:10157000040600D5040600CF040600C9040600C313
:10158000040600BD040600B7040600B1040500AC63
:10159000040600A6040600A00405009B04060095AE
:1015A000040500900406008A0405008504050080F7
:1015B0000406007A04050075040500700405006B3C
:1015C00004050066040500610405005C040500577D
:1015D000040500520405004D0405004804050043BD
:1015E0000405003E0404003A0405003504050030FB
:1015F0000404002C04050027040400230405001E35
:101600000404001A04040016040500110404000D6B
:10161000040400090405000404040000040400FCA0
:10162000030400F8030400F4030400F0030400ECD6
:10163000030400E8030400E4030400E0030400DC06
:10164000030400D8030400D4030400D0030400CC36
:10165000030400C8030300C503030024F404D920D5
:101660001BC40C5C0E9804C4095F0265077101F489
:1016700005F900FB04B30048048700C10369005862
:1016800003550003034500BE023A008402310053B3
:10169000022A002902250004022000E4011C00C8DF
:1016A000011900AF011700980114008401130071A3
:1016B0000110006101100051010E0043010D0036C0
:1016C000010B002B010B0020010B00150109000C80
:1016D00001090003010800FB000800F3000800EB0B
:1016E000000700E4000600DE000600D8000600D275
:1016F000000600CC000500C7000500C2000500BDC3
:10170000000400B9000400B5000400B1000400ADFD
:10171000000400A9000400A5000300A20003009F2C
:101720000004009B00030098000300950002009352
:10173000000300900003008D0002008B000300886E
:101740000002008600020084000300810002007F86
:101750000002007D0002007B000200790002007799
:1017600000010076000200740002007200010071A6
:101770000002006F0002006D0001006C0002006AB0
:1017800000010069000200670001006600010065B9
:1017900000010064000200620001006100010060BD
:1017A0000001005F0002005D0001005C0001005BC1
:1017B0000001005A000100590001005800010057C3
:1017C00000010056000100550001005400010053C3
:1017D00000000053000100520001005100010050C0
:1017E0000001004F0001004E0000004E0001004DBE
:1017F0000001004C0001004B0000004B0001004ABA
:1018000000010049000100480000004800010047B5
:1018100000010046000000460001004500000045B0
:1018200000010044000100430000004300010042A9
:1018300000000042000100410000004100010040A2
:101840000001003F0000003F0001003E0000003E9C
:101850000001003D0000003D0001003C0000003C94
:101860000000003C0001003B0000003B0001003A8A
:101870000000003A00010039000000390001003882
:101880000000003800000038000100370000003779
:10189000000100360000003600000036000100356F
:1018A0000000003500000035000100340000003465
:1018B000000000340001003300000033000000335A
:1018C000000100320000003200000032000100314F
:1018D0000000003100000031000100300000003045
:1018E000000000300001002F0000002F0000002F3A
:1018F0000000002F0001002E0000002E0000002E2E
:101900000001002D0000002D0000002D0000002D22
:101910000001002C0000002C0000002C0000002C16
:101920000001002B0000002B0000002B0000002B0A
:101930000001002A0000002A0000002A0000002AFE
:1019400000010029000000290000002900000029F2
:1019500000000029000100280000002800000028E5
:1019600000000028000000280001002700000027D8
:1019700000000027000000270000002700010026CB
:1019800000000026000000260000002600000026BF
:1019900000010025000000250000002500000025B2
:1019A00000000025000000250001002400000024A4
:1019B0000000002400000024000000240001002397
:1019C000000000230000002300000023000000238B
:1019D000000000230000002300010022000000227C
:1019E000000000220000002200000022000000226F
:1019F0000001002100000021000000210000002162
:101A00000000002100000021000000210001002052
:101A10000000002000000020000000200000002046
:101A20000000002000000020000000200001001F36
:101A30000000001F0000001F0000001F0000001F2A
:101A40000000001F0000001F0001001E0000001E1B
:101A50000000001E0000001E00000024F4D43050DE
:101A6000C38E20C2A24017828B7011127A910D8111
:101A70006CD90AA861E108C7586607615143061E80
:101A80004B5D05C145A7041A411104093D98037136
:101A90003931034036DB0265339102D43054028081
:101AA0002E1D02632CEE01752AC501B028A001107D
:101AB0002781018F2564012B244B01E0223401ACE6
:101AC000211F018D200D01801FFC00841EED009759
:101AD0001DDF00B81CD200E61BC600201BBC006442
:101AE0001AB200B219A8000A19A0006A189900D108
:101AF00017910040178B00B516840031167E00B395
:101B00001579003A157300C7146F0058146A00EE77
:101B10001366008813630025135E00C7125B006C18
:101B200012570015125400C111510070114F0021BD
:101B3000114B00D61049008D10470046104400029A
:101B4000104200C00F4000800F3E00420F3C0006D4
:101B50000F3B00CB0E3800930E37005C0E3500278C
:101B60000E3400F30D3200C10D3100900D300060D5
:101B70000D2E00320D2D00050D2C00D90C2B00AEC2
:101B80000C2900850C29005C0C2700350C27000E61
:101B90000C2600E80B2400C40B2400A00B23007DBE
:101BA0000B23005A0B2100390B2100180B2000F8E1
:101BB0000A1F00D90A1E00BB0A1E009D0A1D0080D4
:101BC0000A1D00630A1C00470A1B002C0A1B001197
:101BD0000A1A00F7091A00DD091900C4091900AB37
:101BE000091900920917007B091800630917004CB6
:101BF00009160036091600200916000A091500F515
:101C0000081500E0081400CC081400B8081400A45B
:101C1000081400900813007D0812006B0813005888
:101C2000081200460812003408110023081100129F
:101C300008110001081100F0071000E0071000D0A3
:101C4000071000C0071000B0070F00A10710009197
:101C5000070E0083070F0074070F0065070E00577B
:101C6000070E0049070E003B070D002E070E00204F
:101C7000070D0013070D0006070D00F9060C00ED17
:101C8000060D00E0060C00D4060C00C8060C00BCD3
:101C9000060C00B0060C00A4060B0099060C008D83
:101CA000060B0082060B0077060B006C060B00612A
:101CB000060A0057060B004C060A0042060A0038C6
:101CC000060A002E060A0024060A001A060A001058
:101CD00006090007060A00FD050900F4050900EBE6
:101CE000050900E2050900D9050900D0050900C76A
:101CF000050900BE050900B5050800AD050800A5E9
:101D00000509009C050800940508008C050800845E
:101D10000508007C050800740508006C05070065CF
:101D20000508005D050700560508004E0507004739
:101D30000507004005080038050700310507002A9F
:101D4000050700230507001C050600160507000F00
:101D50000507000805060002050700FB040600F55C
:101D6000040700EE040600E8040600E2040700DBB6
:101D7000040600D5040600CF040600C9040600C30B
:101D8000040600BD040600B7040600B1040500AC5B
:101D9000040600A6040600A00405009B04060095A6
:101DA000040500900406008A0405008504050080EF
:101DB0000406007A04050075040500700405006B34
:101DC00004050066040500610405005C0405005775
:101DD000040500520405004D0405004804050043B5
:101DE0000405003E0404003A0405003504050030F3
:101DF0000404002C04050027040400230405001E2D
:101E00000404001A04040016040500110404000D63
:101E1000040400090405000404040000040400FC98
:101E2000030400F8030400F4030400F0030400ECCE
:101E3000030400E8030400E4030400E0030400DCFE
:101E4000030400D8030400D4030400D0030400CC2E
:101E5000030400C8030300C50303001000C90210F7
:101E6000012C014001220170011801B0010E01F0A6
:101E70000104015002FA00B002F0003003E600D085
:101E800003DC009004D2007005C800A006BE00006C
:101E900008B400B009AA00D00BA000600E96006044
:101EA000118C000015820020197800C01D6E00A062
:101EB000226400B0275A00902C500000314600E008
:101EC000343C0010383200903A2800603C1E00A0DC
:101ED0003D1400803E0A00203F00001000C902E0CF
:101EE0000004010001FA003001F0007001E600B0CA
:101EF00001DC00F001D2005002C800F002BE0090E8
:101F000003B4004004AA004005A00040069600006B
:101F1000088C00B0098200D00B7800600E6E006063
:101F200011640000155A0020195000C01D4600A081
:101F3000223C00B0273200902C280000311E00E027
:101F400034190010381400903A0F00603C0A00A0C9
:101F50003D0500803E0200203F00001000AA03F073
:101F6000013A019002220130031001D003020170F6
:101F700004F7001005ED00B005E5005006DD00F0A7
:101F800006D7009007D1003008CC00D008C70070F9
:101F900009C300100ABE00B00ABB00500BB700F026
:101FA0000BB300900CB000D00DAA00100FA500508C
:101FB00010A00090119B00D0129600B014900090D9
:101FC000168B0070188500501A8000301C7B00B002
:101FD0001E750030216F00B02369003026640010A8
:101FE000285F00902A5A00702C5500F02E4F007088
:101FF000314800B0324500F03341007036390010EE
:102000003737005038330090392D00D03A2700B0D0
:102010003C1C00503D1700F03D1100903E0900D0DF
:102020003FE5FF473239004732380A473239004727
:102030003239004732380A4732390047323820589F
:1020400000473238205900473238205A004732388A
:102050000A4D343820503130004D38340047323981
:102060002050342052393939205400473239205019
:10207000342054004732380A473236204320423653
:102080003520483233302050004732380A47323644
:102090002043204231313020483234302050004734
:1020A0003239204A30004732392050332054300032
:1020B0004732392050322042205430004732380A0B
:1020C0004D313930205336350A4D313039205332B5
:1020D00033300A4732392050310A4D3130342053E1
:1020E000300A4D313430205330004732380A4D31F8
:1020F000393020533131300A4D31303920533234A8
:10210000300A4732392050310A4D313034205330B3
:102110000A4D313430205330004732380A473239C3
:1021200020503100473239205031204300473239A6
:102130002049004732392054300047323920543189
:102140000047323920532D3100473239204939397F
:10215000390A473239205032204220543000473269
:10216000380A473239205031004732392050332065
:1021700054300047323920503420523939392054F4
:102180000047323920503420523939392054004721
:102190003239204400473239204100473239205734
:1021A00000417869732000206D696E3A00206D61EE
:1021B000783A000600000701000500070100070645
:1021C000000000070005005A5249425F5632305F56
:1021D00044395F50494E005A5249425F5632305F8F
:1021E00044365F50494E005A5F53544F505F504938
:1021F0004E005A5F535445505F50494E005A5F4D50
:10220000494E5F50494E005A5F454E41424C455F32
:1022100050494E005A5F4449525F50494E005A5F40
:1022200043535F50494E00595F53544F505F5049DC
:102230004E00595F535445505F50494E00595F4D11
:10224000494E5F50494E00595F454E41424C455FF3
:1022500050494E00595F4449525F50494E00595F02
:1022600043535F50494E00585F53544F505F50499D
:102270004E00585F535445505F50494E00585F4DD3
:10228000494E5F50494E00585F454E41424C455FB4
:1022900050494E00585F4449525F50494E00585FC4
:1022A00043535F50494E0053535F50494E005345CE
:1022B00052564F335F50494E00534552564F325F8E
:1022C00050494E00534552564F315F50494E0053CE
:1022D0004552564F305F50494E00534453530053BC
:1022E000445F4445544543545F50494E0053434B6B
:1022F0005F50494E0052414D50535F44395F504941
:102300004E0052414D50535F44385F50494E005289
:10231000414D50535F4431305F50494E004F524958
:10232000475F45335F4155544F5F46414E5F5049CB
:102330004E004F5249475F45325F4155544F5F460B
:10234000414E5F50494E004F5249475F45315F4112
:1023500055544F5F46414E5F50494E004F524947DA
:102360005F45305F4155544F5F46414E5F50494E87
:10237000004D4F53495F50494E004D4F5346455411
:102380005F445F50494E004D49534F5F50494E00E6
:102390004D4158363637355F53535F50494E004CE8
:1023A00045445F50494E004C43445F50494E535F93
:1023B0005253004C43445F50494E535F454E414297
:1023C0004C45004C43445F50494E535F4437004CEA
:1023D00043445F50494E535F4436004C43445F5082
:1023E000494E535F4435004C43445F50494E535F60
:1023F0004434004B494C4C5F50494E0048454154D1
:1024000045525F4245445F50494E0048454154455E
:10241000525F315F50494E004845415445525F304C
:102420005F50494E0046494C5F52554E4F55545FE0
:1024300050494E0046414E5F50494E0045315F5372
:102440005445505F50494E0045315F454E41424C26
:10245000455F50494E0045315F4449525F50494EF7
:102460000045315F43535F50494E0045315F415550
:10247000544F5F46414E5F50494E0045305F5354C4
:1024800045505F50494E0045305F454E41424C45F6
:102490005F50494E0045305F4449525F50494E00FD
:1024A00045305F43535F50494E0045305F415554BE
:1024B0004F5F46414E5F50494E00455F4D55583283
:1024C0005F50494E00455F4D5558315F50494E00B1
:1024D000455F4D5558305F50494E00444F474C437F
:1024E000445F53434B00444F474C43445F4D4F536D
:1024F000490042544E5F454E430042544E5F454EA4
:10250000320042544E5F454E3100424545504552DF
:102510005F50494E004156525F53535F50494E0041
:102520004156525F53434B5F50494E004156525FF4
:102530004D4F53495F50494E004156525F4D4953EC
:102540004F5F50494E0054584430005258443000B8
:10255000434F4D4D554E49434154494F4E0044520F
:102560005952554E004552524F525300494E464F14
:10257000004543484F004572726F7220777269744C
:10258000696E6720746F20454550524F4D210A00F7
:10259000363726033C3D380E2E303E121A1C1824C6
:1025A000221E08440A064307064508090001535441
:1025B0004F505045442E20005072696E7465722051
:1025C00073746F707065642064756520746F206526
:1025D00072726F72732E2046697820746865206568
:1025E00072726F7220616E6420757365204D393987
:1025F0003920746F20726573746172742E202854B0
:10260000656D70657261747572652069732072659D
:102610007365742E20536574206974206166746537
:10262000722072657374617274696E67290A004E54
:102630006F20436865636B73756D207769746820DC
:102640006C696E65206E756D6265722C204C6173CD
:1026500074204C696E653A2000636865636B73751E
:102660006D206D69736D617463682C204C617374A7
:10267000204C696E653A20004C696E65204E756D80
:10268000626572206973206E6F74204C61737420D0
:102690004C696E65204E756D6265722B312C204C35
:1026A000617374204C696E653A20004D3131300001
:1026B0002121204B494C4C20636175736564206275
:1026C00079204B494C4C20627574746F6E2F706981
:1026D0006E0A002121204B494C4C206361757365C3
:1026E0006420627920746F6F206D75636820696E55
:1026F0006163746976652074696D65202D2063754A
:102700007272656E7420636F6D6D616E643A200045
:10271000506C656173652052657365740050524951
:102720004E5445522048414C5445440025533A20CC
:102730002553004B494C4C45442E20005072696E85
:102740007465722068616C7465642E206B696C6CB2
:1027500028292063616C6C6564210A006563686FD9
:102760003A004572726F723A00204A0020204D34C0
:1027700032312049002020473239204939390A00B6
:102780006163746976650A00696E0000205379738D
:1027900074656D2076312E303120002020207C0A97
:1027A000004E414E0020202E20202000207C004C96
:1027B00043443A0A004353563A0A0020666F722097
:1027C000003A0A0A000A42656420546F706F67720B
:1027D00061706879205265706F727400446F6E6525
:1027E0002E0A003F496E76616C69642073746F72C3
:1027F00061676520736C6F742E0A3F5573652030D6
:1028000020746F20003F454550524F4D2073746F28
:1028100072616765206E6F7420617661696C6162B8
:102820006C652E0A00446F6E652E0A003F496E7675
:10283000616C69642073746F7261676520736C6F7B
:10284000742E0A3F557365203020746F20003F4579
:102850004550524F4D2073746F72616765206E6FE3
:102860007420617661696C61626C652E0A00473282
:10287000392050322066696E69736865642E0A00DB
:102880005859206F757473696465207072696E742D
:1028900061626C65207261646975732E0A003F4540
:1028A00072726F7220696E20427573696E65737300
:1028B0002043617264206D6561737572656D656E2C
:1028C000742E0A004D616E75616C6C792070726FA8
:1028D00062696E6720756E726561636861626C65BE
:1028E000206D657368206C6F636174696F6E732E01
:1028F0000A00292E0A0A0050726F62696E67206111
:10290000726F756E642028004D65736820696E765D
:10291000616C6964617465642E2050726F62696EC7
:1029200067206D6573682E0A004D657368207A65AF
:10293000726F65642E0A0044656661756C7420735D
:10294000746F7261676520736C6F742030207365DB
:102950006C65637465642E0A004C6F6164696E6710
:1029600020746573745F7061747465726E20766133
:102970006C7565732E0A0A00496E76616C69642075
:10298000746573745F7061747465726E2076616CC7
:1029900075652E20282D3120746F2032290A0A00F7
:1029A0004C6F636174696F6E7320696E76616C69D8
:1029B00064617465642E0A0A00456E74697265204C
:1029C0004D65736820696E76616C696461746564D5
:1029D0002E0A0A005374616E646172642044657645
:1029E000696174696F6E3A20004D65616E204D65B6
:1029F0007368204865696768743A200023206F6611
:102A00002073616D706C65733A20000A4D657368C0
:102A1000206F6E6C79207061727469616C6C7920C2
:102A2000706F70756C617465642E0A0A0050726F65
:102A300062696E6720506F696E74002553202569A6
:102A40002F2569002E0A0A002F000A50726F626952
:102A50006E67206D65736820706F696E742000204A
:102A6000616E642074616B652061206D65617375B2
:102A700072656D656E742E0A006D6D2074686963F1
:102A80006B2E0A00427573696E6573732043617221
:102A900064206973200052656D6F76652026204D95
:102AA000656173757265204265640052656D6F766D
:102AB00065207368696D00506C6163652073686997
:102AC0006D20756E646572206E6F7A7A6C65004D4C
:102AD00065736820506F696E74204D6561737572FF
:102AE00065642061743A20000A4D657368206F6E3A
:102AF0006C79207061727469616C6C7920706F7090
:102B0000756C617465642E0A004D6561737572653C
:102B100000506C616365205368696D2026204D6507
:102B20006173757265004D6F76696E6720746F20F2
:102B30006E657874004D6573682045646974696ECC
:102B4000672053746F7070656400446F6E65204534
:102B5000646974696E67204D6573680A00446F6E1E
:102B6000652045646974696E67204D657368004629
:102B7000696E652054756E696E67204D65736800D7
:102B800028582C5929206F757473696465207072F8
:102B9000696E7461626C65207261646975732E0A76
:102BA000004F6666736574206F7574206F662062CF
:102BB0006F756E64732E20283020746F2031306D55
:102BC0006D290A0A00496E76616C6964206D617036
:102BD00020747970652E0A0A003F284629616465D1
:102BE0002068656967687420666F7220426564209A
:102BF0004C6576656C20436F7272656374696F6EA5
:102C0000206E6F7420706C61757369626C652E0A3A
:102C10000A003F43616E27742061637469766174B2
:102C20006520616E642064656163746976617465B2
:102C3000206174207468652073616D652074696D0E
:102C4000652E0A0A00426F746820582026205920F9
:102C50006C6F636174696F6E73206D75737420623D
:102C600065207370656369666965642E0A0A003FB2
:102C7000496E76616C696420677269642073697A51
:102C80006520284A29207370656369666965642038
:102C900028322D39292E0A0A003F285029686173ED
:102CA000652076616C756520696E76616C6964205B
:102CB00028302D36292E0A0A003F285629657262CF
:102CC0006F7365206C6576656C20696D706C6175DD
:102CD0007369626C652028302D34292E0A0A003F62
:102CE000285229657065746974696F6E20636F7509
:102CF0006E7420696E76616C69642028312B292EF0
:102D00000A0A00446F696E672047323900C221BD4C
:102D100021B821B3215D0A0062656420706C616E88
:102D200065206E6F726D616C203D205B00436F7596
:102D30006C64206E6F7420636F6D706C65746520B9
:102D40004C53462100436F727265637465645F5A29
:102D50003D0025532025692F2569000A0A002F0010
:102D600054696C74696E67206D65736820706F6953
:102D70006E7420003F4572726F722070726F6269CC
:102D80006E6720706F696E742E2041626F72746975
:102D90006E67206F7065726174696F6E2E0A0043F2
:102DA0006F727265637465645F5A3D00255320330A
:102DB0002F330054696C74696E67206D65736820E9
:102DC00028332F33290A00436F7272656374656478
:102DD0005F5A3D00255320322F330054696C7469CB
:102DE0006E67206D6573682028322F33290A0043EF
:102DF0006F727265637465645F5A3D0054696C74E8
:102E0000696E6720506F696E7400255320312F332F
:102E10000054696C74696E67206D65736820283191
:102E20002F33290A00646F6E650A00496E73756658
:102E300066696369656E7420646174610A000000EC
:102E4000004055554D425555C94200001643555551
:102E50004743AAAA78430000954300000040ABAA6C
:102E60004642ABAAC24200001143ABAA40435655AA
:102E70007043000090434578747261706F6C6174A8
:102E8000696E67206D6573682E2E2E00486F74651D
:102E90006E6420746F6F20636F6C640A00507265FB
:102EA000737320627574746F6E20746F2072657313
:102EB000756D650A00496E736572742066696C6190
:102EC0006D656E7420616E6420707265737320622C
:102ED0007574746F6E0A0050726573732062757436
:102EE000746F6E20746F2068656174206E6F7A7ADB
:102EF0006C650A004D3630303A20546F6F20436FB6
:102F00006C6400486F74656E6420746F6F20636F2B
:102F10006C640A004732362048656174696E672028
:102F20004E6F7A7A6C650047323620486561746965
:102F30006E67204265640057616974696E67206638
:102F40006F72206865617475702E0A004669786535
:102F500064204C656E677468205072696D6500442A
:102F60006F6E65205072696D696E67004D616E7598
:102F7000616C207072696D696E672E2E2E0047326B
:102F8000362043616E63656C6564004C65617669EB
:102F90006E6720473236003F537065636966696526
:102FA0006420582C5920636F6F7264696E61746578
:102FB000206F7574206F6620626F756E64732E0AC1
:102FC000003F28522965706561742076616C7565D3
:102FD000206E6F7420706C61757369626C653B2044
:102FE0006D757374206265206174206C6561737403
:102FF00020312E0A003F537065636966696564205D
:103000006E6F7A7A6C652074656D70657261747527
:103010007265206E6F7420706C61757369626C6587
:103020002E0A003F537065636966696564206669AE
:103030006C616D656E742073697A65206E6F7420A3
:10304000706C61757369626C652E0A003F53706520
:10305000636966696564207072696D65206C656E70
:10306000677468206E6F7420706C61757369626C30
:10307000652E0A003F537065636966696564206E5A
:103080006F7A7A6C652073697A65206E6F74207030
:103090006C61757369626C652E0A003F52657472CB
:1030A000616374696F6E204D756C7469706C6965CD
:1030B00072206D7573742062652073706563696634
:1030C0006965642E0A003F537065636966696564CB
:1030D0002052657472616374696F6E204D756C74F3
:1030E00069706C696572206E6F7420706C617573A5
:1030F00069626C652E0A003F537065636966696595
:1031000064206C6179657220686569676874206EF7
:103110006F7420706C61757369626C652E0A004370
:10312000292E0A003F5370656369666965642062F1
:1031300065642074656D7065726174757265206E6A
:103140006F7420706C61757369626C65202834300F
:103150002D00473236207374617274696E672E2EAB
:103160002E0A004F46460A0046616465204865699C
:103170006768742000426564204C6576656C696EF2
:103180006720004661696C656420746F20656E611C
:10319000626C6520426564204C6576656C696E677B
:1031A0000A00496E76616C6964206D6573682E0A49
:1031B0000076616C69640A53746F7261676520738D
:1031C0006C6F743A2000696E004D657368206973F6
:1031D00020003F557365203020746F20003F496EFA
:1031E00076616C69642073746F7261676520736CBB
:1031F0006F742E0A003F454550524F4D2073746F37
:1032000072616765206E6F7420617661696C6162BE
:103210006C652E0A0020204261636B3A200020205A
:1032200046726F6E743A2000202052696768743AC3
:10323000200020204C6566743A20002020546F70D6
:103240003A200053696465733A0A0043656E7465F9
:10325000723A0A002020546F703A20002020426108
:10326000636B3A2000202046726F6E743A20002073
:103270002052696768743A200020204C6566743AD1
:1032800020004261636B6C6173683A0A004E6F7A8A
:103290007A6C6520546970204F757465722044699A
:1032A0006D656E73696F6E733A0A0020506F7369B3
:1032B00074696F6E616C204572726F723A0A0020F9
:1032C000486F74656E64204F66667365742058009D
:1032D000540020284E6F7420796574206D656173E9
:1032E00075726564290020204176657261676520EA
:1032F0006D65617375726564206261636B6C617387
:103300006820286D6D293A0020204261636B6C6152
:1033100073682044697374616E636520286D6D293C
:103320003A202020202020202000202846312E3046
:10333000203D2066756C6C2C2046302E30203D20C0
:103340006E6F6E65290A002020436F727265637488
:10335000696F6E20416D6F756E742F466164652DC7
:103360006F75743A202020202046006163746976CE
:10337000653A0A00696E004261636B6C6173682094
:10338000436F7272656374696F6E2000446576697D
:103390006174696F6E0025533A2025730053746180
:1033A0006E6461726420446576696174696F6E3A17
:1033B00020002052616E67653A2000204D61783A06
:1033C0002000204D696E3A20004D65616E3A200064
:1033D00046696E6973686564210A002072616E67D0
:1033E000653A2000206D61783A2000206D696E3AC0
:1033F0002000207369676D613A2000206D65616E61
:103400003A20003A207A3A2000206F662000476F69
:10341000696E6720746F3A20580043570A00206491
:1034200069723A0020616E676C653A00537461728C
:1034300074207261646975733A004D343820506F9E
:10344000696E740025533A2025642F256400506F5F
:10345000736974696F6E696E672074686520707235
:103460006F62652E2E2E0A003F4E756D62657220CA
:103470006F66206C65677320696E206D6F76656D71
:10348000656E74206E6F7420706C61757369626C08
:10349000652028302D3135292E0A003F2028582C50
:1034A0005929206F7574206F6620626F756E647382
:1034B0002E0A003F53616D706C652073697A652038
:1034C0006E6F7420706C61757369626C652028344E
:1034D0002D3530292E0A004D3438205A2D50726F68
:1034E0006265205265706561746162696C697479A6
:1034F00020546573740A003F2856296572626F7301
:1035000065206C6576656C20696D706C617573699A
:10351000626C652028302D34292E0A0050574D3A10
:1035200020202534640050574D3A20202534640073
:1035300050574D3A20202534640050574D3A2020F2
:103540002534640050574D3A2020253464005057EC
:103550004D3A20202534640050574D3A2020253420
:10356000640050574D3A20202534640050574D3A9E
:1035700020202534640050574D3A20202534640023
:1035800050574D3A20202534640050574D3A2020A2
:103590002534640050574D3A20202534640050579C
:1035A0004D3A20202534640050574D3A20202534D0
:1035B000640050574D3A2020253464003A20002002
:1035C000202020434F4D002020206E6F6E2D7374FD
:1035D000616E646172642050574D206D6F646500A8
:1035E000202020636F6D7061726520696E74657252
:1035F0007275707420656E61626C656400202020B5
:103600006F766572666C6F7720696E74657272751D
:10361000707420656E61626C6564003A2000202041
:10362000202054494D534B00423A200020202020B6
:103630005443435200413A20002020202054434369
:1036400052002020202043533A20002020202057E1
:10365000474D3A200050574D3A2020253464005001
:10366000574D3A2020253464004700480000008868
:10367000008A008C00B300B400000098009A009CFF
:1036800000A800AA00AC0028012A012C012020205B
:103690002054494D455200440045006E0080008191
:1036A000006F00B000B1007000900091007100A0A8
:1036B00000A10072002001210173002069732061C4
:1036C0006C736F207469656420746F20746869730B
:1036D0002070696E0054494D45523143000A202E36
:1036E000002020002020506F72743A2000202020FB
:1036F00000202020416E616C6F6720696E203D20A4
:1037000025356C64003C756E757365642F756E6B42
:103710006E6F776E3E0020284125326429202000FC
:103720002533642000257350494E3A20004F7574AC
:10373000707574203D2000496E70757420203D2006
:1037400000416E616C6F6720696E203D2025356CED
:10375000640070726F746563746564200020284192
:103760002532642920200025336420002573504928
:103770004E3A20004B250001462501013925320132
:103780002C25330120253401152535010A25250175
:1037900002251F01FA242101F2242301E62433012A
:1037A000DB243401D0242801C5242A01BA242C01A9
:1037B000AA240601A0242A0195241C0187241801AB
:1037C0007B241A016B24060161242C01562422015A
:1037D00048241E013C242401342409012524040129
:1037E00018240A010B240701FC230801F3232901F3
:1037F000E7231701DB231901CF231B01C3231D017D
:10380000B3231101A72310019F230D01902342012F
:10381000872332017A230701712333015C230601D8
:1038200047230601322306011D2306010F230A0147
:1038300002230801F5220901ED223401DF223101C2
:10384000DA223501CF220F01C4220601B922050177
:10385000AE220401A72235019E22350194223701B0
:10386000872226017D22030172223601672203018D
:103870005E22310154223D01472238013D220E01D2
:1038800032223C0127220E011E222801142230017F
:1038900007223E01FD211201F2212E01E721120132
:1038A000D7210601C7210901446F6E652E0A005A0F
:1038B0005F50524F42455F534552564F5F4E522024
:1038C0006E6F74207365742075702E0A00576174D2
:1038D0006368696E672070696E730A0064697300BB
:1038E000656E0061626C65640A00656E6473746F76
:1038F00070206D6F6E69746F7220003A2000205343
:103900006572766F2000206F7574206F662072617B
:103910006E67650A00536572766F2000290A0020E1
:103920004B0028536C6F742000204B002053004143
:103930006476616E63652054003F4C2076616C753F
:1039400065206F7574206F662072616E6765202830
:10395000302D3130292E0A003F4B2076616C756581
:10396000206F7574206F662072616E676520283045
:103970002D3130292E0A003F542076616C75652068
:103980006F7574206F662072616E67652E0A00572E
:1039900061726E696E67203A20436C65616E2043E8
:1039A0006972636C65207265717569726573205800
:1039B000590A0020496E76616C69642065787472DA
:1039C00075646572200047322F473320626164209E
:1039D000706172616D65746572730A00536C656520
:1039E000702E2E2E005A2050726F62652050617327
:1039F00074204265640A005A2050726F626520503C
:103A00006173742042656400486F6D6520585920C9
:103A100066697273740A00486F6D652058592046B4
:103A20006972737400205A3A200020593A200042EB
:103A3000656420583A20004D65736820706F696E88
:103A4000742063616E6E6F74206265207265736F9F
:103A50006C7665640A00436C69636B20746F205256
:103A60006573756D652E2E2E004E6F204D6F766539
:103A70002E002569730025696D202569730025696D
:103A8000682025696D2025697300256964202569F2
:103A9000682025696D2025697300256979202569CD
:103AA00064202569682025696D202569730050729E
:103AB000696E742074696D653A2000436F6F6C699C
:103AC0006E672E2E2E0048656174696E672E2E2E4D
:103AD00000452563202553006F6B006F66660071FB
:103AE000256C2565255E25502544454255473A00FD
:103AF0004D3131322053687574646F776E004265C2
:103B00006420436F6F6C696E672E2E2E00426564D1
:103B10002048656174696E672E2E2E005A38523225
:103B2000204F46462E004348414D4245525F544582
:103B30004D5045524154555245004D4F54494F4EFA
:103B40005F4D4F44455300544845524D414C5F50E2
:103B5000524F54454354494F4E004155544F5245DE
:103B6000504F52545F53445F535441545553005087
:103B7000524F4D50545F535550504F525400454D85
:103B8000455247454E43595F5041525345520043B9
:103B90004153455F4C494748545F42524947485456
:103BA0004E45535300544F47474C455F4C49474897
:103BB000545300534F4654574152455F504F574559
:103BC00052004255494C445F50455243454E5400C3
:103BD0004C4556454C494E475F44415441005A5F5D
:103BE00050524F4245004155544F4C4556454C00AC
:103BF0005052494E545F4A4F420050524F4752452F
:103C00005353004155544F5245504F52545F544501
:103C10004D5000564F4C554D455452494300454573
:103C200050524F4D0042494E4152595F46494C4512
:103C30005F5452414E534645520053455249414C00
:103C40005F584F4E5F584F4646004649524D5741C8
:103C500052455F4E414D453A4D61726C696E20325E
:103C60002E302E342E34202847697448756229205E
:103C7000534F555243455F434F44455F55524C3A6D
:103C800068747470733A2F2F6769746875622E6355
:103C90006F6D2F4D61726C696E4669726D776172DE
:103CA000652F4D61726C696E2050524F544F434FD7
:103CB0004C5F56455253494F4E3A312E30204D41BC
:103CC0004348494E455F545950453A5A385232207C
:103CD00045585452554445525F434F554E543A321D
:103CE00020555549443A63656465326132662D3426
:103CF0003161322D343734382D396231322D63350C
:103D0000356336326633363766660A002F2F200059
:103D10004D31343520533C696E6465783E206F75B3
:103D200074206F662072616E67652028302D3129FE
:103D30000A00416363656C65726174696F6E004669
:103D40006565647261746500205200416363656C4F
:103D500065726174696F6E3A2050003F4A206F753A
:103D600074206F662072616E67652028302E3031B6
:103D700020746F20302E33290A004F4646004F4EE4
:103D80000020204D61783A2000200020204D696EEF
:103D90003A2000536F667420656E6473746F70739D
:103DA0003A2000486F74656E64206F6666736574B0
:103DB000733A0020466C6F773A200050726F74653A
:103DC000637465642050696E0A00496E76616C699F
:103DD000642065787472756465720A0020643A0024
:103DE00020693A0020703A0020653A006469730047
:103DF000656E0043290A0061626C656420286D6964
:103E00006E2074656D702000436F6C64206578745B
:103E100072756465732061726520004D657368205A
:103E2000706F696E742063616E6E6F7420626520BE
:103E30007265736F6C7665640A004D3432312069A7
:103E40006E636F727265637420706172616D657408
:103E500065722075736167650A00454550524F4D84
:103E6000204F4B0A00446966663A200046726F6D27
:103E70005374703A00537465707065723A00556EF1
:103E80004C6576656C3A004C6576656C65643A0005
:103E90005261773A20202020000A4C6F67696361E5
:103EA0006C3A00436F756E7420453A004361703A76
:103EB0000050726F62696E67204661696C65640AC2
:103EC0000050726F62696E67204661696C656400BC
:103ED000205A3A200020593A200042656420583A7E
:103EE0002000290A0020746F20003F5A206F75744B
:103EF000206F662072616E6765202800290A002005
:103F0000746F20003F59206F7574206F66207261B6
:103F10006E676520282D00290A0020746F20003F5D
:103F200058206F7574206F662072616E6765202857
:103F30002D0050726F6265204F666673657420585D
:103F400000220A00656E7175657565696E672022CD
:103F5000006F6B00526573656E643A2000236465E0
:103F600066696E652044454641554C545F004B647C
:103F700020004B6920004B702000504944204175BF
:103F8000746F74756E652066696E69736865642107
:103F90002050757420746865206C617374204B70B8
:103FA0002C204B6920616E64204B6420636F6E731C
:103FB00074616E74732066726F6D2062656C6F77CA
:103FC00020696E746F20436F6E66696775726174E5
:103FD000696F6E2E680A00504944204175746F74F1
:103FE000756E65206661696C6564212074696D6514
:103FF0006F75740A00504944204175746F74756E72
:1040000065206661696C6564212054656D70657218
:10401000617475726520746F6F20686967680A0043
:10402000204B643A2000204B693A2000204B703A24
:1040300020000A20436C6173736963205049442057
:104040000A00204B643A2000204B693A2000204BA4
:10405000703A20000A204E6F206F76657273686F89
:104060006F740A002054753A2000204B753A2000E6
:10407000206D61783A2000206D696E3A200020643E
:104080003A200020626961733A200050494420417F
:1040900075746F74756E652073746172740A005064
:1040A0004944204175746F74756E65206661696C52
:1040B0006564212054656D70657261747572652048
:1040C000746F6F20686967680A0050494420417521
:1040D000746F74756E65206661696C656421204239
:1040E0006164206578747275646572206E756D62A6
:1040F00065720A004572723A207574663820666FE0
:104100006E74206E6F7420696E697469616C697A6F
:1041100065642E004572723A207574663820666FA9
:104120006E74206E6F7420696E697469616C697A4F
:1041300065642E004572723A207574663820666F89
:104140006E74206E6F7420696E697469616C697A2F
:1041500065642E00000C0D00FE07022603BC017FE3
:10416000FE08FE08FE05080806000040F0C8888822
:10417000987810050808060000C0F88888888888A4
:10418000F80505050600012030F83020050808066E
:1041900000002070F820202020E00509090600FF1B
:1041A0002070A8A8B888887020050606060001E0DF
:1041B0008CEA8C8A0A0509090600FFF8A888888815
:1041C0008888A8F8050A0A0600FE2050505050883A
:1041D000A8A8887003030306000340A040FFFFFF68
:1041E000FFFFFFFFFFFFFFFFFFFFFFFFFFFFFFFFDF
:1041F000FFFFFF0000000605FF0107070602008021
:10420000808080800080030303060105A0A0A00534
:10421000060606000050F85050F85005090906003F
:10422000FF2070A8A07028A87020050707060000CE
:10423000C8C8102040989805070706000040A0A0B5
:1042400040A89068010303060205808080030909E5
:104250000601FF204040808080404020030909067D
:1042600001FF8040402020204040800507070600D5
:104270000020A8702070A820050505060001202058
:10428000F820200203030601FFC04080050101065B
:104290000003F8020202060100C0C005070706007D
:1042A00000081010204040800507070600007088B5
:1042B00098A8C8887003070706010040C040404026
:1042C00040E0050707060000708808102040F80548
:1042D0000707060000F80810300888700507070671
:1042E000000010305090F81010050707060000F885
:1042F00080F008088870050707060000304080F04D
:10430000888870050707060000F808101020202094
:104310000507070600007088887088887005070701
:104320000600007088887808106002050506010004
:10433000C0C000C0C00206060601FFC0C000C040E9
:104340008003050506010120408040200503030687
:104350000002F800F80305050601018040204080B6
:1043600005070706000070881020200020050707B9
:104370000600007088B8A8B880700507070600001E
:10438000708888F8888888050707060000F0484884
:10439000704848F005070706000070888080808814
:1043A00070050707060000F04848484848F0050730
:1043B00007060000F88080F08080F80507070600F7
:1043C00000F88080F0808080050707060000708874
:1043D0008080988870050707060000888888F8881C
:1043E0008888030707060100E04040404040E005A0
:1043F0000707060000381010101090600507070628
:1044000000008890A0C0A0908805070706000080E3
:104410008080808080F805070706000088D8A8887B
:104420008888880507070600008888C8A8988888B3
:1044300005070706000070888888888870050707C8
:10444000060000F08888F0808080050707060000DD
:1044500070888888A89068050707060000F088889B
:10446000F0A0908805070706000070888070088813
:1044700070050707060000F82020202020200507EF
:104480000706000088888888888870050707060066
:104490000088888888505020050707060000888813
:1044A0008888A8A850050707060000888850205073
:1044B00088880507070600008888502020202005EE
:1044C0000707060000F80810204080F803090906D5
:1044D00001FFE080808080808080E0050707060083
:1044E00000804040201010080309090601FFE02069
:1044F000202020202020E00503030600052050880E
:104500000501010600FEF8030303060105804020B3
:10451000050505060000700878887805070706007D
:10452000008080F0888888F005050506000070800E
:104530008088700507070600000808788888887852
:104540000505050600007088F08070050707060065
:1045500000304840E04040400507070600FE7088F4
:1045600088887808700507070600008080F0888832
:1045700088880307070601004000C0404040E0046F
:1045800009090601FE100030101010109060050798
:104590000706000080808890E090880307070601E6
:1045A00000C04040404040E0050505060000D0A89E
:1045B000A8A8A8050505060000B0C88888880505D4
:1045C0000506000070888888700507070600FEF061
:1045D000888888F080800507070600FE788888882C
:1045E000780808050505060000B0C880808005052C
:1045F0000506000078807008F00507070600002017
:1046000020F82020201805050506000088888898D5
:104610006805050506000088888850200505050600
:1046200000008888A8A850050505060000885020CD
:1046300050880507070600FE8888885020408005BE
:104640000505060000F8102040F80309090601FFDF
:104650002040404080404040200109090602FF8080
:1046600080808080808080800309090601FF80406F
:104670004040204040408005030306000248A890C7
:10468000FF1FE020102310249010A01120221024DE
:104690001037B00840048003001FE02010211023D1
:1046A0001015201120211021103130084004800302
:1046B000001FE03FF03CF03B701F601EE03DF03B10
:1046C000F038700FC0078003001FE03FF03EF03C61
:1046D000F01AE01EE03EF03EF03EF00FC00780030F
:1046E000005072696E74205061757365640045787E
:1046F000747275646572202A0045787472756465F9
:1047000072004D6F7665205A004D6F766520590016
:104710004D6F76652058004F6666004F6E00536FF0
:10472000667420456E6473746F7073004D6F7469A6
:104730006F6E004D38340044697361626C652053BC
:1047400074657070657273004732380A4D343820D2
:10475000503130004D34382050726F6265205465FE
:104760007374004C6576656C20436F726E6572736E
:1047700000556E696669656420426564204C657603
:10478000656C696E6700473238205A00486F6D6566
:10479000205A00473238205900486F6D6520590073
:1047A000473238205800486F6D65205800417574B5
:1047B0006F20486F6D65004D6F7665204178697395
:1047C000004D61696E005072656865617420504CDF
:1047D0004120416C6C005072656865617420504CDA
:1047E0004120456E64207E005072656865617420CA
:1047F000504C4120426564005072656865617420C8
:10480000504C41207E0050726568656174204142C1
:104810005320416C6C0050726568656174204142A0
:104820005320456E64207E00507265686561742077
:10483000414253207E005072656865617420414298
:1048400053204265640054656D70657261747572C1
:104850006500436F6F6C646F776E005072656865BA
:104860006174204142530050726568656174205044
:104870004C410046616E205370656564004265647A
:10488000004E6F7A7A6C65207E004D61696E004142
:104890006476616E6365204B202A00466C6F77203A
:1048A0007E00466C6F770046616E205370656564CC
:1048B00000426564004E6F7A7A6C65207E0053700A
:1048C000656564004D61696E0000FE0003FF8007AE
:1048D000C7C00701E00000E00000F0000070040025
:1048E000700E00701F00703F80F00E00E00F01E0BE
:1048F00007C7C003FF8000FE0000FE0003FF800723
:10490000C7C00F01E00E00E03F80F01F00700E00F6
:10491000700400700000700000F00000E00701E08B
:1049200007C7C003FF8000FE000E000E000E000E41
:10493000000E000E000E000E007FC03F801F000E14
:1049400000040004000E001F003F807FC00E000E18
:10495000000E000E000E000E000E000E00FFFFFF06
:104960007F80FFC0FFC0FFC07F807F80FFC0FFC08F
:10497000FFC03F001E000C004D6573682045646950
:10498000746F7200473239205031004D3130392078
:10499000532569004D313930205325690042656443
:1049A0002054656D7000486F74656E642054656DA9
:1049B00070002E2569004732392050362043202DC3
:1049C0000048656967687420416D6F756E740041B9
:1049D000646A757374204D657368204865696768FB
:1049E000740047323920503420540046696E6520E7
:1049F00054756E6520436C6F73657374004732396C
:104A0000205034205239393920540046696E6520CF
:104A100054756E6520416C6C00473236204320424D
:104A200025692048256920500056616C69646174CD
:104A30006520437573746F6D204D65736800473250
:104A4000380A473236204320423131302048323450
:104A50003020500056616C6964617465204D657347
:104A600068202841425329004732380A473236200D
:104A70004320423635204832333020500056616C96
:104A80006964617465204D6573682028504C412924
:104A900000473239204A2569004C6576656C204D07
:104AA000657368005369646520506F696E747300A4
:104AB00047726964204D657368204C6576656C6942
:104AC0006E6700473239204A3000332D506F696ECF
:104AD00074204C6576656C696E67004732392050EA
:104AE00033205220432E256900473239205032208E
:104AF00042205430004D616E75616C2046696C6CCB
:104B00002D696E0047323920503320543000536DE8
:104B10006172742046696C6C2D696E0046696C6C1C
:104B20002D696E20416D6F756E74004D6573682040
:104B3000696E76616C6964617465642E0A00496E01
:104B4000666F2053637265656E00473239204900F5
:104B5000496E76616C696461746520436C6F73653E
:104B6000737400496E76616C696461746520416C90
:104B70006C00473239205031204300436F6E746916
:104B80006E756520426564204D6573680046696CEA
:104B90006C2D696E204D657368004732380A4732C4
:104BA00039205031004275696C6420436F6C642079
:104BB0004D657368004275696C6420437573746F4A
:104BC0006D204D657368004732380A4D3139302009
:104BD000533131300A4D31303920533234300A47A5
:104BE00032392050310A4D3130342053300A4D31A2
:104BF0003430205330004275696C64204D65736811
:104C0000202841425329004732380A4D313930209B
:104C10005336350A4D31303920533233300A47325A
:104C2000392050310A4D3130342053300A4D31345F
:104C300030205330004275696C64204D65736820E4
:104C400028504C4129004D313137204D6573682083
:104C50002569204C6F6164656400473239204C251A
:104C600069004D313137204D657368202569205327
:104C700061766564004732392053256900536176B7
:104C80006520426564204D657368004C6F61642047
:104C9000426564204D657368004D656D6F727920C3
:104CA000536C6F74004E6F2053746F7261676500B0
:104CB000486F6D696E672058595A00473239205045
:104CC0003420582573205925732052256900202D42
:104CD0002D2D2D2D004732380047323920532D31EC
:104CE000004F6666205072696E746572204261637F
:104CF0006B757000473239205431004F75747075F0
:104D00007420666F72204353560047323920543066
:104D1000004F757470757420666F7220486F7374DD
:104D2000004D657368204C6576656C696E6700455B
:104D3000646974204D6573680056616C69646174C0
:104D400065204D6573680047323920493939390A81
:104D50004732392050322042205430004D616E7568
:104D6000616C6C79204275696C64204D65736800D4
:104D70004275696C64204D65736800372E2053615D
:104D8000766520426564204D65736800473239209E
:104D900050342052393939205400362E2046696E5D
:104DA000652054756E6520416C6C00352E2056616F
:104DB0006C6964617465204D657368004732392001
:104DC00050342052393939205400342E2046696E2F
:104DD000652054756E6520416C6C00332E20566141
:104DE0006C6964617465204D6573680047323920D1
:104DF000503320543000322E20536D61727420469F
:104E0000696C6C2D696E004732380A473239205080
:104E10003100312E204275696C6420436F6C642030
:104E20004D65736800556E69666965642042656406
:104E3000204C6576656C696E670046616465204844
:104E40006569676874004732392057004F75747080
:104E500075742055424C20496E666F0055424C20B7
:104E6000546F6F6C73004F7574707574204D65735B
:104E700068204D6170004D6573682053746F7261D6
:104E80006765004D657368204564697400537465F7
:104E9000702D42792D537465702055424C00473275
:104EA0003920410041637469766174652055424C34
:104EB0000047323920440044656163746976617447
:104EC000652055424C004D6F74696F6E0025687502
:104ED0003A25303268750025303268753A2530320F
:104EE000687500256875642025303268753A25306C
:104EF0003268750099468146C946B1463FFFF03891
:104F0000007030FC3020FC102078102030102C0075
:104F1000D02E31D02F7BD02F7BD02E31D02C00D073
:104F200020301020781020FC1030FC303800703F0A
:104F3000FFF03FFFF038007031863023871027875D
:104F4000902F87D02F03D020301020781020781099
:104F50002030102F03D02F87D02787902387103140
:104F600086303800703FFFF01FFFF81FFFF8041075
:104F70004002082002082004104008208010410050
:104F80001041000820800410400000001FFFF81F9F
:104F9000FFF85A3852322052656164792E005072FF
:104FA000696E74696E672E2E2E004D323520500AC0
:104FB0004D3234005061757365205072696E740013
:104FC000290A002062797465733B206372632000B4
:104FD00053657474696E67732053746F72656420CF
:104FE00028004E6F20454550524F4D2E0A00454532
:104FF00050524F4D206461746173697A6520657207
:10500000726F722E0A003F4D65736820746F6F20B7
:1050100062696720666F7220454550524F4D2E0AD7
:105020000055424C2072657365740A00206C6F61F4
:105030006465642066726F6D2073746F726167655A
:105040002E0A004D65736820002E0A003F43616EF2
:10505000277420656E61626C65200020696E69743A
:1050600069616C697A65642E0A0A00290A00206267
:10507000797465733B2063726320002073746F72D0
:1050800065642073657474696E67732072657472E9
:105090006965766564202800202863616C63756CFF
:1050A0006174656429210A0020213D200045455096
:1050B000524F4D20435243206D69736D6174636894
:1050C000202D202873746F72656429200020536995
:1050D0007A653A2000496E6465783A2000204D6177
:1050E000726C696E3D563736290A00454550524F5D
:1050F0004D2076657273696F6E206D69736D617492
:1051000063682028454550524F4D3D004E6F204565
:105110004550524F4D2E0A00454550524F4D2049A3
:105120006E697469616C697A65640A004D657368BB
:1051300020736176656420696E20736C6F74200043
:105140003F556E61626C6520746F207361766520D7
:105150006D65736820646174612E0A0020736C6F42
:10516000743D00206D65736865735F656E643D0016
:105170004532454E443D00206D65736820736C6F69
:10518000747320617661696C61626C652E0A003F00
:10519000496E76616C696420736C6F742E0A004DE1
:1051A000657368206C6F616465642066726F6D2042
:1051B000736C6F7420003F556E61626C6520746F74
:1051C000206C6F6164206D65736820646174612E6A
:1051D0000A0048617264636F6465642044656661B7
:1051E000756C742053657474696E6773204C6F61BD
:1051F0006465640A0000004843000048430000A0C2
:1052000040000048420000A0420000A0420000C848
:10521000430080BD42E2040000E2040000E204001A
:105220000088130000556E696669656420426564F4
:10523000204C6576656C696E67003B20003A0A0079
:1052400020204D363033200020204D34323520468A
:10525000004261636B6C61736820636F6D70656E93
:10526000736174696F6E3A00546F6F6C2D6368617F
:105270006E67696E673A002055005431204C00205B
:1052800055005430204C0046696C616D656E742089
:105290006C6F61642F756E6C6F6164206C656E67F6
:1052A0007468733A00204B0020204D393030205470
:1052B000004C696E65617220416476616E63653A87
:1052C0000020204D3835312058005A2D50726F6221
:1052D00065204F66667365740020204D323039209A
:1052E00053004175746F2D526574726163743A2076
:1052F000533D3020746F2064697361626C652C20AB
:105300003120746F20696E74657270726574204507
:105310002D6F6E6C79206D6F7665732061732072CE
:105320006574726163742F7265636F7665720020B5
:10533000460020570020204D32303820530052655F
:10534000636F7665723A20533C6C656E6774683E95
:1053500020463C756E6974732F6D3E002046002018
:10536000570020204D32303720530052657472614F
:1053700063743A20533C6C656E6774683E20463C0B
:10538000756E6974732F6D3E205A3C6C6966743E6D
:105390000020440020490020500020204D333031AF
:1053A0002045005049442073657474696E67733AF0
:1053B0000020460020420020480020204D31343596
:1053C0002053004D6174657269616C206865617479
:1053D000757020706172616D65746572733A00203A
:1053E0006D65736865732E0A0A00454550524F4D2E
:1053F0002063616E20686F6C64200041637469767D
:1054000065204D65736820536C6F743A200020202E
:105410004D3432302053000020580020204D3231CE
:1054200038205400486F74656E64206F666673653B
:1054300074733A00204A0020530020204D3230354A
:10544000204200416476616E6365643A20423C6D9F
:10545000696E5F7365676D656E745F74696D655FB6
:1054600075733E20533C6D696E5F6665656472615D
:1054700074653E20543C6D696E5F74726176656C34
:105480005F66656564726174653E204A3C6A756E4C
:10549000635F6465763E0020520020204D32303438
:1054A000205000416363656C65726174696F6E20A2
:1054B00028756E6974732F7332293A20503C7072CC
:1054C000696E745F616363656C3E20523C72657403
:1054D000726163745F616363656C3E20543C7472F7
:1054E0006176656C5F616363656C3E0020204D32C0
:1054F00030312058004D6178696D756D20416363CE
:10550000656C65726174696F6E2028756E6974735D
:105510002F7332293A0020204D3230332058004D6D
:105520006178696D756D2066656564726174657317
:105530002028756E6974732F73293A00537465704F
:10554000732070657220756E69743A0020204D32A8
:1055500030302044300A0020440020540020204DE8
:10556000323030002044697361626C65640A004621
:10557000696C616D656E742073657474696E6773B0
:105580003A0020204D3134392043203B20556E69AC
:10559000747320696E2043656C736975730A00200B
:1055A000286D6D29002020473231202020203B200B
:1055B000556E69747320696E206D6D006F70656E35
:1055C00000545249474745524544003A20007A5F0B
:1055D0006D696E00795F6D696E00785F6D696E0050
:1055E0005265706F7274696E6720656E6473746F54
:1055F00070207374617475730A00205A3A00205940
:105600003A0020436F756E7420583A0020453A00E6
:10561000205A3A0020593A00583A000000914300BD
:105620000096430000C843000018C20000E0C0001C
:1056300000000020746F6F206C6F6E6720657874B7
:10564000727573696F6E2070726576656E746564CD
:105650000A0020636F6C6420657874727573696FDB
:105660006E2070726576656E7465640A00486F6DB1
:10567000696E67204661696C656400000018C200AD
:1056800000E0C00000000000004842000048420066
:1056900000A0405761726E696E673A20486F6D696D
:1056A0006E672042756D702044697669736F722051
:1056B0003C20310A000202040000A0400000A0408B
:1056C000000000400000A443008099430000C8434C
:1056D000FFFFFF00000001000000010000800055F6
:1056E0005555000000400033333300AAAA2A004970
:1056F00092240000002000C7711C0099991900D164
:10570000451700555515003BB113002449120011EF
:10571000111100000010000F0F0F00E3380E0043BE
:10572000790D00CCCC0C00C3300C00E8A20B006457
:10573000210B00AAAA0A00703D0A009DD809004268
:105740007B090092240900DCD30800888808001037
:1057500042080000000800F0C107008787070075B5
:10576000500700711C07003EEB0600A1BC06006953
:1057700090060066660600703E0600611806001777
:10578000F4050074D105005BB00500B2900500621D
:105790007205005555050078390500B81E0500054D
:1057A0000505004EEC040087D40400A1BD04009060
:1057B000A7040049920400C17D0400EE690400C7FB
:1057C000560400444404005C3204000821040041F3
:1057D000100400000004003FF00300F8E00300267E
:1057E000D20300C3C30300CCB503003AA803000AE8
:1057F0009B0300388E0300C08103009F750300D017
:10580000690300505E03001D5303003448030091F8
:105810003D03003333030016290300381F030097AC
:10582000150300300C0300030303000BFA020049C8
:10583000F10200BAE802005CE002002DD802002D5F
:10584000D0020059C80200B0C0020031B90200DA2B
:10585000B10200AAAA0200A0A30200BC9C0200FAA6
:105860009502005C8F0200DF880200828202004500
:105870007C02002776020027700200436A02007C47
:10588000640200D05E02003F590200C853020010BB
:1058900000C902E00004010001FA003001F00070CC
:1058A00001E600B001DC00F001D2005002C800F0B7
:1058B00002BE009003B4004004AA004005A00040CE
:1058C00006960000088C00B0098200D00B780060BA
:1058D0000E6E006011640000155A0020195000C0BF
:1058E0001D4600A0223C00B0273200902C2800006A
:1058F000311E00E034190010381400903A0F006097
:105900003C0A00A03D0500803E0200203F00001040
:1059100000C90210012C014001220170011801B0E0
:10592000010E01F00104015002FA00B002F0003053
:1059300003E600D003DC009004D2007005C800A08C
:1059400006BE000008B400B009AA00D00BA0006099
:105950000E960060118C000015820020197800C09E
:105960001D6E00A0226400B0275A00902C50000049
:10597000314600E0343C0010383200903A28006094
:105980003C1E00A03D1400803E0A00203F00002085
:10599000746F6F206C6F6E672065787472757369B1
:1059A0006F6E2070726576656E7465640A002063A0
:1059B0006F6C6420657874727573696F6E20707295
:1059C0006576656E7465640A00206C696D6974653E
:1059D0006420746F2000204D61782000FFFDFCFAE8
:1059E000F8F6F4F2F0EEECEAE9E7E5E3E1E0DEDC1C
:1059F000DAD9D7D5D4D2D0CFCDCBCAC8C7C5C3C2C8
:105A0000C0BFBDBCBAB9B7B6B4B3B2B0AFADACAA43
:105A1000A9A8A6A5A4A2A1A09E9D9C9A9998979595
:105A2000949392908F8E8D8B8A89888786848382C7
:105A300081807F7E7D7B7A797877767574737271D9
:105A4000706F6E6D6C6B6A696867666564636261CE
:105A5000605F5E5D5C5B5A595858575655545352B7
:105A60005150504F4E4D4C4B4A4A49484746464587
:105A70004443424241403F3E3E3D3C3B3B3A393845
:105A80003837363535343332323130302F2E2E2DF3
:105A90002C2B2B2A29292827272625252423232296
:105AA000212120201F1E1E1D1C1C1B1B1A1919182A
:105AB00018171616151514131312121111100F0FB3
:105AC0000E0E0D0D0C0C0B0A0A0909080807070633
:105AD00006050504040303020201000024F4D43087
