:100000000C9492370D94BF320D9494320D94693252
:100010000D943E320D9413320D94E8310D94BD31A0
:100020000D9492310C94C7E50C94C7E50C94C7E588
:100030000C94C3370D94D02E0C94C3370C94C33753
:100040000C94C3370D9414510C94C3370C94C337DC
:100050000C94C3370C94C3370D943D3B0D94483139
:100060000C94C3370C940BC70C9401C70C94C33782
:100070000C94C3370C94C3370C94C3370C94C33718
:100080000C94C3370C94C3370C94C3370C94C33708
:100090000C94C3370C94C3370C94C3370C94C337F8
:1000A0000C94C3370C94C3370C94C3370C94C337E8
:1000B0000C94C3370C94C3370C94C3370C94C337D8
:1000C0000C94C3370C94C3370C94C3370C94C337C8
:1000D0000C94C3370C94C3370C94C3370C94C337B8
:1000E0000C94C337084AD73B3BCE016E84BCBFFD9E
:1000F000C12F3D6C74319ABD56833DDA3D00C77FF8
:1001000011BED9E4BB4C3E916BAAAABE0000008090
:100110003F05A84CCDB2D44EB93836A9020C50B91F
:10012000918688083CA6AAAA2ABE000000803F0744
:10013000634236B79BD8A71A39685618AEBAAB5582
:100140008C1D3CB7CC5763BD6DEDFD753EF6177247
:1001500031BF000000803F08000000BE9224491219
:100160003EABAAAA2ABECDCCCC4C3E00000080BE3D
:10017000ABAAAAAA3E00000000BF000000803F001A
:1001800000000000084178D3BB4387D1133D190E0E
:100190003CC3BD4282AD2B3E68EC8276BED98FE176
:1001A000A93E4C80EFFFBE01C4FF7F3F000000006E
:1001B00000000D9478750D9436760D949F880D94FB
:1001C00043010D94163F0D94ED2F0D94C50F0D9422
:1001D00006780D9469750D94EB220D9488220D9488
:1001E000FA830D94113F0D946B6E0D947D940D94D4
:1001F00070300D9413300D949A230D949B760D94CA
:10020000E86B0D94DD6C0D9448300D940A780D94D4
:100210004A3D0D941B230D9495760D9422760D94F2
:10022000F5830D94816A0D94419A0D9427760D946F
:1002300016230D94AA760D9444230D94E86A0D9428
:10024000A1760D949B6D0D94F5220D94586F0D942D
:100250000E840D9452300D9418840D947C730D947B
:10026000FF220D9479860D94E6830D94847D0D9480
:1002700075750D94F72F0D94B3760D94AF760D949C
:100280008B760D94E82F0D945C300D94827D0D9447
:1002900089220D9439300D94F30E0D94293F0D945D
:1002A000796E0D94D6220D9409230D94129C0D9411
:1002B000807D0D94220B0D942F0C0D94996F0D944D
:1002C000B5090D942C8B0D9425300D94FA6E0D9478
:1002D0007E6A0D9413840D94356F0D94D7720D942E
:1002E0007E750D942E3F0D946C6A0D9417230D941A
:1002F000F23E0D94F00D0D94E4220D94BA6A0D9423
:100300001C910D9488780D94366F0D94F0830D94A4
:10031000A76F0D94396F0D94FE3E0D94207C0D94C3
:1003200001300D94D3870D9498760D9416730D9427
:1003300004840D941B300D94146C0D942A6B0D9451
:10034000247C0D94B0760D94A4760D94A7760D942C
:10035000D16A0D9466300D94AF6E0D94F1220D9418
:10036000E02F0D9403230D945E6B0D94E0220D9409
:10037000FF6A0D94B6790D9464810D941A730D94EF
:10038000336F0D949A150D942A790D9451960D940E
:1003900051A30D94EB830D940D230D947B750D9457
:1003A0003B6F0D94DC220D9411230D9419880D944C
:1003B000AF6F0D94AB070D943C120D94379A0D94CA
:1003C0006C750D94FB220D948B220D94E8220D94F4
:1003D0002F300D94D56B0D94016C0D943D6F0D94E1
:1003E000A8A00D9402780D94C26B0D94456B0D94EA
:1003F000346F0D942C760D94287C0D945DA10D9492
:1004000013310D945A3D0D94906B0D941D6F0D9406
:100410009E760D947A300D94A96B0D9420850D94E1
:1004200067760D9419820D9472750D943C9A0D9413
:100430001A6F0D9484750D94376F0D94206F0D9481
:10044000FF830D947C9E0D9481750D940E140D9474
:1004500009840D94048D0D94776B0D9431760D9471
:100460006F750D940B304E414E494E495459494ECB
:1004700046CDCCCC3D0AD7233C17B7D13877CC2B0F
:10048000329595E6241FB14F0A000020410000C8B4
:100490004200401C4620BCBE4CCA1B0E5AAEC59D35
:1004A0007400407A10F35A00A0724E18090010A58B
:1004B000D4E80000E87648170000E40B540200007E
:1004C000CA9A3B000000E1F5050000809698000004
:1004D0000040420F000000A086010000001027002D
:1004E000000000E803000000006400000000000AB3
:1004F00000000000000100000000002C76D888DC1D
:10050000674F0823DFC1DFAE59E1B1B796E5E3E4F9
:1005100053C63AE651997696E8E6C28426EB898C72
:100520009B62ED407C6FFCEFBC9C9F40F2BAA56FD4
:10053000A5F490055A2AF75C936B6CF9676DC11BA3
:10054000FCE0E40D47FEF520E6B500D0ED902E036B
:1005500000943577050080841E080000204E0A00B4
:100560000000C80C333333330F986E12831141EF00
:100570008D2114893BE65516CFFEE6DB18D1844B5E
:10058000381BF77C1D901DA4BBE424203284725ECE
:10059000228100C9F124ECA1E53D274D3231004D07
:1005A0003233202573004D323400453A0020583A4A
:1005B000005072696E7465722073746F7070656438
:1005C0002064756520746F206572726F72732E20BF
:1005D00046697820746865206572726F7220616E5A
:1005E0006420757365204D39393920746F20726528
:1005F00073746172742E202854656D706572617415
:100600007572652069732072657365742E20536559
:1006100074206974206166746572207265737461F8
:100620007274696E67290A0024F404D9201BC40C73
:100630005C0E9804C4095F0265077101F405F900B6
:10064000FB04B30048048700C10369005803550048
:1006500003034500BE023A008402310053022A001F
:100660002902250004022000E4011C00C801190031
:10067000AF011700980114008401130071011000EC
:100680006101100051010E0043010D0036010B0005
:100690002B010B0020010B00150109000C010900C2
:1006A00003010800FB000800F3000800EB0007004E
:1006B000E4000600DE000600D8000600D2000600B6
:1006C000CC000500C7000500C2000500BD00040005
:1006D000B9000400B5000400B1000400AD0004003E
:1006E000A9000400A5000300A20003009F0004006D
:1006F0009B00030098000300950002009300030094
:10070000900003008D0002008B00030088000200AF
:100710008600020084000300810002007F000200C6
:100720007D0002007B0002007900020077000100DA
:1007300076000200740002007200010071000200E5
:100740006F0002006D0001006C0002006A000100F1
:1007500069000200670001006600010065000100F9
:1007600064000200620001006100010060000100FD
:100770005F0002005D0001005C0001005B00010001
:100780005A00010059000100580001005700010003
:100790005600010055000100540001005300000004
:1007A00053000100520001005100010050000100FF
:1007B0004F0001004E0000004E0001004D000100FE
:1007C0004C0001004B0000004B0001004A000100FA
:1007D00049000100480000004800010047000100F6
:1007E00046000000460001004500000045000100F1
:1007F00044000100430000004300010042000000EB
:1008000042000100410000004100010040000100E1
:100810003F0000003F0001003E0000003E000100DC
:100820003D0000003D0001003C0000003C000000D5
:100830003C0001003B0000003B0001003A000000CA
:100840003A000100390000003900010038000000C2
:1008500038000000380001003700000037000100B8
:1008600036000000360000003600010035000000B0
:1008700035000000350001003400000034000000A5
:100880003400010033000000330000003300010099
:100890003200000032000000320001003100000090
:1008A0003100000031000100300000003000000085
:1008B000300001002F0000002F0000002F0000007A
:1008C0002F0001002E0000002E0000002E0001006D
:1008D0002D0000002D0000002D0000002D00010063
:1008E0002C0000002C0000002C0000002C00010057
:1008F0002B0000002B0000002B0000002B0001004B
:100900002A0000002A0000002A0000002A0001003E
:100910002900000029000000290000002900000033
:100920002900010028000000280000002800000025
:100930002800000028000100270000002700000018
:10094000270000002700000027000100260000000B
:1009500026000000260000002600000026000100FE
:1009600025000000250000002500000025000000F3
:1009700025000000250001002400000024000000E4
:1009800024000000240000002400010023000000D7
:1009900023000000230000002300000023000000CB
:1009A00023000000230001002200000022000000BC
:1009B00022000000220000002200000022000100AE
:1009C00021000000210000002100000021000000A3
:1009D0002100000021000000210001002000000093
:1009E0002000000020000000200000002000000087
:1009F0002000000020000000200001001F00000077
:100A00001F0000001F0000001F0000001F0000006A
:100A10001F0000001F0001001E0000001E0000005B
:100A20001E0000001E00000024F4D43050C38E20AD
:100A3000C2A24017828B7011127A910D816CD90A73
:100A4000A861E108C7586607615143061E4B5D0562
:100A5000C145A7041A411104093D980371393103B6
:100A60004036DB0265339102D4305402802E1D02E1
:100A7000632CEE01752AC501B028A0011027810161
:100A80008F2564012B244B01E0223401AC211F018E
:100A90008D200D01801FFC00841EED00971DDF00DE
:100AA000B81CD200E61BC600201BBC00641AB200B2
:100AB000B219A8000A19A0006A189900D11791006C
:100AC00040178B00B516840031167E00B3157900EF
:100AD0003A157300C7146F0058146A00EE136600CD
:100AE0008813630025135E00C7125B006C12570069
:100AF00015125400C111510070114F0021114B000B
:100B0000D61049008D1047004610440002104200E4
:100B1000C00F4000800F3E00420F3C00060F3B001C
:100B2000CB0E3800930E37005C0E3500270E3400D4
:100B3000F30D3200C10D3100900D3000600D2E001C
:100B4000320D2D00050D2C00D90C2B00AE0C290008
:100B5000850C29005C0C2700350C27000E0C2600A4
:100B6000E80B2400C40B2400A00B23007D0B230002
:100B70005A0B2100390B2100180B2000F80A1F0026
:100B8000D90A1E00BB0A1E009D0A1D00800A1D0016
:100B9000630A1C00470A1B002C0A1B00110A1A00DA
:100BA000F7091A00DD091900C4091900AB09190079
:100BB000920917007B091800630917004C091600F9
:100BC00036091600200916000A091500F508150057
:100BD000E0081400CC081400B8081400A40814009D
:100BE000900813007D0812006B08130058081200CB
:100BF00046081200340811002308110012081100E1
:100C000001081100F0071000E0071000D0071000E5
:100C1000C0071000B0070F00A107100091070E00D9
:100C200083070F0074070F0065070E0057070E00BB
:100C300049070E003B070D002E070E0020070D0090
:100C400013070D0006070D00F9060C00ED060D0058
:100C5000E0060C00D4060C00C8060C00BC060C0014
:100C6000B0060C00A4060B0099060C008D060B00C4
:100C700082060B0077060B006C060B0061060A006B
:100C800057060B004C060A0042060A0038060A0006
:100C90002E060A0024060A001A060A001006090099
:100CA00007060A00FD050900F4050900EB05090027
:100CB000E2050900D9050900D0050900C7050900AA
:100CC000BE050900B5050800AD050800A505090029
:100CD0009C050800940508008C05080084050800A0
:100CE0007C050800740508006C0507006505080010
:100CF0005D050700560508004E050700470507007B
:100D00004005080038050700310507002A050700DF
:100D1000230507001C050600160507000F05070040
:100D20000805060002050700FB040600F50407009D
:100D3000EE040600E8040600E2040700DB040600F7
:100D4000D5040600CF040600C9040600C30406004B
:100D5000BD040600B7040600B1040500AC0406009B
:100D6000A6040600A00405009B04060095040500E7
:100D7000900406008A04050085040500800406002E
:100D80007A04050075040500700405006B04050075
:100D900066040500610405005C04050057040500B5
:100DA000520405004D0405004804050043040500F5
:100DB0003E0404003A040500350405003004040034
:100DC0002C04050027040400230405001E0404006D
:100DD0001A04040016040500110404000D040400A4
:100DE000090405000404040000040400FC030400DA
:100DF000F8030400F4030400F0030400EC0304000F
:100E0000E8030400E4030400E0030400DC0304003E
:100E1000D8030400D4030400D0030400CC0304006E
:100E2000C8030300C5030300726F746174696F6EB9
:100E3000206D61747269783A0A0024F404D9201B89
:100E4000C40C5C0E9804C4095F0265077101F405C7
:100E5000F900FB04B30048048700C103690058038C
:100E6000550003034500BE023A00840231005302DC
:100E70002A002902250004022000E4011C00C80108
:100E80001900AF01170098011400840113007101CB
:100E900010006101100051010E0043010D003601E8
:100EA0000B002B010B0020010B00150109000C01A8
:100EB000090003010800FB000800F3000800EB0034
:100EC0000700E4000600DE000600D8000600D2009D
:100ED0000600CC000500C7000500C2000500BD00EB
:100EE0000400B9000400B5000400B1000400AD0026
:100EF0000400A9000400A5000300A20003009F0055
:100F000004009B000300980003009500020093007A
:100F10000300900003008D0002008B000300880096
:100F200002008600020084000300810002007F00AE
:100F300002007D0002007B000200790002007700C1
:100F400001007600020074000200720001007100CE
:100F500002006F0002006D0001006C0002006A00D8
:100F600001006900020067000100660001006500E1
:100F700001006400020062000100610001006000E5
:100F800001005F0002005D0001005C0001005B00E9
:100F900001005A00010059000100580001005700EB
:100FA00001005600010055000100540001005300EB
:100FB00000005300010052000100510001005000E8
:100FC00001004F0001004E0000004E0001004D00E6
:100FD00001004C0001004B0000004B0001004A00E2
:100FE00001004900010048000000480001004700DE
:100FF00001004600000046000100450000004500D9
:1010000001004400010043000000430001004200D1
:1010100000004200010041000000410001004000CA
:1010200001003F0000003F0001003E0000003E00C4
:1010300001003D0000003D0001003C0000003C00BC
:1010400000003C0001003B0000003B0001003A00B2
:1010500000003A00010039000000390001003800AA
:1010600000003800000038000100370000003700A1
:101070000100360000003600000036000100350097
:10108000000035000000350001003400000034008D
:101090000000340001003300000033000000330082
:1010A0000100320000003200000032000100310077
:1010B000000031000000310001003000000030006D
:1010C0000000300001002F0000002F0000002F0062
:1010D00000002F0001002E0000002E0000002E0056
:1010E00001002D0000002D0000002D0000002D004B
:1010F00001002C0000002C0000002C0000002C003F
:1011000001002B0000002B0000002B0000002B0032
:1011100001002A0000002A0000002A0000002A0026
:10112000010029000000290000002900000029001A
:10113000000029000100280000002800000028000D
:101140000000280000002800010027000000270000
:1011500000002700000027000000270001002600F3
:1011600000002600000026000000260000002600E7
:1011700001002500000025000000250000002500DA
:1011800000002500000025000100240000002400CC
:1011900000002400000024000000240001002300BF
:1011A00000002300000023000000230000002300B3
:1011B00000002300000023000100220000002200A4
:1011C0000000220000002200000022000000220097
:1011D000010021000000210000002100000021008A
:1011E000000021000000210000002100010020007B
:1011F000000020000000200000002000000020006F
:1012000000002000000020000000200001001F005E
:1012100000001F0000001F0000001F0000001F0052
:1012200000001F0000001F0001001E0000001E0043
:1012300000001E0000001E00000024F4D43050C343
:101240008E20C2A24017828B7011127A910D816C90
:10125000D90AA861E108C7586607615143061E4BC9
:101260005D05C145A7041A411104093D9803713970
:1012700031034036DB0265339102D4305402802EB4
:101280001D02632CEE01752AC501B028A0011027AC
:1012900081018F2564012B244B01E0223401AC2114
:1012A0001F018D200D01801FFC00841EED00971D85
:1012B000DF00B81CD200E61BC600201BBC00641A6D
:1012C000B200B219A8000A19A0006A189900D11733
:1012D000910040178B00B516840031167E00B315BF
:1012E00079003A157300C7146F0058146A00EE13A2
:1012F00066008813630025135E00C7125B006C1242
:10130000570015125400C111510070114F002111E6
:101310004B00D61049008D104700461044000210C3
:101320004200C00F4000800F3E00420F3C00060FFD
:101330003B00CB0E3800930E37005C0E3500270EB5
:101340003400F30D3200C10D3100900D3000600DFE
:101350002E00320D2D00050D2C00D90C2B00AE0CEB
:101360002900850C29005C0C2700350C27000E0C89
:101370002600E80B2400C40B2400A00B23007D0BE7
:1013800023005A0B2100390B2100180B2000F80A0A
:101390001F00D90A1E00BB0A1E009D0A1D00800AFC
:1013A0001D00630A1C00470A1B002C0A1B00110ABF
:1013B0001A00F7091A00DD091900C4091900AB0960
:1013C0001900920917007B091800630917004C09DE
:1013D000160036091600200916000A091500F5083E
:1013E0001500E0081400CC081400B8081400A40884
:1013F0001400900813007D0812006B0813005808B1
:1014000012004608120034081100230811001208C7
:10141000110001081100F0071000E0071000D007CC
:101420001000C0071000B0070F00A10710009107BF
:101430000E0083070F0074070F0065070E005707A3
:101440000E0049070E003B070D002E070E00200777
:101450000D0013070D0006070D00F9060C00ED0640
:101460000D00E0060C00D4060C00C8060C00BC06FB
:101470000C00B0060C00A4060B0099060C008D06AB
:101480000B0082060B0077060B006C060B00610652
:101490000A0057060B004C060A0042060A003806EE
:1014A0000A002E060A0024060A001A060A00100680
:1014B000090007060A00FD050900F4050900EB050F
:1014C0000900E2050900D9050900D0050900C70592
:1014D0000900BE050900B5050800AD050800A50511
:1014E00009009C050800940508008C050800840587
:1014F00008007C050800740508006C0507006505F8
:1015000008005D050700560508004E050700470561
:1015100007004005080038050700310507002A05C7
:101520000700230507001C050600160507000F0528
:1015300007000805060002050700FB040600F50485
:101540000700EE040600E8040600E2040700DB04DE
:101550000600D5040600CF040600C9040600C30433
:101560000600BD040600B7040600B1040500AC0483
:101570000600A6040600A00405009B0406009504CE
:101580000500900406008A04050085040500800417
:1015900006007A04050075040500700405006B045C
:1015A000050066040500610405005C04050057049D
:1015B0000500520405004D040500480405004304DD
:1015C00005003E0404003A0405003504050030041B
:1015D00004002C04050027040400230405001E0455
:1015E00004001A04040016040500110404000D048C
:1015F0000400090405000404040000040400FC03C2
:101600000400F8030400F4030400F0030400EC03F6
:101610000400E8030400E4030400E0030400DC0326
:101620000400D8030400D4030400D0030400CC0356
:101630000400C8030300C503030024F404D9201BDD
:10164000C40C5C0E9804C4095F0265077101F405BF
:10165000F900FB04B30048048700C1036900580384
:10166000550003034500BE023A00840231005302D4
:101670002A002902250004022000E4011C00C80100
:101680001900AF01170098011400840113007101C3
:1016900010006101100051010E0043010D003601E0
:1016A0000B002B010B0020010B00150109000C01A0
:1016B000090003010800FB000800F3000800EB002C
:1016C0000700E4000600DE000600D8000600D20095
:1016D0000600CC000500C7000500C2000500BD00E3
:1016E0000400B9000400B5000400B1000400AD001E
:1016F0000400A9000400A5000300A20003009F004D
:1017000004009B0003009800030095000200930072
:101710000300900003008D0002008B00030088008E
:1017200002008600020084000300810002007F00A6
:1017300002007D0002007B000200790002007700B9
:1017400001007600020074000200720001007100C6
:1017500002006F0002006D0001006C0002006A00D0
:1017600001006900020067000100660001006500D9
:1017700001006400020062000100610001006000DD
:1017800001005F0002005D0001005C0001005B00E1
:1017900001005A00010059000100580001005700E3
:1017A00001005600010055000100540001005300E3
:1017B00000005300010052000100510001005000E0
:1017C00001004F0001004E0000004E0001004D00DE
:1017D00001004C0001004B0000004B0001004A00DA
:1017E00001004900010048000000480001004700D6
:1017F00001004600000046000100450000004500D1
:1018000001004400010043000000430001004200C9
:1018100000004200010041000000410001004000C2
:1018200001003F0000003F0001003E0000003E00BC
:1018300001003D0000003D0001003C0000003C00B4
:1018400000003C0001003B0000003B0001003A00AA
:1018500000003A00010039000000390001003800A2
:101860000000380000003800010037000000370099
:10187000010036000000360000003600010035008F
:101880000000350000003500010034000000340085
:10189000000034000100330000003300000033007A
:1018A000010032000000320000003200010031006F
:1018B0000000310000003100010030000000300065
:1018C0000000300001002F0000002F0000002F005A
:1018D00000002F0001002E0000002E0000002E004E
:1018E00001002D0000002D0000002D0000002D0043
:1018F00001002C0000002C0000002C0000002C0037
:1019000001002B0000002B0000002B0000002B002A
:1019100001002A0000002A0000002A0000002A001E
:101920000100290000002900000029000000290012
:101930000000290001002800000028000000280005
:1019400000002800000028000100270000002700F8
:1019500000002700000027000000270001002600EB
:1019600000002600000026000000260000002600DF
:1019700001002500000025000000250000002500D2
:1019800000002500000025000100240000002400C4
:1019900000002400000024000000240001002300B7
:1019A00000002300000023000000230000002300AB
:1019B000000023000000230001002200000022009C
:1019C000000022000000220000002200000022008F
:1019D0000100210000002100000021000000210082
:1019E0000000210000002100000021000100200073
:1019F0000000200000002000000020000000200067
:101A000000002000000020000000200001001F0056
:101A100000001F0000001F0000001F0000001F004A
:101A200000001F0000001F0001001E0000001E003B
:101A300000001E0000001E00000024F4D43050C33B
:101A40008E20C2A24017828B7011127A910D816C88
:101A5000D90AA861E108C7586607615143061E4BC1
:101A60005D05C145A7041A411104093D9803713968
:101A700031034036DB0265339102D4305402802EAC
:101A80001D02632CEE01752AC501B028A0011027A4
:101A900081018F2564012B244B01E0223401AC210C
:101AA0001F018D200D01801FFC00841EED00971D7D
:101AB000DF00B81CD200E61BC600201BBC00641A65
:101AC000B200B219A8000A19A0006A189900D1172B
:101AD000910040178B00B516840031167E00B315B7
:101AE00079003A157300C7146F0058146A00EE139A
:101AF00066008813630025135E00C7125B006C123A
:101B0000570015125400C111510070114F002111DE
:101B10004B00D61049008D104700461044000210BB
:101B20004200C00F4000800F3E00420F3C00060FF5
:101B30003B00CB0E3800930E37005C0E3500270EAD
:101B40003400F30D3200C10D3100900D3000600DF6
:101B50002E00320D2D00050D2C00D90C2B00AE0CE3
:101B60002900850C29005C0C2700350C27000E0C81
:101B70002600E80B2400C40B2400A00B23007D0BDF
:101B800023005A0B2100390B2100180B2000F80A02
:101B90001F00D90A1E00BB0A1E009D0A1D00800AF4
:101BA0001D00630A1C00470A1B002C0A1B00110AB7
:101BB0001A00F7091A00DD091900C4091900AB0958
:101BC0001900920917007B091800630917004C09D6
:101BD000160036091600200916000A091500F50836
:101BE0001500E0081400CC081400B8081400A4087C
:101BF0001400900813007D0812006B0813005808A9
:101C000012004608120034081100230811001208BF
:101C1000110001081100F0071000E0071000D007C4
:101C20001000C0071000B0070F00A10710009107B7
:101C30000E0083070F0074070F0065070E0057079B
:101C40000E0049070E003B070D002E070E0020076F
:101C50000D0013070D0006070D00F9060C00ED0638
:101C60000D00E0060C00D4060C00C8060C00BC06F3
:101C70000C00B0060C00A4060B0099060C008D06A3
:101C80000B0082060B0077060B006C060B0061064A
:101C90000A0057060B004C060A0042060A003806E6
:101CA0000A002E060A0024060A001A060A00100678
:101CB000090007060A00FD050900F4050900EB0507
:101CC0000900E2050900D9050900D0050900C7058A
:101CD0000900BE050900B5050800AD050800A50509
:101CE00009009C050800940508008C05080084057F
:101CF00008007C050800740508006C0507006505F0
:101D000008005D050700560508004E050700470559
:101D100007004005080038050700310507002A05BF
:101D20000700230507001C050600160507000F0520
:101D300007000805060002050700FB040600F5047D
:101D40000700EE040600E8040600E2040700DB04D6
:101D50000600D5040600CF040600C9040600C3042B
:101D60000600BD040600B7040600B1040500AC047B
:101D70000600A6040600A00405009B0406009504C6
:101D80000500900406008A0405008504050080040F
:101D900006007A04050075040500700405006B0454
:101DA000050066040500610405005C040500570495
:101DB0000500520405004D040500480405004304D5
:101DC00005003E0404003A04050035040500300413
:101DD00004002C04050027040400230405001E044D
:101DE00004001A04040016040500110404000D0484
:101DF0000400090405000404040000040400FC03BA
:101E00000400F8030400F4030400F0030400EC03EE
:101E10000400E8030400E4030400E0030400DC031E
:101E20000400D8030400D4030400D0030400CC034E
:101E30000400C8030300C50303001000C902100119
:101E40002C014001220170011801B0010E01F001C6
:101E500004015002FA00B002F0003003E600D003A3
:101E6000DC009004D2007005C800A006BE00000887
:101E7000B400B009AA00D00BA000600E960060115B
:101E80008C000015820020197800C01D6E00A02271
:101E90006400B0275A00902C500000314600E03416
:101EA0003C0010383200903A2800603C1E00A03DF3
:101EB0001400803E0A00203F00001000C902E0002C
:101EC0002C01000122013001180170010E01B00146
:101ED0000401F001FA005002F000F002E600900365
:101EE000DC004004D2004005C8004006BE000008E7
:101EF000B400B009AA00D00BA000600E96006011DB
:101F00008C000015820020197800C01D6E00A022F0
:101F10006400B0275A00902C500000314600E03495
:101F20003C0010383200903A2800603C1E00A03D72
:101F30001400803E0A00203F00001000AA03F001B8
:101F40003A019002220130031001D0030201700413
:101F5000F7001005ED00B005E5005006DD00F006C5
:101F6000D7009007D1003008CC00D008C700700916
:101F7000C300100ABE00B00ABB00500BB700F00B44
:101F8000B300900CB000D00DAA00100FA5005010A7
:101F9000A00090119B00D0129600B01490009016F3
:101FA0008B0070188500501A8000301C7B00B01E1A
:101FB000750030216F00B0236900302664001028BE
:101FC0005F00902A5A00702C5500F02E4F0070319F
:101FD0004800B0324500F033410070363900103708
:101FE00037005038330090392D00D03A2700B03CEC
:101FF0001C00503D1700F03D1100903E0900D03FFD
:10200000E5FF5A5F6D6F76655F636F6D700A00471D
:102010003238580047323859004732385A00473270
:10202000380A4D343820503130004D3834004732B2
:102030003920503420523939392054004732392060
:1020400050342054004732380A4732362043204269
:10205000363520483233302050004732380A473274
:102060003620432042363520483236302050004753
:102070003239204A30004732392050332054300062
:102080004732392050322042205430004732380A3B
:102090004D313930205336350A4D313039205332E5
:1020A00033300A4732392050310A4D313034205311
:1020B000300A4D313430205330004732380A4D3128
:1020C0003930205336350A4D3130392053323630CD
:1020D0000A4732392050310A4D3130342053300A0A
:1020E0004D313430205330004732380A47323920DE
:1020F00050310047323920503120430047323920D7
:1021000049004732392054300047323920543100D9
:1021100047323920532D3100473239204939393976
:102120000A4732392050322042205430004732389A
:102130000A47323920503100473239205033205479
:102140003000473239205034205239393920540078
:10215000473239205034205239393920540047321F
:102160003920440047323920410047323920570096
:10217000417869732000206D696E3A00206D6178A6
:102180003A000900000A010008000A01000A0900DB
:1021900000000A0008005A5249425F5632305F443C
:1021A000395F50494E005A5249425F5632305F44BF
:1021B000365F50494E005A5F4D494E5F50524F4274
:1021C000455F50494E005A5F53544F505F50494E3F
:1021D000005A5F535445505F50494E005A5F4D4975
:1021E0004E5F50494E005A5F4D41585F50494E0076
:1021F0005A5F454E41424C455F50494E005A5F443C
:1022000049525F50494E00595F53544F505F5049F7
:102210004E00595F535445505F50494E00595F4D31
:10222000494E5F50494E00595F454E41424C455F13
:1022300050494E00595F4449525F50494E00585F23
:1022400053544F505F50494E00585F535445505FB0
:1022500050494E00585F4D494E5F50494E00585FFF
:10226000454E41424C455F50494E00585F444952EB
:102270005F50494E0053535F50494E0053455256EC
:102280004F335F50494E00534552564F325F5049CD
:102290004E00534552564F315F50494E0053455200
:1022A000564F305F50494E00534453530053445FE0
:1022B0004445544543545F50494E0053434B5F508F
:1022C000494E0052414D50535F44395F50494E00D2
:1022D00052414D50535F44385F50494E0052414D7A
:1022E00050535F4431305F50494E004D4F53495F6A
:1022F00050494E004D4F534645545F445F50494E40
:10230000004D49534F5F50494E004D4158363637C6
:10231000355F53535F50494E004C45445F50494E22
:10232000004C43445F50494E535F5253004C43446A
:102330005F50494E535F454E41424C45004C43442B
:102340005F50494E535F4437004C43445F50494E01
:10235000535F4436004C43445F50494E535F44350D
:10236000004C43445F50494E535F4434004B494C4A
:102370004C5F50494E004845415445525F424544E8
:102380005F50494E004845415445525F315F5049C6
:102390004E004845415445525F305F50494E00461B
:1023A000414E5F50494E0045315F535445505F5098
:1023B000494E0045315F454E41424C455F50494EC4
:1023C0000045315F4449525F50494E0045315F41FD
:1023D00055544F5F46414E5F50494E0045305F5364
:1023E0005445505F50494E0045305F454E41424C88
:1023F000455F50494E0045305F4449525F50494E59
:102400000045305F4155544F5F46414E5F50494E45
:1024100000455F4D5558325F50494E00455F4D5560
:1024200058315F50494E00455F4D5558305F504917
:102430004E00444F474C43445F53434B00444F4787
:102440004C43445F4D4F53490042544E5F454E4309
:102450000042544E5F454E320042544E5F454E316D
:10246000004245455045525F50494E004156525F2B
:1024700053535F50494E004156525F53434B5F5098
:10248000494E004156525F4D4F53495F50494E00EF
:102490004156525F4D49534F5F50494E0054584486
:1024A00030005258443000434F4D4D554E49434142
:1024B00054494F4E0044525952554E004552524FC6
:1024C000525300494E464F004543484F00457272F3
:1024D0006F722077726974696E6720746F2045454A
:1024E00050524F4D210A00363726033C3D380E2E00
:1024F000303E1213131A1C1824221E08440A0643E5
:1025000007064508090001627573793A2070617504
:1025100073656420666F7220696E7075740A00625C
:102520007573793A2070617573656420666F7220E7
:10253000757365720A00627573793A2070726F6301
:10254000657373696E670A0053544F505045442EAB
:1025500020005072696E7465722073746F707065BC
:10256000642064756520746F206572726F72732EBB
:102570002046697820746865206572726F722061E8
:102580006E6420757365204D39393920746F20725F
:102590006573746172742E202854656D7065726164
:1025A000747572652069732072657365742E20538B
:1025B0006574206974206166746572207265737435
:1025C000617274696E67290A004E6F204368656303
:1025D0006B73756D2077697468206C696E65206E09
:1025E000756D6265722C204C617374204C696E6548
:1025F0003A2000636865636B73756D206D69736D58
:10260000617463682C204C617374204C696E653A68
:1026100020004C696E65204E756D6265722069738D
:10262000206E6F74204C617374204C696E65204E6F
:10263000756D6265722B312C204C617374204C696E
:102640006E653A20004D313130002121204B494C3C
:102650004C20636175736564206279204B494C4C52
:1026600020627574746F6E2F70696E0A00212120CC
:102670004B494C4C2063617573656420627920740A
:102680006F6F206D75636820696E6163746976652C
:102690002074696D65202D2063757272656E7420DB
:1026A000636F6D6D616E643A2000506C6561736597
:1026B000205265736574005052494E54455220486B
:1026C000414C5445440025533A202553004B494C76
:1026D0004C45442E20005072696E7465722068610A
:1026E0006C7465642E206B696C6C28292063616CA6
:1026F0006C6564210A006563686F3A004572726F09
:10270000723A00204A0020204D3432312049002006
:1027100020473239204939390A0061637469766586
:102720000A00696E00002053797374656D2076315C
:102730002E303120002020207C0A004E414E002007
:10274000202E20202000207C004C43443A0A0043E5
:1027500053563A0A0020666F7220003A0A0A000AAD
:1027600042656420546F706F67726170687920529F
:1027700065706F72740050726F62696E6720466197
:10278000696C65640A0050726F62696E6720466109
:10279000696C656400205A3A200020593A200042B2
:1027A000656420583A2000446F6E652E0A003F4948
:1027B0006E76616C69642073746F726167652073F3
:1027C0006C6F742E0A3F557365203020746F2000A3
:1027D0003F454550524F4D2073746F7261676520BD
:1027E0006E6F7420617661696C61626C652E0A009F
:1027F000446F6E652E0A003F496E76616C696420F5
:1028000073746F7261676520736C6F742E0A3F5525
:102810007365203020746F20003F454550524F4D66
:102820002073746F72616765206E6F7420617661CA
:10283000696C61626C652E0A004732392050322083
:1028400066696E69736865642E0A005859206F7551
:102850007473696465207072696E7461626C65205E
:102860007261646975732E0A003F4572726F72203F
:10287000696E20427573696E65737320436172647B
:10288000206D6561737572656D656E742E0A004DFD
:10289000616E75616C6C792070726F62696E672011
:1028A000756E726561636861626C6520706F696ED8
:1028B00074732E0A00292E0A0A0050726F62696E24
:1028C000672061726F756E642028004D6573682003
:1028D000696E76616C6964617465642E2050726FF4
:1028E00062696E67206D6573682E0A004D657368B6
:1028F000207A65726F65642E0A0044656661756CA6
:10290000742073746F7261676520736C6F7420300C
:102910002073656C65637465642E0A004C6F616496
:10292000696E6720746573745F7061747465726E2C
:102930002076616C7565732E0A0A00496E76616CAB
:10294000696420746573745F7061747465726E205D
:1029500076616C75652E20282D3120746F20322908
:102960000A0A004C6F636174696F6E7320696E763A
:10297000616C6964617465642E0A0A00456E74694D
:102980007265204D65736820696E76616C6964615B
:102990007465642E0A0A005374616E646172642067
:1029A000446576696174696F6E3A20004D65616EA9
:1029B000204D657368204865696768743A20002374
:1029C000206F662073616D706C65733A20000A4D4C
:1029D000657368206F6E6C79207061727469616CC8
:1029E0006C7920706F70756C617465642E0A0A00D2
:1029F00050726F62696E6720506F696E7400255364
:102A00002025692F2569002E0A0A002F000A50721E
:102A10006F62696E67206D65736820706F696E7490
:102A2000200020616E642074616B652061206D65FB
:102A300061737572656D656E742E0A006D6D20741C
:102A40006869636B2E0A00427573696E6573732043
:102A500043617264206973200052656D6F76652052
:102A600026204D656173757265204265640052656C
:102A70006D6F7665207368696D00506C61636520C9
:102A80007368696D20756E646572206E6F7A7A6CFA
:102A900065004D65736820506F696E74204D6561E7
:102AA00073757265642061743A20000A4D6573681D
:102AB000206F6E6C79207061727469616C6C792022
:102AC000706F70756C617465642E0A004D6561737A
:102AD00075726500506C616365205368696D2026CE
:102AE000204D656173757265004D6F76696E672064
:102AF000746F206E657874004D6573682045646955
:102B000074696E672053746F7070656400446F6EF3
:102B1000652045646974696E67204D6573680A00B5
:102B2000446F6E652045646974696E67204D6573F6
:102B3000680046696E652054756E696E67204D6544
:102B400073680028582C5929206F7574736964655F
:102B5000207072696E7461626C652072616469755F
:102B6000732E0A004F6666736574206F7574206F4C
:102B70006620626F756E64732E20283020746F207B
:102B800031306D6D290A0A00496E76616C696420E6
:102B90006D617020747970652E0A0A003F284629FD
:102BA0006164652068656967687420666F72204299
:102BB0006564204C6576656C20436F727265637442
:102BC000696F6E206E6F7420706C61757369626CD2
:102BD000652E0A0A003F43616E27742061637469A1
:102BE0007661746520616E642064656163746976E2
:102BF000617465206174207468652073616D65205F
:102C000074696D652E0A0A00426F74682058202688
:102C10002059206C6F636174696F6E73206D7573DA
:102C200074206265207370656369666965642E0A45
:102C30000A003F496E76616C69642067726964209E
:102C400073697A6520284A2920737065636966690B
:102C500065642028322D39292E0A0A003F28502980
:102C6000686173652076616C756520696E76616C4C
:102C700069642028302D36292E0A0A003F2856295B
:102C80006572626F7365206C6576656C20696D7026
:102C90006C61757369626C652028302D34292E0AA9
:102CA0000A003F285229657065746974696F6E2047
:102CB000636F756E7420696E76616C69642028316B
:102CC0002B292E0A0A00446F696E672047323900AB
:102CD00091218C21872182215D0A00626564207028
:102CE0006C616E65206E6F726D616C203D205B00C3
:102CF000436F756C64206E6F7420636F6D706C65CC
:102D00007465204C53462100436F7272656374658D
:102D1000645F5A3D0025532025692F2569000A0A62
:102D2000002F0054696C74696E67206D65736820AC
:102D3000706F696E7420003F4572726F72207072FE
:102D40006F62696E6720706F696E742E2041626FCA
:102D50007274696E67206F7065726174696F6E2E30
:102D60000A00436F727265637465645F5A3D0025A3
:102D70005320332F330054696C74696E67206D657E
:102D800073682028332F33290A00436F72726563FA
:102D90007465645F5A3D00255320322F3300546917
:102DA0006C74696E67206D6573682028322F332933
:102DB0000A00436F727265637465645F5A3D005424
:102DC000696C74696E6720506F696E7400255320BA
:102DD000312F330054696C74696E67206D657368B8
:102DE0002028312F33290A00646F6E650A00496E6E
:102DF00073756666696369656E7420646174610ADF
:102E00000000000040398E0B42398E87425655C96A
:102E100042398E0543C771264356554743E4386807
:102E200043398E84430000954300000040721C0724
:102E300042721C8342ABAAC242721C01438EE32041
:102E400043ABAA4043C8716043721C8043000090AA
:102E5000434578747261706F6C6174696E67206D40
:102E60006573682E2E2E00486F74656E6420746F33
:102E70006F20636F6C640A00507265737320627513
:102E800074746F6E20746F20726573756D650A00BF
:102E9000496E736572742066696C616D656E74202D
:102EA000616E6420707265737320627574746F6EE6
:102EB0000A00507265737320627574746F6E2074AB
:102EC0006F2068656174206E6F7A7A6C650A004DB8
:102ED0003630303A20546F6F20436F6C6400486F77
:102EE00074656E6420746F6F20636F6C640A0047B2
:102EF00032362048656174696E67204E6F7A7A6C4D
:102F000065004732362048656174696E6720426506
:102F1000640057616974696E6720666F7220686526
:102F2000617475702E0A004669786564204C656E80
:102F3000677468205072696D6500446F6E6520503B
:102F400072696D696E67004D616E75616C2070729B
:102F5000696D696E672E2E2E004732362043616EF2
:102F600063656C6564004C656176696E6720473205
:102F700036003F53706563696669656420582C5953
:102F800020636F6F7264696E617465206F75742061
:102F90006F6620626F756E64732E0A003F28522997
:102FA00065706561742076616C7565206E6F742044
:102FB000706C61757369626C653B206D757374200C
:102FC0006265206174206C6561737420312E0A0083
:102FD0003F537065636966696564206E6F7A7A6CC9
:102FE000652074656D7065726174757265206E6FB1
:102FF0007420706C61757369626C652E0A003F53B2
:1030000070656369666965642066696C616D656E8B
:10301000742073697A65206E6F7420706C617573AB
:1030200069626C652E0A003F537065636966696565
:1030300064207072696D65206C656E677468206EBF
:103040006F7420706C61757369626C652E0A003F45
:10305000537065636966696564206E6F7A7A6C6522
:103060002073697A65206E6F7420706C6175736966
:10307000626C652E0A003F52657472616374696FF9
:103080006E204D756C7469706C696572206D757316
:1030900074206265207370656369666965642E0AD1
:1030A000003F537065636966696564205265747298
:1030B000616374696F6E204D756C7469706C6965BD
:1030C00072206E6F7420706C61757369626C652E0E
:1030D0000A003F537065636966696564206C6179B5
:1030E000657220686569676874206E6F7420706C03
:1030F00061757369626C652E0A0043292E0A003FD0
:1031000053706563696669656420626564207465EF
:103110006D7065726174757265206E6F7420706C6D
:1031200061757369626C65202834302D0047323632
:10313000207374617274696E672E2E2E0A004F46DA
:10314000460A004661646520486569676874200026
:10315000426564204C6576656C696E672000466147
:10316000696C656420746F20656E61626C652042D5
:103170006564204C6576656C696E670A00496E76F9
:10318000616C6964206D6573682E0A0076616C69F4
:10319000640A53746F7261676520736C6F743A20B0
:1031A00000696E004D65736820697320003F557398
:1031B00065203020746F20003F496E76616C696431
:1031C0002073746F7261676520736C6F742E0A00D0
:1031D0003F454550524F4D2073746F7261676520B3
:1031E0006E6F7420617661696C61626C652E0A0095
:1031F000446576696174696F6E0025533A202573C2
:10320000005374616E646172642044657669617410
:10321000696F6E3A20002052616E67653A20002087
:103220004D61783A2000204D696E3A20004D65616D
:103230006E3A200046696E6973686564210A002051
:1032400072616E67653A2000206D61783A20002037
:103250006D696E3A2000207369676D613A20002025
:103260006D65616E3A20003A207A3A2000206F6640
:103270002000476F696E6720746F3A2058004357EB
:103280000A00206469723A0020616E676C653A003A
:103290005374617274207261646975733A004D34BD
:1032A0003820506F696E740025533A2025642F250D
:1032B0006400506F736974696F6E696E672074681B
:1032C000652070726F62652E2E2E0A003F4E756D5E
:1032D000626572206F66206C65677320696E206D71
:1032E0006F76656D656E74206E6F7420706C61759D
:1032F0007369626C652028302D3135292E0A003F14
:103300002028582C5929206F7574206F6620626F11
:10331000756E64732E0A003F53616D706C65207387
:10332000697A65206E6F7420706C61757369626C68
:10333000652028342D3530292E0A004D3438205A86
:103340002D50726F626520526570656174616269AB
:103350006C69747920546573740A003F2856296596
:1033600072626F7365206C6576656C20696D706C38
:1033700061757369626C652028302D34292E0A002E
:1033800050574D3A20202534640050574D3A2020A4
:103390002534640050574D3A20202534640050579E
:1033A0004D3A20202534640050574D3A20202534D2
:1033B000640050574D3A20202534640050574D3A50
:1033C00020202534640050574D3A202025346400D5
:1033D00050574D3A20202534640050574D3A202054
:1033E0002534640050574D3A20202534640050574E
:1033F0004D3A20202534640050574D3A2020253482
:10340000640050574D3A20202534640050574D3AFF
:1034100020202534640050574D3A20202534640084
:103420003A200020202020434F4D002020206E6FA6
:103430006E2D7374616E646172642050574D206DFF
:103440006F646500202020636F6D70617265206974
:103450006E7465727275707420656E61626C6564FD
:10346000002020206F766572666C6F7720696E741D
:1034700065727275707420656E61626C6564003A85
:1034800020002020202054494D534B00423A200078
:10349000202020205443435200413A200020202085
:1034A0002054434352002020202043533A20002040
:1034B00020202057474D3A200050574D3A202025D4
:1034C00034640050574D3A202025346400470048AA
:1034D00000000088008A008C00B300B4000000984F
:1034E000009A009C00A800AA00AC0028012A012C28
:1034F000012020202054494D455200440045006ED3
:1035000000800081006F00B000B100700090009159
:10351000007100A000A100720020012101730020B1
:10352000697320616C736F207469656420746F2007
:10353000746869732070696E0054494D4552314377
:10354000000A202E002020002020506F72743A20A4
:103550000020202000202020416E616C6F672069D0
:103560006E203D2025356C64003C756E7573656476
:103570002F756E6B6E6F776E3E002028412532648A
:1035800029202000253364200050494E3A20004F66
:103590007574707574203D2000496E70757420201C
:1035A0003D2000416E616C6F6720696E203D2025D3
:1035B000356C640070726F746563746564200020FC
:1035C00028412532642920200025336420005049F9
:1035D0004E3A2000A22400019D24010190243201D2
:1035E00083243301772434016C24350161242501BF
:1035F00059241F0151242101492423013D24330171
:1036000032243401272428011C242A0111242C01EE
:1036100001240601F6231C01E8231801DC231A010A
:10362000CC230601C1232201B3231E01A7232401B9
:103630009F23090192230A018523070176230801AC
:103640006D232901612317015523190149231B010A
:103650003D231D012D2311012123100119230D01EB
:103660000A23420101233201F4220701EB22330134
:10367000DD220A01D0220801C3220901BB22340144
:10368000AD223101A82235019D220B0192220601B3
:10369000872205017C220401752235016B22370146
:1036A0005E22260154220301492236013E220301F3
:1036B00034223D01272238011D220E0112223C0135
:1036C00007220E01FD213001F0213E01E621130108
:1036D000DC211201D1212E01C6211201B6211301D4
:1036E000A621060196210901446F6E652E0A00503D
:1036F000756C73696E6720202000556E746F75635A
:103700006865642000534552564F206E6F742073D5
:1037100065742075702E0A005761746368696E675E
:103720002070696E730A0064697300656E006162DF
:103730006C65640A00656E6473746F70206D6F6EE3
:1037400069746F7220004F4646004F4E0020204D96
:1037500061783A2000200020204D696E3A20005305
:103760006F667420656E6473746F70733A200029FD
:103770000A00204B00285300204B002053004164D6
:1037800076616E63652054002E0A002028302D31AA
:103790003029002076616C7565206F7574206F6626
:1037A0002072616E6765005761726E696E67203ABC
:1037B00020436C65616E20436972636C652072659D
:1037C0007175697265732058590A0020496E7661D7
:1037D0006C69642065787472756465722000473284
:1037E0002F47332062616420706172616D6574657A
:1037F00072730A00536C6565702E2E2E00205A3AA3
:10380000200020593A200042656420583A20004D9B
:1038100065736820706F696E742063616E6E6F747B
:10382000206265207265736F6C7665640A00436C74
:1038300069636B20746F20526573756D652E2E2E33
:10384000004E6F204D6F76652E0025697300256947
:103850006D20256973002569682025696D2025691B
:103860007300256964202569682025696D20256914
:1038700073002569792025696420256968202569F8
:103880006D20256973005072696E742074696D65CE
:103890003A2000496E76616C69642050696E204D53
:1038A0006F64650A00436F6F6C696E672E2E2E0081
:1038B00048656174696E672E2E2E004525632025AC
:1038C00053006F6B006F666600C824C324BC24B528
:1038D00024A72444454255473A004D313132205304
:1038E000687574646F776E004D3131332053004238
:1038F000656420436F6F6C696E672E2E2E004265E3
:10390000642048656174696E672E2E2E005A385205
:1039100032204F46462E004348414D4245525F54A7
:10392000454D5045524154555245004D4F54494F15
:103930004E5F4D4F44455300544845524D414C5FF6
:1039400050524F54454354494F4E004155544F52E5
:1039500045504F52545F53445F53544154555300A4
:1039600050524F4D50545F535550504F5254004594
:103970004D455247454E43595F50415253455200C1
:10398000434153455F4C494748545F425249474879
:10399000544E45535300544F47474C455F4C49479D
:1039A00048545300534F4654574152455F504F5768
:1039B0004552004255494C445F50455243454E5490
:1039C000004C4556454C494E475F44415441005ACE
:1039D0005F50524F4245004155544F4C4556454C5F
:1039E000005052494E545F4A4F420050524F475286
:1039F000455353004155544F5245504F52545F5414
:103A0000454D5000564F4C554D4554524943004585
:103A10004550524F4D0042494E4152595F46494C24
:103A2000455F5452414E5346455200534552494119
:103A30004C5F584F4E5F584F4646004649524D57CF
:103A40004152455F4E414D453A4D61726C696E2061
:103A5000322E302E352E342028476974487562295D
:103A600020534F555243455F434F44455F55524C99
:103A70003A68747470733A2F2F6769746875622E90
:103A8000636F6D2F4D61726C696E4669726D7761FF
:103A900072652F4D61726C696E2050524F544F43C6
:103AA0004F4C5F56455253494F4E3A312E30204DC0
:103AB000414348494E455F545950453A5A3852326D
:103AC0002045585452554445525F434F554E543A41
:103AD0003220555549443A63656465326132662D3A
:103AE000343161322D343734382D396231322D631F
:103AF00035356336326633363766660A002F2F2037
:103B0000004D31343520533C696E6465783E206F3A
:103B10007574206F662072616E67652028302D31C4
:103B2000290A00416363656C65726174696F6E0098
:103B30004665656472617465002052004163636587
:103B40006C65726174696F6E3A2050003F4A206F55
:103B50007574206F662072616E67652028302E3084
:103B60003120746F20302E33290A00486F74656E3F
:103B700064206F6666736574733A0046523A00209B
:103B8000466C6F773A200050726F74656374656499
:103B90002050696E0A00496E76616C696420657810
:103BA0007472756465720A0020643A0020693A00F4
:103BB00020703A0020653A0064697300656E004326
:103BC000290A0061626C656420286D696E20746545
:103BD0006D702000436F6C64206578747275646545
:103BE000732061726520004D65736820706F696E87
:103BF000742063616E6E6F74206265207265736FEE
:103C00006C7665640A004D34323120696E636F72E0
:103C10007265637420706172616D65746572207580
:103C2000736167650A004F6666736574732041703F
:103C3000706C696564004572723A20546F6F20663B
:103C400061722100546F6F206661722066726F6D21
:103C5000207265666572656E636520706F696E744B
:103C60000A00454550524F4D204F4B0A00446966AB
:103C7000663A200046726F6D5374703A0053746553
:103C8000707065723A00556E4C6576656C3A004C02
:103C90006576656C65643A005261773A2020202091
:103CA000000A4C6F676963616C3A00436F756E740C
:103CB00020453A004361703A00290A0020746F20C1
:103CC000003F5A206F7574206F662072616E6765C1
:103CD000202800290A0020746F20003F59206F75AA
:103CE00074206F662072616E676520282D00290A96
:103CF0000020746F20003F58206F7574206F66207D
:103D000072616E676520282D0050726F6265204FCA
:103D10006666736574205800220A00656E717565C9
:103D20007565696E672022006F6B00526573656E62
:103D3000643A200023646566696E65204445464107
:103D4000554C545F004B6420004B6920004B7020A1
:103D500000504944204175746F74756E6520666922
:103D60006E697368656421205075742074686520DD
:103D70006C617374204B702C204B6920616E642041
:103D80004B6420636F6E7374616E74732066726F20
:103D90006D2062656C6F7720696E746F20436F6E63
:103DA00066696775726174696F6E2E680A005049A2
:103DB00044204175746F74756E65206661696C6529
:103DC00064212074696D656F75740A005049442040
:103DD0004175746F74756E65206661696C656421E8
:103DE0002054656D706572617475726520746F6FB3
:103DF00020686967680A00204B643A2000204B69FC
:103E00003A2000204B703A20000A20436C61737303
:103E1000696320504944200A00204B643A20002066
:103E20004B693A2000204B703A20000A204E6F2048
:103E30006F76657273686F6F740A002054753A204C
:103E400000204B753A2000206D61783A2000206DEB
:103E5000696E3A200020643A200020626961733A5A
:103E60002000504944204175746F74756E6520734D
:103E7000746172740A00504944204175746F7475FE
:103E80006E65206661696C6564212054656D70659E
:103E900072617475726520746F6F20686967680A53
:103EA00000504944204175746F74756E65206661D9
:103EB000696C656421204261642065787472756460
:103EC0006572206E756D6265720A004572723A20E5
:103ED0007574663820666F6E74206E6F7420696E1C
:103EE000697469616C697A65642E004572723A2062
:103EF0007574663820666F6E74206E6F7420696EFC
:103F0000697469616C697A65642E004572723A2041
:103F10007574663820666F6E74206E6F7420696EDB
:103F2000697469616C697A65642E00000C0D00FE8D
:103F300007022603BC017FFE08FE08FE05080806EE
:103F4000000040F0C888889878100508080600002E
:103F5000C0F88888888888F80505050600012030A3
:103F6000F830200508080600002070F820202020E6
:103F7000E00509090600FF2070A8A8B8888870200D
:103F8000050606060001E08CEA8C8A0A0509090686
:103F900000FFF8A88888888888A8F8050A0A06001B
:103FA000FE205050505088A8A888700303030600D4
:103FB0000340A040FFFFFFFFFFFFFFFFFFFFFFFFEA
:103FC000FFFFFFFFFFFFFFFFFFFF0000000605FFF1
:103FD00001070706020080808080800080030303C1
:103FE000060105A0A0A005060606000050F85050E6
:103FF000F8500509090600FF2070A8A07028A870D5
:1040000020050707060000C8C8102040989805073B
:104010000706000040A0A040A89068010303060224
:10402000058080800309090601FF204040808080D0
:104030004040200309090601FF8040402020204025
:10404000408005070706000020A8702070A8200502
:1040500005050600012020F820200203030601FFC9
:10406000C04080050101060003F8020202060100BB
:10407000C0C005070706000008101020404080055A
:104080000707060000708898A8C88870030707060D
:10409000010040C040404040E005070706000070B6
:1040A0008808102040F8050707060000F8081030BF
:1040B00008887005070706000010305090F81010AF
:1040C000050707060000F880F00808887005070754
:1040D000060000304080F088887005070706000061
:1040E000F8081010202020050707060000708888B7
:1040F00070888870050707060000708888780810A7
:1041000060020505060100C0C000C0C00206060628
:1041100001FFC0C000C0408003050506010120402A
:10412000804020050303060002F800F80305050699
:1041300001018040204080050707060000708810BC
:10414000202000200507070600007088B8A8B88066
:1041500070050707060000708888F88888880507BA
:1041600007060000F04848704848F00507070600B9
:104170000070888080808870050707060000F0487E
:1041800048484848F0050707060000F88080F0809E
:1041900080F8050707060000F88080F08080800521
:1041A000070706000070888080988870050707065A
:1041B0000000888888F8888888030707060100E0DF
:1041C0004040404040E0050707060000381010104E
:1041D0001090600507070600008890A0C0A0908896
:1041E000050707060000808080808080F8050707AB
:1041F00006000088D8A88888888805070706000078
:104200008888C8A8988888050707060000708888ED
:1042100088888870050707060000F08888F080808D
:104220008005070706000070888888A89068050741
:1042300007060000F08888F0A090880507070600B0
:104240000070888070088870050707060000F82055
:1042500020202020200507070600008888888888FD
:104260008870050707060000888888885050200558
:10427000070706000088888888A8A8500507070651
:1042800000008888502050888805070706000088AD
:10429000885020202020050707060000F80810207D
:1042A0004080F80309090601FFE08080808080805B
:1042B00080E005070706000080404020101008033A
:1042C00009090601FFE020202020202020E005032E
:1042D000030600052050880501010600FEF80303CF
:1042E00003060105804020050505060000700878DA
:1042F00088780507070600008080F0888888F00528
:10430000050506000070808088700507070600001C
:10431000080878888888780505050600007088F008
:104320008070050707060000304840E04040400527
:1043300007070600FE70888888780870050707065A
:1043400000008080F0888888880307070601004005
:1043500000C0404040E00409090601FE1000301092
:10436000101010906005070706000080808890E01C
:104370009088030707060100C04040404040E00528
:104380000505060000D0A8A8A8A805050506000098
:10439000B0C8888888050505060000708888887080
:1043A0000507070600FEF0888888F080800507076B
:1043B0000600FE788888887808080505050600004C
:1043C000B0C880808005050506000078807008F080
:1043D0000507070600002020F82020201805050505
:1043E000060000888888986805050506000088880A
:1043F0008850200505050600008888A8A8500505F6
:104400000506000088502050880507070600FE8832
:10441000888850204080050505060000F8102040DF
:10442000F80309090601FF20404040804040402039
:104430000109090602FF80808080808080808003DF
:1044400009090601FF8040404020404040800503AC
:104450000306000248A890FF1FE0201023102490BC
:1044600010A011202210241037B00840048003004F
:104470001FE02010211023101520112021102110E1
:1044800031300840048003001FE03FF03CF03B70F7
:104490001F601EE03DF03BF038700FC00780030046
:1044A0001FE03FF03EF03CF01AE01EE03EF03EF030
:1044B0003EF00FC0078003005072696E7420506197
:1044C00075736564004578747275646572202A009E
:1044D0004578747275646572004D6F7665205A0078
:1044E0004D6F76652059004D6F76652058004F66F8
:1044F00066004F6E00536F667420456E6473746F70
:104500007073004D6F74696F6E004D3834004469EC
:104510007361626C652053746570706572730047D7
:1045200032380A4D343820503130004D3438205064
:10453000726F6265205465737400556E69666965B3
:104540006420426564204C6576656C696E6700473F
:1045500032385A00486F6D65205A0047323859008A
:10456000486F6D652059004732385800486F6D65B7
:104570002058004175746F20486F6D65004D6F764F
:10458000652041786973004D61696E0050726568FD
:1045900065617420504C4120416C6C00507265681C
:1045A00065617420504C4120456E64207E0050723D
:1045B000656865617420504C41204265640050720A
:1045C000656865617420504C41207E0050726568BA
:1045D000656174205045475420416C6C00507265F1
:1045E00068656174205045475420456E64207E0004
:1045F000507265686561742050454754207E0050B4
:1046000072656865617420504547542042656400B6
:1046100054656D706572617475726500436F6F6C7F
:10462000646F776E0050726568656174205045470D
:1046300054005072656865617420504C41004661B9
:104640006E20537065656400426564004E6F7A7A2F
:104650006C65207E004D61696E0042616279737401
:104660006570205A00416476616E6365204B202A94
:1046700000466C6F77207E00466C6F770046616E57
:1046800020537065656400426564004E6F7A7A6CF1
:1046900065207E005370656564004D61696E0000A1
:1046A000FE0003FF8007C7C00701E00000E0000034
:1046B000F00000700400700E00701F00703F80F06A
:1046C0000E00E00F01E007C7C003FF8000FE0000FE
:1046D000FE0003FF8007C7C00F01E00E00E03F802F
:1046E000F01F00700E00700400700000700000F0F9
:1046F0000000E00701E007C7C003FF8000FE000ED6
:10470000000E000E000E000E000E000E000E007FC8
:10471000C03F801F000E00040004000E001F003F79
:10472000807FC00E000E000E000E000E000E000E68
:10473000000E00FFFFFF7F80FFC0FFC0FFC07F8033
:104740007F80FFC0FFC0FFC03F001E000C004D6512
:10475000736820456469746F7200473239205031A4
:10476000004D31303920532569004D313930205307
:104770002569004265642054656D7000486F74655A
:104780006E642054656D70002E2569004732392013
:1047900050362043202D0048656967687420416DBC
:1047A0006F756E740041646A757374204D6573682B
:1047B00020486569676874004732392050342054B6
:1047C0000046696E652054756E6520436C6F736595
:1047D000737400473239205034205239393920540B
:1047E0000046696E652054756E6520416C6C00470B
:1047F0003236204320422569204825692050005642
:10480000616C696461746520437573746F6D204DCC
:10481000657368004732380A4732362043204236F3
:1048200035204832363020500056616C696461741E
:1048300065204D657368202850454754290047324C
:10484000380A47323620432042363520483233304A
:1048500020500056616C6964617465204D65736811
:104860002028504C412900473239204A2569004C04
:104870006576656C204D65736800536964652050EA
:104880006F696E74730047726964204D65736820A8
:104890004C6576656C696E6700473239204A300096
:1048A000332D506F696E74204C6576656C696E6748
:1048B00000473239205033205220432E25690047CB
:1048C00032392050322042205430004D616E7561E3
:1048D0006C2046696C6C2D696E004732392050336C
:1048E00020543000536D6172742046696C6C2D69E0
:1048F0006E0046696C6C2D696E20416D6F756E742B
:10490000004D65736820696E76616C6964617465D9
:10491000642E0A00496E666F2053637265656E00EF
:10492000473239204900496E76616C69646174656B
:1049300020436C6F7365737400496E76616C6964B3
:1049400061746520416C6C0047323920503120433E
:1049500000436F6E74696E756520426564204D6515
:1049600073680046696C6C2D696E204D6573680034
:104970004732380A473239205031004275696C6439
:1049800020436F6C64204D657368004275696C64E8
:1049900020437573746F6D204D657368004732381E
:1049A0000A4D313930205336350A4D3130392053D4
:1049B0003236300A4732392050310A4D31303420F6
:1049C00053300A4D313430205330004275696C64E5
:1049D000204D6573682028504547542900473238D8
:1049E0000A4D313930205336350A4D313039205394
:1049F0003233300A4732392050310A4D31303420B9
:104A000053300A4D313430205330004275696C64A4
:104A1000204D6573682028504C4129004D313137B5
:104A2000204D657368202569204C6F6164656400C2
:104A3000473239204C2569004D313137204D65739F
:104A40006820256920536176656400473239205318
:104A50002569005361766520426564204D65736861
:104A6000004C6F616420426564204D657368004DA1
:104A7000656D6F727920536C6F74004E6F205374A4
:104A80006F7261676500486F6D696E672058595A8B
:104A9000004732392050342058257320592573207F
:104AA00052256900202D2D2D2D2D005A3A00593AFE
:104AB000004732380047323920532D31004F6666A7
:104AC000205072696E746572204261636B7570006C
:104AD000473239205431004F757470757420666FF9
:104AE000722043535600473239205430004F7574BA
:104AF00070757420666F7220486F7374004D657313
:104B000068204C6576656C696E6700456469742041
:104B10004D6573680056616C6964617465204D650C
:104B200073680047323920493939390A4732392008
:104B300050322042205430004D616E75616C6C79AA
:104B4000204275696C64204D657368004275696C1C
:104B500064204D65736800372E20536176652042CE
:104B60006564204D65736800473239205034205207
:104B7000393939205400362E2046696E6520547527
:104B80006E6520416C6C00352E2056616C69646145
:104B90007465204D657368004732392050342052C7
:104BA000393939205400342E2046696E65205475F9
:104BB0006E6520416C6C00332E2056616C69646117
:104BC0007465204D65736800473239205033205496
:104BD0003000322E20536D6172742046696C6C2D4A
:104BE000696E004732380A47323920503100312E81
:104BF000204275696C6420436F6C64204D65736856
:104C000000556E696669656420426564204C65766E
:104C1000656C696E67004661646520486569676810
:104C200074004732392057004F75747075742055E1
:104C3000424C20496E666F0055424C20546F6F6C99
:104C400073004F7574707574204D657368204D61E5
:104C500070004D6573682053746F72616765004D15
:104C6000657368204564697400537465702D4279DA
:104C70002D537465702055424C0047323920410055
:104C800041637469766174652055424C004732393E
:104C900020440044656163746976617465205542FF
:104CA0004C004D6F74696F6E002568753A2530327F
:104CB00068750025303268753A25303268750025F0
:104CC0006875642025303268753A25303268750081
:104CD0002020202020202000202020200070445868
:104CE00044A04488443FFFF038007030FC3020FC82
:104CF000102078102030102C00D02E31D02F7BD0F7
:104D00002F7BD02E31D02C00D020301020781020D6
:104D1000FC1030FC303800703FFFF03FFFF03800EF
:104D2000703186302387102787902F87D02F03D0AC
:104D30002030102078102078102030102F03D02F32
:104D400087D02787902387103186303800703FFF47
:104D5000F01FFFF81FFFF80410400208200208208F
:104D600004104008208010410010410008208004F9
:104D700010400000001FFFF81FFFF85A3852322081
:104D800052656164792E005072696E74696E672E87
:104D90002E2E004D323520500A4D323400506175B0
:104DA0007365205072696E7400290A00206279745C
:104DB00065733B20637263200053657474696E678A
:104DC000732053746F7265642028004E6F20454530
:104DD00050524F4D2E0A00454550524F4D206461B0
:104DE000746173697A65206572726F722E0A003F72
:104DF0004D65736820746F6F2062696720666F72FB
:104E000020454550524F4D2E0A0055424C207265A8
:104E10007365740A00206C6F616465642066726F4C
:104E20006D2073746F726167652E0A004D6573683B
:104E300020002E0A003F43616E277420656E616278
:104E40006C65200020696E697469616C697A6564BB
:104E50002E0A0A00290A002062797465733B2063D8
:104E6000726320002073746F7265642073657474BC
:104E7000696E67732072657472696576656420284F
:104E800000202863616C63756C6174656429210A74
:104E90000020213D2000454550524F4D20435243B4
:104EA000206D69736D61746368202D202873746FA1
:104EB0007265642920002053697A653A2000496EA2
:104EC0006465783A2000204D61726C696E3D5637FA
:104ED00036290A00454550524F4D20766572736958
:104EE0006F6E206D69736D6174636820284545504D
:104EF000524F4D3D004E6F20454550524F4D2E0AAA
:104F000000454550524F4D20496E697469616C6986
:104F10007A65640A004D6573682073617665642064
:104F2000696E20736C6F7420003F556E61626C6512
:104F300020746F2073617665206D657368206461ED
:104F400074612E0A0020736C6F743D00206D6573D0
:104F50006865735F656E643D004532454E443D00B3
:104F6000206D65736820736C6F747320617661695E
:104F70006C61626C652E0A003F496E76616C6964F3
:104F800020736C6F742E0A004D657368206C6F611E
:104F90006465642066726F6D20736C6F7420003FCF
:104FA000556E61626C6520746F206C6F6164206D5A
:104FB00065736820646174612E0A004861726463DD
:104FC0006F6465642044656661756C742053657414
:104FD00074696E6773204C6F616465640A00000039
:104FE0004843000048430000A04000004842000041
:104FF000A0420000A0420000C8430080BD42E2047D
:105000000000E20400006400000088130000556EF8
:10501000696669656420426564204C6576656C69E3
:105020006E67003B20003A0A0020204D36303320C6
:1050300000546F6F6C2D6368616E67696E673A002C
:105040002055005431204C002055005430204C0095
:1050500046696C616D656E74206C6F61642F756E4E
:105060006C6F6164206C656E677468733A00204BE6
:105070000020204D3930302054004C696E6561723B
:1050800020416476616E63653A0020204D383531E9
:105090002058005A2D50726F6265204F6666736506
:1050A000740020204D3230392053004175746F2D2B
:1050B000526574726163743A20533D3020746F20DE
:1050C00064697361626C652C203120746F20696E95
:1050D0007465727072657420452D6F6E6C79206DE9
:1050E0006F76657320617320726574726163742FCB
:1050F0007265636F7665720020460020570020209D
:105100004D3230382053005265636F7665723A2015
:10511000533C6C656E6774683E20463C756E6974DE
:10512000732F6D3E0020460020570020204D323066
:1051300037205300526574726163743A20533C6C9B
:10514000656E6774683E20463C756E6974732F6D9A
:105150003E205A3C6C6966743E00204400204900A1
:1051600020500020204D333031204500504944204C
:1051700073657474696E67733A00204600204200BC
:1051800020480020204D3134352053004D61746596
:105190007269616C206865617475702070617261FC
:1051A0006D65746572733A00206D65736865732E62
:1051B0000A0A00454550524F4D2063616E20686FCA
:1051C0006C642000416374697665204D65736820C6
:1051D000536C6F743A200020204D3432302053003D
:1051E0000020580020204D323138205400486F7480
:1051F000656E64206F6666736574733A0020204D97
:10520000323036205800486F6D65206F66667365D2
:10521000743A00204A0020530020204D32303520BF
:105220004200416476616E6365643A20423C6D6978
:105230006E5F7365676D656E745F74696D655F75CC
:10524000733E20533C6D696E5F6665656472617480
:10525000653E20543C6D696E5F74726176656C5F6B
:1052600066656564726174653E204A3C6A756E636A
:105270005F6465763E0020520020204D323034209D
:105280005000416363656C65726174696F6E2028BC
:10529000756E6974732F7332293A20503C707269AD
:1052A0006E745F616363656C3E20523C726574721C
:1052B0006163745F616363656C3E20543C7472612A
:1052C00076656C5F616363656C3E0020204D323013
:1052D000312058004D6178696D756D2041636365BB
:1052E0006C65726174696F6E2028756E6974732FB6
:1052F0007332293A0020204D3230332058004D615E
:1053000078696D756D20666565647261746573207A
:1053100028756E6974732F73293A0053746570731E
:105320002070657220756E69743A0020204D32300D
:10533000302044300A0020440020540020204D3208
:105340003030002044697361626C65640A0046690C
:105350006C616D656E742073657474696E67733A01
:105360000020204D3134392043203B20556E697494
:105370007320696E2043656C736975730A00202879
:105380006D6D29002020473231202020203B205500
:105390006E69747320696E206D6D006F70656E00AC
:1053A000545249474745524544003A20007A5F70BD
:1053B000726F6265007A5F6D6178007A5F6D696E09
:1053C00000795F6D696E00785F6D696E005265707F
:1053D0006F7274696E6720656E6473746F7020738A
:1053E00074617475730A00000091430000964300D5
:1053F00000C843000018C20000E0C0000000002008
:10540000746F6F206C6F6E67206578747275736946
:105410006F6E2070726576656E7465640A00206335
:105420006F6C6420657874727573696F6E2070722A
:105430006576656E7465640A00486F6D696E6720F5
:105440004661696C656400000018C20000E0C0009D
:105450000000000000484200004842000080405721
:1054600061726E696E673A20486F6D696E6720429F
:10547000756D702044697669736F72203C20310A23
:10548000000202040000A0400000A0400000004014
:105490000000A443008099430000C843FFFFFF00C1
:1054A000000001000000010000800055555500007B
:1054B00000400033333300AAAA2A00499224000096
:1054C000002000C7711C0099991900D1451700559B
:1054D0005515003BB11300244912001111110000B1
:1054E0000010000F0F0F00E3380E0043790D00CCC1
:1054F000CC0C00C3300C00E8A20B0064210B00AA06
:10550000AA0A00703D0A009DD80900427B0900925A
:10551000240900DCD3080088880800104208000035
:10552000000800F0C1070087870700755007007169
:105530001C07003EEB0600A1BC0600699006006651
:10554000660600703E06006118060017F405007438
:10555000D105005BB00500B29005006272050055F0
:1055600055050078390500B81E0500050505004EF3
:10557000EC040087D40400A1BD040090A7040049F6
:10558000920400C17D0400EE690400C75604004483
:105590004404005C320400082104004110040000AF
:1055A0000004003FF00300F8E0030026D20300C32C
:1055B000C30300CCB503003AA803000A9B030038DC
:1055C0008E0300C08103009F750300D06903005063
:1055D0005E03001D53030034480300913D03003374
:1055E00033030016290300381F030097150300300A
:1055F0000C0300030303000BFA020049F10200BA96
:10560000E802005CE002002DD802002DD002005913
:10561000C80200B0C0020031B90200DAB10200AA2B
:10562000AA0200A0A30200BC9C0200FA9502005C42
:105630008F0200DF88020082820200457C02002780
:1056400076020027700200436A02007C640200D0E8
:105650005E02003F590200C85302001000C902E078
:10566000002C01000122013001180170010E01B06F
:10567000010401F001FA005002F000F002E600908F
:1056800003DC004004D2004005C8004006BE000014
:1056900008B400B009AA00D00BA000600E9600600C
:1056A000118C000015820020197800C01D6E00A02A
:1056B000226400B0275A00902C500000314600E0D0
:1056C000343C0010383200903A2800603C1E00A0A4
:1056D0003D1400803E0A00203F00001000C9021067
:1056E000012C014001220170011801B0010E01F0EE
:1056F0000104015002FA00B002F0003003E600D0CD
:1057000003DC009004D2007005C800A006BE0000B3
:1057100008B400B009AA00D00BA000600E9600608B
:10572000118C000015820020197800C01D6E00A0A9
:10573000226400B0275A00902C500000314600E04F
:10574000343C0010383200903A2800603C1E00A023
:105750003D1400803E0A00203F000020746F6F203F
:105760006C6F6E6720657874727573696F6E2070E8
:10577000726576656E7465640A0020636F6C6420E0
:10578000657874727573696F6E2070726576656E78
:105790007465640A00206C696D6974656420746FB7
:1057A0002000204D61782000FFFDFCFAF8F6F4F2AD
:1057B000F0EEECEAE9E7E5E3E1E0DEDCDAD9D7D5C3
:1057C000D4D2D0CFCDCBCAC8C7C5C3C2C0BFBDBC61
:1057D000BAB9B7B6B4B3B2B0AFADACAAA9A8A6A5D2
:1057E000A4A2A1A09E9D9C9A99989795949392901B
:1057F0008F8E8D8B8A8988878684838281807F7E45
:105800007D7B7A797877767574737271706F6E6D4F
:105810006C6B6A696867666564636261605F5E5D40
:105820005C5B5A5958585756555453525150504F23
:105830004E4D4C4B4A4A49484746464544434242EE
:1058400041403F3E3E3D3C3B3B3A393838373635A8
:1058500035343332323130302F2E2E2D2C2B2B2A53
:1058600029292827272625252423232221212020F2
:105870001F1E1E1D1C1C1B1B1A1919181817161683
:10588000151514131312121111100F0F0E0E0D0D0A
:105890000C0C0B0A0A090908080707060605050487
:1058A000040303020201000024F4D43050C38E200C
:1058B000C2A24017828B7011127A910D816CD90AA5
:1058C000A861E108C7586607615143061E4B5D0594
:1058D000C145A7041A411104093D980371393103E8
:1058E0004036DB0265339102D4305402802E1D0213
:1058F000632CEE01752AC501B028A0011027810193
:105900008F2564012B244B01E0223401AC211F01BF
:105910008D200D01801FFC00841EED00971DDF000F
:10592000B81CD200E61BC600201BBC00641AB200E3
:10593000B219A8000A19A0006A189900D11791009D
:1059400040178B00B516840031167E00B315790020
:105950003A157300C7146F0058146A00EE136600FE
:105960008813630025135E00C7125B006C1257009A
:1059700015125400C111510070114F0021114B003C
:10598000D61049008D104700461044000210420016
:10599000C00F4000800F3E00420F3C00060F3B004E
:1059A000CB0E3800930E37005C0E3500270E340006
:1059B000F30D3200C10D3100900D3000600D2E004E
:1059C000320D2D00050D2C00D90C2B00AE0C29003A
:1059D000850C29005C0C2700350C27000E0C2600D6
:1059E000E80B2400C40B2400A00B23007D0B230034
:1059F0005A0B2100390B2100180B2000F80A1F0058
:105A0000D90A1E00BB0A1E009D0A1D00800A1D0047
:105A1000630A1C00470A1B002C0A1B00110A1A000B
:105A2000F7091A00DD091900C4091900AB091900AA
:105A3000920917007B091800630917004C0916002A
:105A400036091600200916000A091500F508150088
:105A5000E0081400CC081400B8081400A4081400CE
:105A6000900813007D0812006B08130058081200FC
:105A70004608120034081100230811001208110012
:105A800001081100F0071000E0071000D007100017
:105A9000C0071000B0070F00A107100091070E000B
:105AA00083070F0074070F0065070E0057070E00ED
:105AB00049070E003B070D002E070E0020070D00C2
:105AC00013070D0006070D00F9060C00ED060D008A
:105AD000E0060C00D4060C00C8060C00BC060C0046
